{
  "contractName": "Insurance_Factory",
  "abi": [
    {
      "inputs": [
        {
          "internalType": "address[]",
          "name": "_allowedCreators",
          "type": "address[]"
        }
      ],
      "stateMutability": "nonpayable",
      "type": "constructor"
    },
    {
      "inputs": [],
      "name": "claimAmt",
      "outputs": [
        {
          "internalType": "uint256",
          "name": "",
          "type": "uint256"
        }
      ],
      "stateMutability": "view",
      "type": "function",
      "constant": true
    },
    {
      "inputs": [],
      "name": "owner",
      "outputs": [
        {
          "internalType": "address",
          "name": "",
          "type": "address"
        }
      ],
      "stateMutability": "view",
      "type": "function",
      "constant": true
    },
    {
      "inputs": [],
      "name": "getPoolBalance",
      "outputs": [
        {
          "internalType": "uint256",
          "name": "",
          "type": "uint256"
        }
      ],
      "stateMutability": "view",
      "type": "function",
      "constant": true
    },
    {
      "inputs": [],
      "name": "poolDeposit",
      "outputs": [
        {
          "internalType": "uint256",
          "name": "",
          "type": "uint256"
        }
      ],
      "stateMutability": "payable",
      "type": "function",
      "payable": true
    },
    {
      "inputs": [
        {
          "internalType": "address",
          "name": "creator",
          "type": "address"
        }
      ],
      "name": "getVendorPolicies",
      "outputs": [
        {
          "internalType": "contract Insurance_Policy[]",
          "name": "",
          "type": "address[]"
        }
      ],
      "stateMutability": "view",
      "type": "function",
      "constant": true
    },
    {
      "inputs": [],
      "name": "getVendors",
      "outputs": [
        {
          "internalType": "address[]",
          "name": "",
          "type": "address[]"
        }
      ],
      "stateMutability": "view",
      "type": "function",
      "constant": true
    },
    {
      "inputs": [
        {
          "internalType": "address",
          "name": "creator",
          "type": "address"
        }
      ],
      "name": "addVendor",
      "outputs": [],
      "stateMutability": "nonpayable",
      "type": "function"
    },
    {
      "inputs": [
        {
          "internalType": "address payable",
          "name": "claimAddr",
          "type": "address"
        }
      ],
      "name": "payClaim",
      "outputs": [],
      "stateMutability": "nonpayable",
      "type": "function"
    },
    {
      "inputs": [
        {
          "internalType": "uint256",
          "name": "_payoutAmt",
          "type": "uint256"
        }
      ],
      "name": "createPolicy",
      "outputs": [
        {
          "internalType": "address",
          "name": "",
          "type": "address"
        }
      ],
      "stateMutability": "nonpayable",
      "type": "function"
    }
  ],
  "bytecode": "0x608060405260006004553480156200001657600080fd5b50604051620020403803806200204083398181016040528101906200003c9190620004f8565b336000806101000a81548173ffffffffffffffffffffffffffffffffffffffff021916908373ffffffffffffffffffffffffffffffffffffffff16021790555060005b815181101562000254576001828281518110620000a157620000a062000549565b5b60200260200101519080600181540180825580915050600190039060005260206000200160009091909190916101000a81548173ffffffffffffffffffffffffffffffffffffffff021916908373ffffffffffffffffffffffffffffffffffffffff16021790555060016002600084848151811062000125576200012462000549565b5b602002602001015173ffffffffffffffffffffffffffffffffffffffff1673ffffffffffffffffffffffffffffffffffffffff16815260200190815260200160002060006101000a81548160ff021916908315150217905550600067ffffffffffffffff8111156200019c576200019b62000334565b5b604051908082528060200260200182016040528015620001cb5781602001602082028036833780820191505090505b5060036000848481518110620001e657620001e562000549565b5b602002602001015173ffffffffffffffffffffffffffffffffffffffff1673ffffffffffffffffffffffffffffffffffffffff16815260200190815260200160002090805190602001906200023d9291906200025c565b5080806200024b90620005b1565b9150506200007f565b5050620005fe565b828054828255906000526020600020908101928215620002d8579160200282015b82811115620002d75782518260006101000a81548173ffffffffffffffffffffffffffffffffffffffff021916908373ffffffffffffffffffffffffffffffffffffffff160217905550916020019190600101906200027d565b5b509050620002e79190620002eb565b5090565b5b8082111562000306576000816000905550600101620002ec565b5090565b6000604051905090565b600080fd5b600080fd5b600080fd5b6000601f19601f8301169050919050565b7f4e487b7100000000000000000000000000000000000000000000000000000000600052604160045260246000fd5b6200036e8262000323565b810181811067ffffffffffffffff8211171562000390576200038f62000334565b5b80604052505050565b6000620003a56200030a565b9050620003b3828262000363565b919050565b600067ffffffffffffffff821115620003d657620003d562000334565b5b602082029050602081019050919050565b600080fd5b600073ffffffffffffffffffffffffffffffffffffffff82169050919050565b60006200041982620003ec565b9050919050565b6200042b816200040c565b81146200043757600080fd5b50565b6000815190506200044b8162000420565b92915050565b6000620004686200046284620003b8565b62000399565b905080838252602082019050602084028301858111156200048e576200048d620003e7565b5b835b81811015620004bb5780620004a688826200043a565b84526020840193505060208101905062000490565b5050509392505050565b600082601f830112620004dd57620004dc6200031e565b5b8151620004ef84826020860162000451565b91505092915050565b60006020828403121562000511576200051062000314565b5b600082015167ffffffffffffffff81111562000532576200053162000319565b5b6200054084828501620004c5565b91505092915050565b7f4e487b7100000000000000000000000000000000000000000000000000000000600052603260045260246000fd5b7f4e487b7100000000000000000000000000000000000000000000000000000000600052601160045260246000fd5b6000819050919050565b6000620005be82620005a7565b91507fffffffffffffffffffffffffffffffffffffffffffffffffffffffffffffffff8203620005f357620005f262000578565b5b600182019050919050565b611a32806200060e6000396000f3fe608060405260043610620000925760003560e01c806345e0f753116200006157806345e0f753146200016f57806364bebcc5146200019d57806374b6f66f14620001cd5780638da5cb5b14620001fd578063abd70aa2146200022d5762000092565b806304bd12bb146200009757806317d2d0fc14620000db578063243a0c9a14620000fd57806336b9418a1462000141575b600080fd5b348015620000a457600080fd5b50620000c36004803603810190620000bd919062000a8b565b6200025d565b604051620000d2919062000b02565b60405180910390f35b620000e562000435565b604051620000f4919062000b30565b60405180910390f35b3480156200010a57600080fd5b5062000129600480360381019062000123919062000b7e565b6200043d565b60405162000138919062000cd8565b60405180910390f35b3480156200014e57600080fd5b506200016d600480360381019062000167919062000d41565b6200059d565b005b3480156200017c57600080fd5b506200019b600480360381019062000195919062000b7e565b620006db565b005b348015620001aa57600080fd5b50620001b5620008cd565b604051620001c4919062000e30565b60405180910390f35b348015620001da57600080fd5b50620001e56200095d565b604051620001f4919062000b30565b60405180910390f35b3480156200020a57600080fd5b506200021562000963565b60405162000224919062000b02565b60405180910390f35b3480156200023a57600080fd5b506200024562000987565b60405162000254919062000b30565b60405180910390f35b600060011515600260003373ffffffffffffffffffffffffffffffffffffffff1673ffffffffffffffffffffffffffffffffffffffff16815260200190815260200160002060009054906101000a900460ff16151514806200030a575060008054906101000a900473ffffffffffffffffffffffffffffffffffffffff1673ffffffffffffffffffffffffffffffffffffffff163373ffffffffffffffffffffffffffffffffffffffff16145b6200034c576040517f08c379a0000000000000000000000000000000000000000000000000000000008152600401620003439062000eb5565b60405180910390fd5b600082601f6040516200035f906200098f565b6200036c92919062000f1a565b604051809103906000f08015801562000389573d6000803e3d6000fd5b509050600360003373ffffffffffffffffffffffffffffffffffffffff1673ffffffffffffffffffffffffffffffffffffffff168152602001908152602001600020819080600181540180825580915050600190039060005260206000200160009091909190916101000a81548173ffffffffffffffffffffffffffffffffffffffff021916908373ffffffffffffffffffffffffffffffffffffffff16021790555080915050919050565b600034905090565b606060008054906101000a900473ffffffffffffffffffffffffffffffffffffffff1673ffffffffffffffffffffffffffffffffffffffff163373ffffffffffffffffffffffffffffffffffffffff1614620004d0576040517f08c379a0000000000000000000000000000000000000000000000000000000008152600401620004c79062000fbd565b60405180910390fd5b600360008373ffffffffffffffffffffffffffffffffffffffff1673ffffffffffffffffffffffffffffffffffffffff1681526020019081526020016000208054806020026020016040519081016040528092919081815260200182805480156200059157602002820191906000526020600020905b8160009054906101000a900473ffffffffffffffffffffffffffffffffffffffff1673ffffffffffffffffffffffffffffffffffffffff168152602001906001019080831162000546575b50505050509050919050565b8073ffffffffffffffffffffffffffffffffffffffff16631d46c04a6040518163ffffffff1660e01b8152600401602060405180830381865afa158015620005e9573d6000803e3d6000fd5b505050506040513d601f19601f820116820180604052508101906200060f919062000ff6565b60048190555060045447116200065c576040517f08c379a0000000000000000000000000000000000000000000000000000000008152600401620006539062001078565b60405180910390fd5b60008173ffffffffffffffffffffffffffffffffffffffff1663bf79b6b56004546040518263ffffffff1660e01b815260040160206040518083038185885af1158015620006ae573d6000803e3d6000fd5b50505050506040513d601f19601f82011682018060405250810190620006d5919062000ff6565b90505050565b60008054906101000a900473ffffffffffffffffffffffffffffffffffffffff1673ffffffffffffffffffffffffffffffffffffffff163373ffffffffffffffffffffffffffffffffffffffff16146200076c576040517f08c379a0000000000000000000000000000000000000000000000000000000008152600401620007639062000fbd565b60405180910390fd5b6001819080600181540180825580915050600190039060005260206000200160009091909190916101000a81548173ffffffffffffffffffffffffffffffffffffffff021916908373ffffffffffffffffffffffffffffffffffffffff1602179055506001600260008373ffffffffffffffffffffffffffffffffffffffff1673ffffffffffffffffffffffffffffffffffffffff16815260200190815260200160002060006101000a81548160ff021916908315150217905550600067ffffffffffffffff8111156200084557620008446200109a565b5b604051908082528060200260200182016040528015620008745781602001602082028036833780820191505090505b50600360008373ffffffffffffffffffffffffffffffffffffffff1673ffffffffffffffffffffffffffffffffffffffff1681526020019081526020016000209080519060200190620008c99291906200099d565b5050565b606060018054806020026020016040519081016040528092919081815260200182805480156200095357602002820191906000526020600020905b8160009054906101000a900473ffffffffffffffffffffffffffffffffffffffff1673ffffffffffffffffffffffffffffffffffffffff168152602001906001019080831162000908575b5050505050905090565b60045481565b60008054906101000a900473ffffffffffffffffffffffffffffffffffffffff1681565b600047905090565b61093380620010ca83390190565b82805482825590600052602060002090810192821562000a19579160200282015b8281111562000a185782518260006101000a81548173ffffffffffffffffffffffffffffffffffffffff021916908373ffffffffffffffffffffffffffffffffffffffff16021790555091602001919060010190620009be565b5b50905062000a28919062000a2c565b5090565b5b8082111562000a4757600081600090555060010162000a2d565b5090565b600080fd5b6000819050919050565b62000a658162000a50565b811462000a7157600080fd5b50565b60008135905062000a858162000a5a565b92915050565b60006020828403121562000aa45762000aa362000a4b565b5b600062000ab48482850162000a74565b91505092915050565b600073ffffffffffffffffffffffffffffffffffffffff82169050919050565b600062000aea8262000abd565b9050919050565b62000afc8162000add565b82525050565b600060208201905062000b19600083018462000af1565b92915050565b62000b2a8162000a50565b82525050565b600060208201905062000b47600083018462000b1f565b92915050565b62000b588162000add565b811462000b6457600080fd5b50565b60008135905062000b788162000b4d565b92915050565b60006020828403121562000b975762000b9662000a4b565b5b600062000ba78482850162000b67565b91505092915050565b600081519050919050565b600082825260208201905092915050565b6000819050602082019050919050565b6000819050919050565b600062000c0762000c0162000bfb8462000abd565b62000bdc565b62000abd565b9050919050565b600062000c1b8262000be6565b9050919050565b600062000c2f8262000c0e565b9050919050565b62000c418162000c22565b82525050565b600062000c55838362000c36565b60208301905092915050565b6000602082019050919050565b600062000c7b8262000bb0565b62000c87818562000bbb565b935062000c948362000bcc565b8060005b8381101562000ccb57815162000caf888262000c47565b975062000cbc8362000c61565b92505060018101905062000c98565b5085935050505092915050565b6000602082019050818103600083015262000cf4818462000c6e565b905092915050565b600062000d098262000abd565b9050919050565b62000d1b8162000cfc565b811462000d2757600080fd5b50565b60008135905062000d3b8162000d10565b92915050565b60006020828403121562000d5a5762000d5962000a4b565b5b600062000d6a8482850162000d2a565b91505092915050565b600081519050919050565b6000819050602082019050919050565b62000d998162000add565b82525050565b600062000dad838362000d8e565b60208301905092915050565b6000602082019050919050565b600062000dd38262000d73565b62000ddf818562000bbb565b935062000dec8362000d7e565b8060005b8381101562000e2357815162000e07888262000d9f565b975062000e148362000db9565b92505060018101905062000df0565b5085935050505092915050565b6000602082019050818103600083015262000e4c818462000dc6565b905092915050565b600082825260208201905092915050565b7f4e6f742061207065726d697373696f6e2056656e646f72206f72206f776e6572600082015250565b600062000e9d60208362000e54565b915062000eaa8262000e65565b602082019050919050565b6000602082019050818103600083015262000ed08162000e8e565b9050919050565b6000819050919050565b600062000f0262000efc62000ef68462000ed7565b62000bdc565b62000a50565b9050919050565b62000f148162000ee1565b82525050565b600060408201905062000f31600083018562000b1f565b62000f40602083018462000f09565b9392505050565b7f546869732066756e6374696f6e206d6179206f6e6c792062652063616c6c656460008201527f20627920746865206f776e657273000000000000000000000000000000000000602082015250565b600062000fa5602e8362000e54565b915062000fb28262000f47565b604082019050919050565b6000602082019050818103600083015262000fd88162000f96565b9050919050565b60008151905062000ff08162000a5a565b92915050565b6000602082840312156200100f576200100e62000a4b565b5b60006200101f8482850162000fdf565b91505092915050565b7f4e6f7420656e6f756768206d6f6e657920746f20636f76657220636c61696d00600082015250565b600062001060601f8362000e54565b91506200106d8262001028565b602082019050919050565b60006020820190508181036000830152620010938162001051565b9050919050565b7f4e487b7100000000000000000000000000000000000000000000000000000000600052604160045260246000fdfe60806040526000600560006101000a81548160ff0219169083151502179055503480156200002c57600080fd5b50604051620009333803806200093383398181016040528101906200005291906200016a565b7fffffffffffffffffffffffffffffffffffffffffffffffffffffffffffffffff8110620000b7576040517f08c379a0000000000000000000000000000000000000000000000000000000008152600401620000ae9062000212565b60405180910390fd5b326000806101000a81548173ffffffffffffffffffffffffffffffffffffffff021916908373ffffffffffffffffffffffffffffffffffffffff1602179055508160038190555062015180816200010f919062000263565b426200011c9190620002c4565b600481905550505062000321565b600080fd5b6000819050919050565b62000144816200012f565b81146200015057600080fd5b50565b600081519050620001648162000139565b92915050565b600080604083850312156200018457620001836200012a565b5b6000620001948582860162000153565b9250506020620001a78582860162000153565b9150509250929050565b600082825260208201905092915050565b7f4475726174696f6e20746f6f206c6f6e67000000000000000000000000000000600082015250565b6000620001fa601183620001b1565b91506200020782620001c2565b602082019050919050565b600060208201905081810360008301526200022d81620001eb565b9050919050565b7f4e487b7100000000000000000000000000000000000000000000000000000000600052601160045260246000fd5b600062000270826200012f565b91506200027d836200012f565b9250817fffffffffffffffffffffffffffffffffffffffffffffffffffffffffffffffff0483118215151615620002b957620002b862000234565b5b828202905092915050565b6000620002d1826200012f565b9150620002de836200012f565b9250827fffffffffffffffffffffffffffffffffffffffffffffffffffffffffffffffff0382111562000316576200031562000234565b5b828201905092915050565b61060280620003316000396000f3fe60806040526004361061007b5760003560e01c80638da5cb5b1161004e5780638da5cb5b14610118578063bf79b6b514610143578063da284dcc14610161578063e834a8341461018c5761007b565b806309153bf8146100805780631d46c04a146100ab57806338af3eed146100d657806363bd1d4a14610101575b600080fd5b34801561008c57600080fd5b506100956101b7565b6040516100a2919061038e565b60405180910390f35b3480156100b757600080fd5b506100c06101bf565b6040516100cd919061038e565b60405180910390f35b3480156100e257600080fd5b506100eb6101c5565b6040516100f891906103ea565b60405180910390f35b34801561010d57600080fd5b506101166101eb565b005b34801561012457600080fd5b5061012d610330565b60405161013a9190610426565b60405180910390f35b61014b610354565b604051610158919061038e565b60405180910390f35b34801561016d57600080fd5b5061017661035c565b604051610183919061038e565b60405180910390f35b34801561019857600080fd5b506101a1610362565b6040516101ae919061045c565b60405180910390f35b600047905090565b60035481565b600260009054906101000a900473ffffffffffffffffffffffffffffffffffffffff1681565b60008054906101000a900473ffffffffffffffffffffffffffffffffffffffff1673ffffffffffffffffffffffffffffffffffffffff163373ffffffffffffffffffffffffffffffffffffffff1614610279576040517f08c379a0000000000000000000000000000000000000000000000000000000008152600401610270906104d4565b60405180910390fd5b60045442106102bd576040517f08c379a00000000000000000000000000000000000000000000000000000000081526004016102b490610540565b60405180910390fd5b60001515600560009054906101000a900460ff16151514610313576040517f08c379a000000000000000000000000000000000000000000000000000000000815260040161030a906105ac565b60405180910390fd5b6001600560006101000a81548160ff021916908315150217905550565b60008054906101000a900473ffffffffffffffffffffffffffffffffffffffff1681565b600034905090565b60045481565b600560009054906101000a900460ff1681565b6000819050919050565b61038881610375565b82525050565b60006020820190506103a3600083018461037f565b92915050565b600073ffffffffffffffffffffffffffffffffffffffff82169050919050565b60006103d4826103a9565b9050919050565b6103e4816103c9565b82525050565b60006020820190506103ff60008301846103db565b92915050565b6000610410826103a9565b9050919050565b61042081610405565b82525050565b600060208201905061043b6000830184610417565b92915050565b60008115159050919050565b61045681610441565b82525050565b6000602082019050610471600083018461044d565b92915050565b600082825260208201905092915050565b7f4e6f74207065726d697373696f6e656400000000000000000000000000000000600082015250565b60006104be601083610477565b91506104c982610488565b602082019050919050565b600060208201905081810360008301526104ed816104b1565b9050919050565b7f436f6e7461637420657870697265640000000000000000000000000000000000600082015250565b600061052a600f83610477565b9150610535826104f4565b602082019050919050565b600060208201905081810360008301526105598161051d565b9050919050565b7f436f6e74726163742068617320616c72656164792070616964206f7574000000600082015250565b6000610596601d83610477565b91506105a182610560565b602082019050919050565b600060208201905081810360008301526105c581610589565b905091905056fea2646970667358221220326f5ebdf69687e3892069f0a9b465dbcda85bffdc68ffee8562b4f4916f4ed164736f6c634300080d0033a26469706673582212206e7e191fafe47427a2b5098fba8a994e6ea56a778039839136a492823d80d5a264736f6c634300080d0033",
  "immutableReferences": {},
  "source": "/* This program is free software: you can redistribute it and/or modify\r\n * it under the terms of the GNU General Public License as published by\r\n * the Free Software Foundation, either version 3 of the License, or\r\n * (at your option) any later version.\r\n *\r\n * This program is distributed in the hope that it will be useful,\r\n * but WITHOUT ANY WARRANTY; without even the implied warranty of\r\n * MERCHANTABILITY or FITNESS FOR A PARTICULAR PURPOSE.  See the\r\n * GNU General Public License for more details.\r\n *\r\n * You should have received a copy of the GNU General Public License\r\n * along with this program.  If not, see <https://www.gnu.org/licenses/>.\r\n */\r\n\r\n\r\nimport \"./insurance_policy.sol\";\r\npragma solidity ^0.8.0;\r\n\r\n\r\ncontract Insurance_Factory {\r\n\r\n    address public owner;\r\n    \r\n    address[] allowedCreatorsList;\r\n    mapping (address => bool) allowedCreators;\r\n    mapping (address => Insurance_Policy[]) CreatorsPolicyMap;\r\n\r\n    constructor(address[] memory _allowedCreators) {\r\n        owner = msg.sender;\r\n        //Initalize Allowed Creator Structures\r\n        for (uint i = 0; i < _allowedCreators.length; i++) {\r\n\r\n            //add address to key list\r\n            allowedCreatorsList.push(_allowedCreators[i]);\r\n\r\n            // add address to key mapping\r\n            allowedCreators[_allowedCreators[i]] = true;\r\n\r\n            // add key to creator claims map\r\n            CreatorsPolicyMap[_allowedCreators[i]] = new Insurance_Policy[](0);\r\n        }\r\n    }\r\n\r\n    //MODIFIERS\r\n\r\n    modifier onlyOwner(){\r\n        // factory owner only\r\n        require(msg.sender == owner,\r\n        \"This function may only be called by the owners\");\r\n        _;\r\n    }\r\n\r\n    modifier checkVendor() {\r\n        // approved vendor or factory owner\r\n        require(allowedCreators[msg.sender] == true || msg.sender == owner, \r\n        \"Not a permission Vendor or owner\");\r\n        _;\r\n    }\r\n\r\n    //FUNCTIONS\r\n\r\n    //Funds Pool Interaction Functions\r\n    function getPoolBalance() public view returns (uint){\r\n        return(address(this).balance);\r\n    }\r\n\r\n    function poolDeposit() payable public returns(uint256) {\r\n        return(msg.value);\r\n    }\r\n    \r\n    //Vendor Interaction Functions\r\n    function getVendorPolicies(address creator) onlyOwner public view returns(Insurance_Policy[] memory) {\r\n        return(CreatorsPolicyMap[creator]);\r\n    } \r\n\r\n    function getVendors() public view returns (address[] memory) {\r\n        return allowedCreatorsList;\r\n    }\r\n\r\n    function addVendor(address creator) onlyOwner public {\r\n        allowedCreatorsList.push(creator);\r\n        allowedCreators[creator] = true;\r\n        CreatorsPolicyMap[creator] = new Insurance_Policy[](0);\r\n    }\r\n\r\n\r\n    // bool public success;\r\n    uint public claimAmt = 0;\r\n\r\n    function payClaim(address payable claimAddr) public {\r\n        claimAmt = Insurance_Policy(claimAddr).payout_amount();\r\n\r\n        require(address(this).balance > claimAmt, \"Not enough money to cover claim\");\r\n        // (success, payout_Amt) = claimAddr.call(abi.encodeWithSignature(\"payout_amount\"));\r\n        // payout_Amt = payoutAmt;\r\n        // bool success = false;\r\n        \r\n        uint success = Insurance_Policy(claimAddr).recieveClaim{value:claimAmt}();\r\n        \r\n        // require(success, \"Transfer Failed\");    \r\n        \r\n        \r\n\r\n        // bool success = claimAddr.transfer(claimAmt);\r\n    }\r\n\r\n    //Create Policy\r\n    function createPolicy(uint _payoutAmt) checkVendor public returns(address) {\r\n        Insurance_Policy newPolicy = new Insurance_Policy(\r\n            _payoutAmt, \r\n            31);\r\n        CreatorsPolicyMap[msg.sender].push(newPolicy);\r\n        return(address(newPolicy));\r\n    }\r\n\r\n\r\n    \r\n}",
  "sourcePath": "C:\\Users\\littl\\projects\\sc_insurance\\contracts\\insurance_factory.sol",
  "compiler": {
    "name": "solc",
    "version": "0.8.13+commit.abaa5c0e.Emscripten.clang"
  },
  "schemaVersion": "3.4.13",
  "updatedAt": "2023-05-03T04:20:59.621Z",
  "networkType": "ethereum",
  "devdoc": {
    "kind": "dev",
    "methods": {},
    "version": 1
  },
  "userdoc": {
    "kind": "user",
    "methods": {},
    "version": 1
  }
}