{
  "contractName": "InsurancePolicy",
  "abi": [
    {
      "inputs": [
        {
          "internalType": "address payable",
          "name": "_beneficiary",
          "type": "address"
        },
        {
          "internalType": "uint256",
          "name": "_premiumAmount",
          "type": "uint256"
        },
        {
          "internalType": "uint256",
          "name": "_payoutAmount",
          "type": "uint256"
        },
        {
          "internalType": "uint256",
          "name": "_durationInDays",
          "type": "uint256"
        }
      ],
      "stateMutability": "nonpayable",
      "type": "constructor"
    },
    {
      "stateMutability": "payable",
      "type": "fallback"
    },
    {
      "inputs": [],
      "name": "activated",
      "outputs": [
        {
          "internalType": "bool",
          "name": "",
          "type": "bool"
        }
      ],
      "stateMutability": "view",
      "type": "function"
    },
    {
      "inputs": [],
      "name": "beneficiary",
      "outputs": [
        {
          "internalType": "address payable",
          "name": "",
          "type": "address"
        }
      ],
      "stateMutability": "view",
      "type": "function"
    },
    {
      "inputs": [],
      "name": "expirationTime",
      "outputs": [
        {
          "internalType": "uint256",
          "name": "",
          "type": "uint256"
        }
      ],
      "stateMutability": "view",
      "type": "function"
    },
    {
      "inputs": [],
      "name": "owner",
      "outputs": [
        {
          "internalType": "address payable",
          "name": "",
          "type": "address"
        }
      ],
      "stateMutability": "view",
      "type": "function"
    },
    {
      "inputs": [],
      "name": "payoutAmount",
      "outputs": [
        {
          "internalType": "uint256",
          "name": "",
          "type": "uint256"
        }
      ],
      "stateMutability": "view",
      "type": "function"
    },
    {
      "inputs": [],
      "name": "premiumAmount",
      "outputs": [
        {
          "internalType": "uint256",
          "name": "",
          "type": "uint256"
        }
      ],
      "stateMutability": "view",
      "type": "function"
    },
    {
      "inputs": [],
      "name": "riskOccurred",
      "outputs": [
        {
          "internalType": "bool",
          "name": "",
          "type": "bool"
        }
      ],
      "stateMutability": "view",
      "type": "function"
    },
    {
      "inputs": [],
      "name": "activate",
      "outputs": [],
      "stateMutability": "payable",
      "type": "function"
    },
    {
      "inputs": [],
      "name": "isActive",
      "outputs": [
        {
          "internalType": "bool",
          "name": "",
          "type": "bool"
        }
      ],
      "stateMutability": "view",
      "type": "function"
    },
    {
      "inputs": [],
      "name": "reportRisk",
      "outputs": [],
      "stateMutability": "nonpayable",
      "type": "function"
    },
    {
      "inputs": [],
      "name": "payout",
      "outputs": [],
      "stateMutability": "nonpayable",
      "type": "function"
    }
  ],
  "bytecode": "0x60806040523480156200001157600080fd5b506040516200115238038062001152833981810160405281019062000037919062000199565b336000806101000a81548173ffffffffffffffffffffffffffffffffffffffff021916908373ffffffffffffffffffffffffffffffffffffffff16021790555083600160006101000a81548173ffffffffffffffffffffffffffffffffffffffff021916908373ffffffffffffffffffffffffffffffffffffffff16021790555082600281905550816003819055506201518081620000d791906200023a565b42620000e491906200029b565b60048190555050505050620002f8565b600080fd5b600073ffffffffffffffffffffffffffffffffffffffff82169050919050565b60006200012682620000f9565b9050919050565b620001388162000119565b81146200014457600080fd5b50565b60008151905062000158816200012d565b92915050565b6000819050919050565b62000173816200015e565b81146200017f57600080fd5b50565b600081519050620001938162000168565b92915050565b60008060008060808587031215620001b657620001b5620000f4565b5b6000620001c68782880162000147565b9450506020620001d98782880162000182565b9350506040620001ec8782880162000182565b9250506060620001ff8782880162000182565b91505092959194509250565b7f4e487b7100000000000000000000000000000000000000000000000000000000600052601160045260246000fd5b600062000247826200015e565b915062000254836200015e565b9250817fffffffffffffffffffffffffffffffffffffffffffffffffffffffffffffffff048311821515161562000290576200028f6200020b565b5b828202905092915050565b6000620002a8826200015e565b9150620002b5836200015e565b9250827fffffffffffffffffffffffffffffffffffffffffffffffffffffffffffffffff03821115620002ed57620002ec6200020b565b5b828201905092915050565b610e4a80620003086000396000f3fe6080604052600436106100a05760003560e01c806338af3eed1161006457806338af3eed146101ee57806344530f3a1461021957806363bd1d4a146102445780636b46c8c31461025b5780638da5cb5b14610286578063da284dcc146102b1576100a1565b80630c7bda591461014c5780630f15f4c014610177578063186601ca1461018157806322f3e2d4146101ac57806327a62828146101d7576100a1565b5b600034116100e4576040517f08c379a00000000000000000000000000000000000000000000000000000000081526004016100db906108a4565b60405180910390fd5b60008054906101000a900473ffffffffffffffffffffffffffffffffffffffff1673ffffffffffffffffffffffffffffffffffffffff166108fc349081150290604051600060405180830381858888f1935050505015801561014a573d6000803e3d6000fd5b005b34801561015857600080fd5b506101616102dc565b60405161016e91906108df565b60405180910390f35b61017f6102ef565b005b34801561018d57600080fd5b5061019661042e565b6040516101a391906108df565b60405180910390f35b3480156101b857600080fd5b506101c1610441565b6040516101ce91906108df565b60405180910390f35b3480156101e357600080fd5b506101ec61047e565b005b3480156101fa57600080fd5b5061020361060e565b604051610210919061093b565b60405180910390f35b34801561022557600080fd5b5061022e610634565b60405161023b919061096f565b60405180910390f35b34801561025057600080fd5b5061025961063a565b005b34801561026757600080fd5b50610270610817565b60405161027d919061096f565b60405180910390f35b34801561029257600080fd5b5061029b61081d565b6040516102a8919061093b565b60405180910390f35b3480156102bd57600080fd5b506102c6610841565b6040516102d3919061096f565b60405180910390f35b600560019054906101000a900460ff1681565b60008054906101000a900473ffffffffffffffffffffffffffffffffffffffff1673ffffffffffffffffffffffffffffffffffffffff163373ffffffffffffffffffffffffffffffffffffffff161461037d576040517f08c379a0000000000000000000000000000000000000000000000000000000008152600401610374906109fc565b60405180910390fd5b60025434146103c1576040517f08c379a00000000000000000000000000000000000000000000000000000000081526004016103b890610a8e565b60405180910390fd5b600560009054906101000a900460ff1615610411576040517f08c379a000000000000000000000000000000000000000000000000000000000815260040161040890610b20565b60405180910390fd5b6001600560006101000a81548160ff021916908315150217905550565b600560009054906101000a900460ff1681565b6000600560009054906101000a900460ff16801561046c5750600560019054906101000a900460ff16155b8015610479575060045442105b905090565b600160009054906101000a900473ffffffffffffffffffffffffffffffffffffffff1673ffffffffffffffffffffffffffffffffffffffff163373ffffffffffffffffffffffffffffffffffffffff161461050e576040517f08c379a000000000000000000000000000000000000000000000000000000000815260040161050590610bb2565b60405180910390fd5b600560009054906101000a900460ff1661055d576040517f08c379a000000000000000000000000000000000000000000000000000000000815260040161055490610c1e565b60405180910390fd5b600560019054906101000a900460ff16156105ad576040517f08c379a00000000000000000000000000000000000000000000000000000000081526004016105a490610c8a565b60405180910390fd5b60045442106105f1576040517f08c379a00000000000000000000000000000000000000000000000000000000081526004016105e890610cf6565b60405180910390fd5b6001600560016101000a81548160ff021916908315150217905550565b600160009054906101000a900473ffffffffffffffffffffffffffffffffffffffff1681565b60025481565b60008054906101000a900473ffffffffffffffffffffffffffffffffffffffff1673ffffffffffffffffffffffffffffffffffffffff163373ffffffffffffffffffffffffffffffffffffffff16146106c8576040517f08c379a00000000000000000000000000000000000000000000000000000000081526004016106bf90610d88565b60405180910390fd5b600560009054906101000a900460ff16610717576040517f08c379a000000000000000000000000000000000000000000000000000000000815260040161070e90610c1e565b60405180910390fd5b600560019054906101000a900460ff16610766576040517f08c379a000000000000000000000000000000000000000000000000000000000815260040161075d90610df4565b60405180910390fd5b60045442106107aa576040517f08c379a00000000000000000000000000000000000000000000000000000000081526004016107a190610cf6565b60405180910390fd5b600160009054906101000a900473ffffffffffffffffffffffffffffffffffffffff1673ffffffffffffffffffffffffffffffffffffffff166108fc6003549081150290604051600060405180830381858888f19350505050158015610814573d6000803e3d6000fd5b50565b60035481565b60008054906101000a900473ffffffffffffffffffffffffffffffffffffffff1681565b60045481565b600082825260208201905092915050565b7f4e6f2045746865722073656e742e000000000000000000000000000000000000600082015250565b600061088e600e83610847565b915061089982610858565b602082019050919050565b600060208201905081810360008301526108bd81610881565b9050919050565b60008115159050919050565b6108d9816108c4565b82525050565b60006020820190506108f460008301846108d0565b92915050565b600073ffffffffffffffffffffffffffffffffffffffff82169050919050565b6000610925826108fa565b9050919050565b6109358161091a565b82525050565b6000602082019050610950600083018461092c565b92915050565b6000819050919050565b61096981610956565b82525050565b60006020820190506109846000830184610960565b92915050565b7f4f6e6c7920746865206f776e65722063616e206163746976617465207468652060008201527f706f6c6963792e00000000000000000000000000000000000000000000000000602082015250565b60006109e6602783610847565b91506109f18261098a565b604082019050919050565b60006020820190508181036000830152610a15816109d9565b9050919050565b7f5072656d69756d20616d6f756e74206d757374206265207061696420746f206160008201527f637469766174652074686520706f6c6963792e00000000000000000000000000602082015250565b6000610a78603383610847565b9150610a8382610a1c565b604082019050919050565b60006020820190508181036000830152610aa781610a6b565b9050919050565b7f506f6c6963792068617320616c7265616479206265656e20616374697661746560008201527f642e000000000000000000000000000000000000000000000000000000000000602082015250565b6000610b0a602283610847565b9150610b1582610aae565b604082019050919050565b60006020820190508181036000830152610b3981610afd565b9050919050565b7f4f6e6c79207468652062656e65666963696172792063616e207265706f72742060008201527f61207269736b2e00000000000000000000000000000000000000000000000000602082015250565b6000610b9c602783610847565b9150610ba782610b40565b604082019050919050565b60006020820190508181036000830152610bcb81610b8f565b9050919050565b7f506f6c69637920686173206e6f74206265656e206163746976617465642e0000600082015250565b6000610c08601e83610847565b9150610c1382610bd2565b602082019050919050565b60006020820190508181036000830152610c3781610bfb565b9050919050565b7f5269736b2068617320616c7265616479206265656e207265706f727465642e00600082015250565b6000610c74601f83610847565b9150610c7f82610c3e565b602082019050919050565b60006020820190508181036000830152610ca381610c67565b9050919050565b7f506f6c6963792068617320657870697265642e00000000000000000000000000600082015250565b6000610ce0601383610847565b9150610ceb82610caa565b602082019050919050565b60006020820190508181036000830152610d0f81610cd3565b9050919050565b7f4f6e6c7920746865206f776e65722063616e20706179206f757420746865206960008201527f6e737572656420616d6f756e742e000000000000000000000000000000000000602082015250565b6000610d72602e83610847565b9150610d7d82610d16565b604082019050919050565b60006020820190508181036000830152610da181610d65565b9050919050565b7f5269736b20686173206e6f74206f636375727265642e00000000000000000000600082015250565b6000610dde601683610847565b9150610de982610da8565b602082019050919050565b60006020820190508181036000830152610e0d81610dd1565b905091905056fea26469706673582212205d4d965df6f9039ba57921921189cba27b7f1aae5aefed8777fedeebc9d60bca64736f6c634300080d0033",
  "immutableReferences": {},
  "source": "pragma solidity ^0.8.0;\r\n\r\n// Factory contract that creates new instances of InsurancePolicy\r\ncontract InsuranceFactory {\r\n\r\n    // Array of addresses that are allowed to create new policies\r\n    address[] private allowedCreators;\r\n\r\n    // Array to keep track of all the policies that have been created\r\n    address payable[] private allPolicies;\r\n    \r\n    // Modifier that checks if the caller is allowed to create new policies\r\n    modifier onlyAllowedCreators() {\r\n        bool allowed = false;\r\n        for (uint256 i = 0; i < allowedCreators.length; i++) {\r\n            if (allowedCreators[i] == msg.sender) {\r\n                allowed = true;\r\n                break;\r\n            }\r\n        }\r\n        require(allowed, \"Only allowed creators can create new policies\");\r\n        _;\r\n    }\r\n\r\n    // Constructor function that sets the initial set of allowed creators\r\n    constructor(address[] memory _allowedCreators) {\r\n        allowedCreators = _allowedCreators;\r\n    }\r\n\r\n    // Function to add a new address to the allowed creators list\r\n    function addAllowedCreator(address newCreator) public onlyAllowedCreators {\r\n        allowedCreators.push(newCreator);\r\n    }\r\n\r\n    // Function to remove an address from the allowed creators list\r\n    function removeAllowedCreator(address creator) public onlyAllowedCreators {\r\n        for (uint256 i = 0; i < allowedCreators.length; i++) {\r\n            if (allowedCreators[i] == creator) {\r\n                allowedCreators[i] = allowedCreators[allowedCreators.length - 1];\r\n                allowedCreators.pop();\r\n                break;\r\n            }\r\n        }\r\n    }\r\n\r\n    // Function to create a new instance of InsurancePolicy with an initial premium\r\n    function createInsurancePolicy(address payable _beneficiary, uint _premiumAmount, uint _payoutAmount, uint _durationInDays) public onlyAllowedCreators returns (address) {\r\n        \r\n        // Create a new instance of InsurancePolicy using the provided initial premium\r\n        InsurancePolicy newPolicy = new InsurancePolicy(_beneficiary, _premiumAmount, _payoutAmount, _durationInDays);\r\n\r\n        // Return the address of the new instance of InsurancePolicy\r\n        return address(newPolicy);\r\n    }\r\n\r\n}\r\n\r\n\r\n// Contract representing an insurance policy\r\ncontract InsurancePolicy {\r\n    // The owner of the contract\r\n    address payable public owner;\r\n\r\n    // The beneficiary of the insurance policy\r\n    address payable public beneficiary;\r\n\r\n    // The amount of the insurance premium\r\n    uint public premiumAmount;\r\n\r\n    // The amount to be paid out if the risk occurs\r\n    uint public payoutAmount;\r\n\r\n    // The time at which the policy expires\r\n    uint public expirationTime;\r\n\r\n    // True if the policy has been activated\r\n    bool public activated;\r\n\r\n    // True if the risk has occurred\r\n    bool public riskOccurred;\r\n\r\n    // The constructor function - sets the owner, beneficiary, premium amount, and payout amount\r\n    constructor(address payable _beneficiary, uint _premiumAmount, uint _payoutAmount, uint _durationInDays) {\r\n        owner = payable(msg.sender);\r\n        beneficiary = _beneficiary;\r\n        premiumAmount = _premiumAmount;\r\n        payoutAmount = _payoutAmount;\r\n        expirationTime = block.timestamp + (_durationInDays * 1 days);\r\n    }\r\n\r\n    // The function to activate the insurance policy\r\n    function activate() public payable {\r\n        require(msg.sender == owner, \"Only the owner can activate the policy.\");\r\n        require(msg.value == premiumAmount, \"Premium amount must be paid to activate the policy.\");\r\n        require(!activated, \"Policy has already been activated.\");\r\n        activated = true;\r\n    }\r\n\r\n    // The function to check if the policy is still active\r\n    function isActive() public view returns (bool) {\r\n        return (activated && !riskOccurred && block.timestamp < expirationTime);\r\n    }\r\n\r\n    // The function to report that the risk has occurred\r\n    function reportRisk() public {\r\n        require(msg.sender == beneficiary, \"Only the beneficiary can report a risk.\");\r\n        require(activated, \"Policy has not been activated.\");\r\n        require(!riskOccurred, \"Risk has already been reported.\");\r\n        require(block.timestamp < expirationTime, \"Policy has expired.\");\r\n        riskOccurred = true;\r\n    }\r\n\r\n    // The function to pay out the insured amount if the risk occurs\r\n    function payout() public {\r\n        require(msg.sender == owner, \"Only the owner can pay out the insured amount.\");\r\n        require(activated, \"Policy has not been activated.\");\r\n        require(riskOccurred, \"Risk has not occurred.\");\r\n        require(block.timestamp < expirationTime, \"Policy has expired.\");\r\n        payable(beneficiary).transfer(payoutAmount);\r\n    }\r\n\r\n    // The fallback function - refunds any excess Ether sent to the contract\r\n    fallback() external payable {\r\n        require(msg.value > 0, \"No Ether sent.\");\r\n        owner.transfer(msg.value);\r\n    }\r\n}\r\n",
  "sourcePath": "C:\\Users\\littl\\projects\\sc_insurance\\contracts\\insurance_factory.sol",
  "compiler": {
    "name": "solc",
    "version": "0.8.13+commit.abaa5c0e.Emscripten.clang"
  },
  "schemaVersion": "3.4.13",
  "updatedAt": "2023-05-01T22:10:16.210Z",
  "devdoc": {
    "kind": "dev",
    "methods": {},
    "version": 1
  },
  "userdoc": {
    "kind": "user",
    "methods": {},
    "version": 1
  }
}