{
  "contractName": "Insurance_Policy",
  "abi": [
    {
      "inputs": [
        {
          "internalType": "uint256",
          "name": "_payout",
          "type": "uint256"
        },
        {
          "internalType": "address payable",
          "name": "_beneficiary",
          "type": "address"
        },
        {
          "internalType": "uint256",
          "name": "_durationInDays",
          "type": "uint256"
        }
      ],
      "stateMutability": "nonpayable",
      "type": "constructor"
    },
    {
      "inputs": [],
      "name": "beneficiary",
      "outputs": [
        {
          "internalType": "address payable",
          "name": "",
          "type": "address"
        }
      ],
      "stateMutability": "view",
      "type": "function",
      "constant": true
    },
    {
      "inputs": [],
      "name": "claimed",
      "outputs": [
        {
          "internalType": "bool",
          "name": "",
          "type": "bool"
        }
      ],
      "stateMutability": "view",
      "type": "function",
      "constant": true
    },
    {
      "inputs": [],
      "name": "expirationTime",
      "outputs": [
        {
          "internalType": "uint256",
          "name": "",
          "type": "uint256"
        }
      ],
      "stateMutability": "view",
      "type": "function",
      "constant": true
    },
    {
      "inputs": [],
      "name": "owner",
      "outputs": [
        {
          "internalType": "address",
          "name": "",
          "type": "address"
        }
      ],
      "stateMutability": "view",
      "type": "function",
      "constant": true
    },
    {
      "inputs": [],
      "name": "payout_amount",
      "outputs": [
        {
          "internalType": "uint256",
          "name": "",
          "type": "uint256"
        }
      ],
      "stateMutability": "view",
      "type": "function",
      "constant": true
    },
    {
      "inputs": [],
      "name": "recieveClaim",
      "outputs": [
        {
          "internalType": "uint256",
          "name": "",
          "type": "uint256"
        }
      ],
      "stateMutability": "payable",
      "type": "function",
      "payable": true
    },
    {
      "inputs": [],
      "name": "setClaimed",
      "outputs": [],
      "stateMutability": "nonpayable",
      "type": "function"
    }
  ],
  "bytecode": "0x60806040526000600560006101000a81548160ff02191690831515021790555034801561002b57600080fd5b5060405161082a38038061082a833981810160405281019061004d91906101f8565b7fffffffffffffffffffffffffffffffffffffffffffffffffffffffffffffffff81106100af576040517f08c379a00000000000000000000000000000000000000000000000000000000081526004016100a6906102a8565b60405180910390fd5b326000806101000a81548173ffffffffffffffffffffffffffffffffffffffff021916908373ffffffffffffffffffffffffffffffffffffffff16021790555081600260006101000a81548173ffffffffffffffffffffffffffffffffffffffff021916908373ffffffffffffffffffffffffffffffffffffffff16021790555082600381905550620151808161014691906102f7565b426101519190610351565b6004819055505050506103a7565b600080fd5b6000819050919050565b61017781610164565b811461018257600080fd5b50565b6000815190506101948161016e565b92915050565b600073ffffffffffffffffffffffffffffffffffffffff82169050919050565b60006101c58261019a565b9050919050565b6101d5816101ba565b81146101e057600080fd5b50565b6000815190506101f2816101cc565b92915050565b6000806000606084860312156102115761021061015f565b5b600061021f86828701610185565b9350506020610230868287016101e3565b925050604061024186828701610185565b9150509250925092565b600082825260208201905092915050565b7f4475726174696f6e20746f6f206c6f6e67000000000000000000000000000000600082015250565b600061029260118361024b565b915061029d8261025c565b602082019050919050565b600060208201905081810360008301526102c181610285565b9050919050565b7f4e487b7100000000000000000000000000000000000000000000000000000000600052601160045260246000fd5b600061030282610164565b915061030d83610164565b9250817fffffffffffffffffffffffffffffffffffffffffffffffffffffffffffffffff0483118215151615610346576103456102c8565b5b828202905092915050565b600061035c82610164565b915061036783610164565b9250827fffffffffffffffffffffffffffffffffffffffffffffffffffffffffffffffff0382111561039c5761039b6102c8565b5b828201905092915050565b610474806103b66000396000f3fe6080604052600436106100705760003560e01c8063bf79b6b51161004e578063bf79b6b5146100f6578063da284dcc14610114578063e834a8341461013f578063f74f32e01461016a57610070565b80631d46c04a1461007557806338af3eed146100a05780638da5cb5b146100cb575b600080fd5b34801561008157600080fd5b5061008a610181565b6040516100979190610326565b60405180910390f35b3480156100ac57600080fd5b506100b5610187565b6040516100c29190610382565b60405180910390f35b3480156100d757600080fd5b506100e06101ad565b6040516100ed91906103be565b60405180910390f35b6100fe6101d1565b60405161010b9190610326565b60405180910390f35b34801561012057600080fd5b506101296102d7565b6040516101369190610326565b60405180910390f35b34801561014b57600080fd5b506101546102dd565b60405161016191906103f4565b60405180910390f35b34801561017657600080fd5b5061017f6102f0565b005b60035481565b600260009054906101000a900473ffffffffffffffffffffffffffffffffffffffff1681565b60008054906101000a900473ffffffffffffffffffffffffffffffffffffffff1681565b60008060009054906101000a900473ffffffffffffffffffffffffffffffffffffffff1673ffffffffffffffffffffffffffffffffffffffff163273ffffffffffffffffffffffffffffffffffffffff16146102305761022f61040f565b5b60045442106102425761024161040f565b5b60001515600560009054906101000a900460ff161515146102665761026561040f565b5b600260009054906101000a900473ffffffffffffffffffffffffffffffffffffffff1673ffffffffffffffffffffffffffffffffffffffff166108fc6003549081150290604051600060405180830381858888f193505050501580156102d0573d6000803e3d6000fd5b5034905090565b60045481565b600560009054906101000a900460ff1681565b6001600560006101000a81548160ff021916908315150217905550565b6000819050919050565b6103208161030d565b82525050565b600060208201905061033b6000830184610317565b92915050565b600073ffffffffffffffffffffffffffffffffffffffff82169050919050565b600061036c82610341565b9050919050565b61037c81610361565b82525050565b60006020820190506103976000830184610373565b92915050565b60006103a882610341565b9050919050565b6103b88161039d565b82525050565b60006020820190506103d360008301846103af565b92915050565b60008115159050919050565b6103ee816103d9565b82525050565b600060208201905061040960008301846103e5565b92915050565b7f4e487b7100000000000000000000000000000000000000000000000000000000600052600160045260246000fdfea2646970667358221220761dec696a123860f573712398cd33f7397d51aa0c99170858a18e36f1a9351f64736f6c634300080d0033",
  "immutableReferences": {},
  "source": "/* This program is free software: you can redistribute it and/or modify\r\n * it under the terms of the GNU General Public License as published by\r\n * the Free Software Foundation, either version 3 of the License, or\r\n * (at your option) any later version.\r\n *\r\n * This program is distributed in the hope that it will be useful,\r\n * but WITHOUT ANY WARRANTY; without even the implied warranty of\r\n * MERCHANTABILITY or FITNESS FOR A PARTICULAR PURPOSE.  See the\r\n * GNU General Public License for more details.\r\n *\r\n * You should have received a copy of the GNU General Public License\r\n * along with this program.  If not, see <https://www.gnu.org/licenses/>.\r\n */\r\n \r\npragma solidity ^0.8.0;\r\n\r\ncontract Insurance_Policy {\r\n\r\n    //Contract Owner\r\n    address public owner;\r\n\r\n    //Funds Pool Address\r\n    address fundPool;\r\n\r\n    //Beneficiary\r\n    address payable public beneficiary;\r\n\r\n    //Amt to payout on claim\r\n    uint public payout_amount;\r\n\r\n    // The time at which the policy expires\r\n    uint public expirationTime;\r\n\r\n    // Claimed bool\r\n    bool public claimed = false;\r\n\r\n    constructor(uint _payout, address payable _beneficiary, uint _durationInDays){\r\n        require(_durationInDays < 2**256 - 1, \"Duration too long\");\r\n\r\n        owner = address(tx.origin);\r\n        //owner is vendor who initiates policy creation\r\n        //msg.sender = factory contract\r\n\r\n        beneficiary = payable(_beneficiary);\r\n        payout_amount = _payout;\r\n        expirationTime = block.timestamp + (_durationInDays * 1 days);\r\n    }\r\n\r\n    // CURRENTLY UNUSED -- Claim paid directly to beneficiary from factory\r\n    function recieveClaim() public payable returns(uint) {\r\n        // require(tx.origin == owner, \"Must be the vendor who created the policy to issue claim\");\r\n        // require(block.timestamp < expirationTime, \"Contract Expired\");\r\n        // require(claimed == false, \"Policy can not be claimed twice\");\r\n        assert(tx.origin == owner);\r\n        assert(block.timestamp < expirationTime);\r\n        assert(claimed == false);\r\n        //!FIX?\r\n        //TWO DEPOSITS THAT CUMULATIVELY SUM TO PAYOUT_AMOUNT \r\n        //WILL NOT FILL CONDITION\r\n        // if(address(this).balance >= payout_amount){\r\n        \r\n        // }\r\n        \r\n        beneficiary.transfer(payout_amount);\r\n    \r\n        return(msg.value);\r\n    }\r\n\r\n\r\n    function setClaimed() public {\r\n        claimed = true;\r\n    }\r\n}",
  "sourcePath": "C:\\Users\\littl\\projects\\sc_insurance\\contracts\\insurance_policy.sol",
  "compiler": {
    "name": "solc",
    "version": "0.8.13+commit.abaa5c0e.Emscripten.clang"
  },
  "schemaVersion": "3.4.13",
  "updatedAt": "2023-05-04T02:30:31.608Z",
  "networkType": "ethereum",
  "devdoc": {
    "kind": "dev",
    "methods": {},
    "version": 1
  },
  "userdoc": {
    "kind": "user",
    "methods": {},
    "version": 1
  }
}