{
  "contractName": "Insurance_Policy",
  "abi": [
    {
      "inputs": [
        {
          "internalType": "uint256",
          "name": "_payout",
          "type": "uint256"
        },
        {
          "internalType": "address payable",
          "name": "_beneficiary",
          "type": "address"
        },
        {
          "internalType": "uint256",
          "name": "_durationInDays",
          "type": "uint256"
        },
        {
          "internalType": "address",
          "name": "_factoryOwner",
          "type": "address"
        }
      ],
      "stateMutability": "nonpayable",
      "type": "constructor"
    },
    {
      "inputs": [],
      "name": "beneficiary",
      "outputs": [
        {
          "internalType": "address payable",
          "name": "",
          "type": "address"
        }
      ],
      "stateMutability": "view",
      "type": "function",
      "constant": true
    },
    {
      "inputs": [],
      "name": "claimed",
      "outputs": [
        {
          "internalType": "bool",
          "name": "",
          "type": "bool"
        }
      ],
      "stateMutability": "view",
      "type": "function",
      "constant": true
    },
    {
      "inputs": [],
      "name": "expirationTime",
      "outputs": [
        {
          "internalType": "uint256",
          "name": "",
          "type": "uint256"
        }
      ],
      "stateMutability": "view",
      "type": "function",
      "constant": true
    },
    {
      "inputs": [],
      "name": "extensions",
      "outputs": [
        {
          "internalType": "uint8",
          "name": "",
          "type": "uint8"
        }
      ],
      "stateMutability": "view",
      "type": "function",
      "constant": true
    },
    {
      "inputs": [],
      "name": "factoryOwner",
      "outputs": [
        {
          "internalType": "address",
          "name": "",
          "type": "address"
        }
      ],
      "stateMutability": "view",
      "type": "function",
      "constant": true
    },
    {
      "inputs": [],
      "name": "owner",
      "outputs": [
        {
          "internalType": "address",
          "name": "",
          "type": "address"
        }
      ],
      "stateMutability": "view",
      "type": "function",
      "constant": true
    },
    {
      "inputs": [],
      "name": "payout_amount",
      "outputs": [
        {
          "internalType": "uint256",
          "name": "",
          "type": "uint256"
        }
      ],
      "stateMutability": "view",
      "type": "function",
      "constant": true
    },
    {
      "inputs": [],
      "name": "recieveClaim",
      "outputs": [
        {
          "internalType": "uint256",
          "name": "",
          "type": "uint256"
        }
      ],
      "stateMutability": "payable",
      "type": "function",
      "payable": true
    },
    {
      "inputs": [],
      "name": "setClaimed",
      "outputs": [],
      "stateMutability": "nonpayable",
      "type": "function"
    },
    {
      "inputs": [
        {
          "internalType": "uint256",
          "name": "extentionInDays",
          "type": "uint256"
        }
      ],
      "name": "extendDuration",
      "outputs": [],
      "stateMutability": "nonpayable",
      "type": "function"
    }
  ],
  "bytecode": "0x60806040526000600560006101000a81548160ff0219169083151502179055506000600560016101000a81548160ff021916908360ff1602179055503480156200004857600080fd5b5060405162000e2338038062000e2383398181016040528101906200006e9190620002b4565b7fffffffffffffffffffffffffffffffffffffffffffffffffffffffffffffffff8210620000d3576040517f08c379a0000000000000000000000000000000000000000000000000000000008152600401620000ca9062000387565b60405180910390fd5b80600160006101000a81548173ffffffffffffffffffffffffffffffffffffffff021916908373ffffffffffffffffffffffffffffffffffffffff160217905550326000806101000a81548173ffffffffffffffffffffffffffffffffffffffff021916908373ffffffffffffffffffffffffffffffffffffffff16021790555082600260006101000a81548173ffffffffffffffffffffffffffffffffffffffff021916908373ffffffffffffffffffffffffffffffffffffffff160217905550836003819055506201518082620001ad9190620003d8565b42620001ba919062000439565b6004819055505050505062000496565b600080fd5b6000819050919050565b620001e481620001cf565b8114620001f057600080fd5b50565b6000815190506200020481620001d9565b92915050565b600073ffffffffffffffffffffffffffffffffffffffff82169050919050565b600062000237826200020a565b9050919050565b62000249816200022a565b81146200025557600080fd5b50565b60008151905062000269816200023e565b92915050565b60006200027c826200020a565b9050919050565b6200028e816200026f565b81146200029a57600080fd5b50565b600081519050620002ae8162000283565b92915050565b60008060008060808587031215620002d157620002d0620001ca565b5b6000620002e187828801620001f3565b9450506020620002f48782880162000258565b93505060406200030787828801620001f3565b92505060606200031a878288016200029d565b91505092959194509250565b600082825260208201905092915050565b7f4475726174696f6e20746f6f206c6f6e67000000000000000000000000000000600082015250565b60006200036f60118362000326565b91506200037c8262000337565b602082019050919050565b60006020820190508181036000830152620003a28162000360565b9050919050565b7f4e487b7100000000000000000000000000000000000000000000000000000000600052601160045260246000fd5b6000620003e582620001cf565b9150620003f283620001cf565b9250817fffffffffffffffffffffffffffffffffffffffffffffffffffffffffffffffff04831182151516156200042e576200042d620003a9565b5b828202905092915050565b60006200044682620001cf565b91506200045383620001cf565b9250827fffffffffffffffffffffffffffffffffffffffffffffffffffffffffffffffff038211156200048b576200048a620003a9565b5b828201905092915050565b61097d80620004a66000396000f3fe6080604052600436106100915760003560e01c80638da5cb5b116100595780638da5cb5b1461016b578063bf79b6b514610196578063da284dcc146101b4578063e834a834146101df578063f74f32e01461020a57610091565b80631d46c04a1461009657806324f159c2146100c157806338af3eed146100ec5780634273601c146101175780638746656f14610142575b600080fd5b3480156100a257600080fd5b506100ab610221565b6040516100b89190610607565b60405180910390f35b3480156100cd57600080fd5b506100d6610227565b6040516100e3919061063e565b60405180910390f35b3480156100f857600080fd5b5061010161023a565b60405161010e919061069a565b60405180910390f35b34801561012357600080fd5b5061012c610260565b60405161013991906106d6565b60405180910390f35b34801561014e57600080fd5b5061016960048036038101906101649190610722565b610286565b005b34801561017757600080fd5b5061018061048e565b60405161018d91906106d6565b60405180910390f35b61019e6104b2565b6040516101ab9190610607565b60405180910390f35b3480156101c057600080fd5b506101c96105b8565b6040516101d69190610607565b60405180910390f35b3480156101eb57600080fd5b506101f46105be565b604051610201919061076a565b60405180910390f35b34801561021657600080fd5b5061021f6105d1565b005b60035481565b600560019054906101000a900460ff1681565b600260009054906101000a900473ffffffffffffffffffffffffffffffffffffffff1681565b600160009054906101000a900473ffffffffffffffffffffffffffffffffffffffff1681565b7fffffffffffffffffffffffffffffffffffffffffffffffffffffffffffffffff81106102e8576040517f08c379a00000000000000000000000000000000000000000000000000000000081526004016102df906107e2565b60405180910390fd5b6004544210156103ab5760008054906101000a900473ffffffffffffffffffffffffffffffffffffffff1673ffffffffffffffffffffffffffffffffffffffff163373ffffffffffffffffffffffffffffffffffffffff1614806103995750600160009054906101000a900473ffffffffffffffffffffffffffffffffffffffff1673ffffffffffffffffffffffffffffffffffffffff163373ffffffffffffffffffffffffffffffffffffffff16145b6103a6576103a5610802565b5b61040a565b600160009054906101000a900473ffffffffffffffffffffffffffffffffffffffff1673ffffffffffffffffffffffffffffffffffffffff163373ffffffffffffffffffffffffffffffffffffffff161461040957610408610802565b5b5b6003600560019054906101000a900460ff1660ff161061042d5761042c610802565b5b620151808161043c9190610860565b6004600082825461044d91906108ba565b925050819055506001600560018282829054906101000a900460ff166104739190610910565b92506101000a81548160ff021916908360ff16021790555050565b60008054906101000a900473ffffffffffffffffffffffffffffffffffffffff1681565b60008060009054906101000a900473ffffffffffffffffffffffffffffffffffffffff1673ffffffffffffffffffffffffffffffffffffffff163273ffffffffffffffffffffffffffffffffffffffff161461051157610510610802565b5b600454421061052357610522610802565b5b60001515600560009054906101000a900460ff1615151461054757610546610802565b5b600260009054906101000a900473ffffffffffffffffffffffffffffffffffffffff1673ffffffffffffffffffffffffffffffffffffffff166108fc6003549081150290604051600060405180830381858888f193505050501580156105b1573d6000803e3d6000fd5b5034905090565b60045481565b600560009054906101000a900460ff1681565b6001600560006101000a81548160ff021916908315150217905550565b6000819050919050565b610601816105ee565b82525050565b600060208201905061061c60008301846105f8565b92915050565b600060ff82169050919050565b61063881610622565b82525050565b6000602082019050610653600083018461062f565b92915050565b600073ffffffffffffffffffffffffffffffffffffffff82169050919050565b600061068482610659565b9050919050565b61069481610679565b82525050565b60006020820190506106af600083018461068b565b92915050565b60006106c082610659565b9050919050565b6106d0816106b5565b82525050565b60006020820190506106eb60008301846106c7565b92915050565b600080fd5b6106ff816105ee565b811461070a57600080fd5b50565b60008135905061071c816106f6565b92915050565b600060208284031215610738576107376106f1565b5b60006107468482850161070d565b91505092915050565b60008115159050919050565b6107648161074f565b82525050565b600060208201905061077f600083018461075b565b92915050565b600082825260208201905092915050565b7f4475726174696f6e20746f6f206c6f6e67000000000000000000000000000000600082015250565b60006107cc601183610785565b91506107d782610796565b602082019050919050565b600060208201905081810360008301526107fb816107bf565b9050919050565b7f4e487b7100000000000000000000000000000000000000000000000000000000600052600160045260246000fd5b7f4e487b7100000000000000000000000000000000000000000000000000000000600052601160045260246000fd5b600061086b826105ee565b9150610876836105ee565b9250817fffffffffffffffffffffffffffffffffffffffffffffffffffffffffffffffff04831182151516156108af576108ae610831565b5b828202905092915050565b60006108c5826105ee565b91506108d0836105ee565b9250827fffffffffffffffffffffffffffffffffffffffffffffffffffffffffffffffff0382111561090557610904610831565b5b828201905092915050565b600061091b82610622565b915061092683610622565b92508260ff0382111561093c5761093b610831565b5b82820190509291505056fea2646970667358221220ac705b4155c5fa4d6e837319ec6eb14a79f3a998c4c8ae340ab11d14601c718664736f6c634300080d0033",
  "immutableReferences": {},
  "source": "/* This program is free software: you can redistribute it and/or modify\r\n * it under the terms of the GNU General Public License as published by\r\n * the Free Software Foundation, either version 3 of the License, or\r\n * (at your option) any later version.\r\n *\r\n * This program is distributed in the hope that it will be useful,\r\n * but WITHOUT ANY WARRANTY; without even the implied warranty of\r\n * MERCHANTABILITY or FITNESS FOR A PARTICULAR PURPOSE.  See the\r\n * GNU General Public License for more details.\r\n *\r\n * You should have received a copy of the GNU General Public License\r\n * along with this program.  If not, see <https://www.gnu.org/licenses/>.\r\n */\r\n \r\npragma solidity ^0.8.0;\r\n\r\ncontract Insurance_Policy {\r\n\r\n    //Contract Owner\r\n    address public owner;\r\n\r\n    //Factory Owner\r\n    address public factoryOwner;\r\n\r\n    //Beneficiary\r\n    address payable public beneficiary;\r\n\r\n    //Amt to payout on claim\r\n    uint public payout_amount;\r\n\r\n    // The time at which the policy expires\r\n    uint public expirationTime;\r\n\r\n    // Claimed bool\r\n    bool public claimed = false;\r\n\r\n    // Duration extended bool\r\n    uint8 public extensions = 0;\r\n\r\n    constructor(uint _payout, address payable _beneficiary, uint _durationInDays, address _factoryOwner){\r\n        require(_durationInDays < 2**256 - 1, \"Duration too long\");\r\n        factoryOwner = _factoryOwner;\r\n        owner = address(tx.origin);\r\n        //owner is vendor who initiates policy creation\r\n        //msg.sender = factory contract\r\n\r\n        beneficiary = payable(_beneficiary);\r\n        payout_amount = _payout;\r\n        expirationTime = block.timestamp + (_durationInDays * 1 days);\r\n    }\r\n\r\n    // CURRENTLY UNUSED -- Claim paid directly to beneficiary from factory\r\n    function recieveClaim() public payable returns(uint) {\r\n        // require(tx.origin == owner, \"Must be the vendor who created the policy to issue claim\");\r\n        // require(block.timestamp < expirationTime, \"Contract Expired\");\r\n        // require(claimed == false, \"Policy can not be claimed twice\");\r\n        assert(tx.origin == owner);\r\n        assert(block.timestamp < expirationTime);\r\n        assert(claimed == false);\r\n        \r\n        //!FIX?\r\n        //TWO DEPOSITS THAT CUMULATIVELY SUM TO PAYOUT_AMOUNT \r\n        //WILL NOT FILL CONDITION\r\n        // if(address(this).balance >= payout_amount){\r\n        beneficiary.transfer(payout_amount);\r\n        // }\r\n        \r\n        return(msg.value);\r\n    }\r\n\r\n\r\n    function setClaimed() public {\r\n        claimed = true;\r\n    }\r\n\r\n    function extendDuration(uint extentionInDays) public {\r\n        require(extentionInDays < 2**256 - 1, \"Duration too long\");\r\n        \r\n        //Restricted to factoryOwner calls if expired\r\n        if(block.timestamp < expirationTime){\r\n            assert(msg.sender == owner || msg.sender == factoryOwner);\r\n        } else {\r\n            assert(msg.sender == factoryOwner);\r\n        }\r\n        \r\n        //3 extensions allowed\r\n        assert(extensions < 3);\r\n\r\n\r\n        expirationTime += (extentionInDays * 1 days);\r\n        extensions += 1;\r\n    }\r\n\r\n\r\n}",
  "sourcePath": "C:\\Users\\littl\\projects\\sc_insurance\\contracts\\insurance_policy.sol",
  "compiler": {
    "name": "solc",
    "version": "0.8.13+commit.abaa5c0e.Emscripten.clang"
  },
  "schemaVersion": "3.4.13",
  "updatedAt": "2023-05-04T06:41:28.705Z",
  "networkType": "ethereum",
  "devdoc": {
    "kind": "dev",
    "methods": {},
    "version": 1
  },
  "userdoc": {
    "kind": "user",
    "methods": {},
    "version": 1
  }
}