{
  "contractName": "Insurance_Policy",
  "abi": [
    {
      "inputs": [
        {
          "internalType": "address",
          "name": "_fundPool",
          "type": "address"
        },
        {
          "internalType": "address",
          "name": "_beneficiary",
          "type": "address"
        },
        {
          "internalType": "uint256",
          "name": "_payout",
          "type": "uint256"
        },
        {
          "internalType": "uint256",
          "name": "_durationInDays",
          "type": "uint256"
        }
      ],
      "stateMutability": "nonpayable",
      "type": "constructor"
    },
    {
      "inputs": [],
      "name": "beneficiary",
      "outputs": [
        {
          "internalType": "address payable",
          "name": "",
          "type": "address"
        }
      ],
      "stateMutability": "view",
      "type": "function"
    },
    {
      "inputs": [],
      "name": "claimed",
      "outputs": [
        {
          "internalType": "bool",
          "name": "",
          "type": "bool"
        }
      ],
      "stateMutability": "view",
      "type": "function"
    },
    {
      "inputs": [],
      "name": "expirationTime",
      "outputs": [
        {
          "internalType": "uint256",
          "name": "",
          "type": "uint256"
        }
      ],
      "stateMutability": "view",
      "type": "function"
    },
    {
      "inputs": [],
      "name": "owner",
      "outputs": [
        {
          "internalType": "address",
          "name": "",
          "type": "address"
        }
      ],
      "stateMutability": "view",
      "type": "function"
    },
    {
      "inputs": [],
      "name": "payout_amount",
      "outputs": [
        {
          "internalType": "uint256",
          "name": "",
          "type": "uint256"
        }
      ],
      "stateMutability": "view",
      "type": "function"
    },
    {
      "inputs": [],
      "name": "payout",
      "outputs": [],
      "stateMutability": "nonpayable",
      "type": "function"
    },
    {
      "inputs": [],
      "name": "getPayoutBalance",
      "outputs": [
        {
          "internalType": "uint256",
          "name": "",
          "type": "uint256"
        }
      ],
      "stateMutability": "view",
      "type": "function"
    }
  ],
  "bytecode": "0x60806040526000600560006101000a81548160ff02191690831515021790555034801561002b57600080fd5b506040516108b03803806108b0833981810160405281019061004d91906101d8565b336000806101000a81548173ffffffffffffffffffffffffffffffffffffffff021916908373ffffffffffffffffffffffffffffffffffffffff16021790555083600160006101000a81548173ffffffffffffffffffffffffffffffffffffffff021916908373ffffffffffffffffffffffffffffffffffffffff16021790555082600260006101000a81548173ffffffffffffffffffffffffffffffffffffffff021916908373ffffffffffffffffffffffffffffffffffffffff160217905550816003819055506201518081610125919061026e565b4261013091906102c8565b6004819055505050505061031e565b600080fd5b600073ffffffffffffffffffffffffffffffffffffffff82169050919050565b600061016f82610144565b9050919050565b61017f81610164565b811461018a57600080fd5b50565b60008151905061019c81610176565b92915050565b6000819050919050565b6101b5816101a2565b81146101c057600080fd5b50565b6000815190506101d2816101ac565b92915050565b600080600080608085870312156101f2576101f161013f565b5b60006102008782880161018d565b94505060206102118782880161018d565b9350506040610222878288016101c3565b9250506060610233878288016101c3565b91505092959194509250565b7f4e487b7100000000000000000000000000000000000000000000000000000000600052601160045260246000fd5b6000610279826101a2565b9150610284836101a2565b9250817fffffffffffffffffffffffffffffffffffffffffffffffffffffffffffffffff04831182151516156102bd576102bc61023f565b5b828202905092915050565b60006102d3826101a2565b91506102de836101a2565b9250827fffffffffffffffffffffffffffffffffffffffffffffffffffffffffffffffff038211156103135761031261023f565b5b828201905092915050565b6105838061032d6000396000f3fe608060405234801561001057600080fd5b506004361061007d5760003560e01c806363bd1d4a1161005b57806363bd1d4a146100dc5780638da5cb5b146100e6578063da284dcc14610104578063e834a834146101225761007d565b806309153bf8146100825780631d46c04a146100a057806338af3eed146100be575b600080fd5b61008a610140565b604051610097919061030f565b60405180910390f35b6100a8610148565b6040516100b5919061030f565b60405180910390f35b6100c661014e565b6040516100d3919061036b565b60405180910390f35b6100e4610174565b005b6100ee6102b9565b6040516100fb91906103a7565b60405180910390f35b61010c6102dd565b604051610119919061030f565b60405180910390f35b61012a6102e3565b60405161013791906103dd565b60405180910390f35b600047905090565b60035481565b600260009054906101000a900473ffffffffffffffffffffffffffffffffffffffff1681565b60008054906101000a900473ffffffffffffffffffffffffffffffffffffffff1673ffffffffffffffffffffffffffffffffffffffff163373ffffffffffffffffffffffffffffffffffffffff1614610202576040517f08c379a00000000000000000000000000000000000000000000000000000000081526004016101f990610455565b60405180910390fd5b6004544210610246576040517f08c379a000000000000000000000000000000000000000000000000000000000815260040161023d906104c1565b60405180910390fd5b60001515600560009054906101000a900460ff1615151461029c576040517f08c379a00000000000000000000000000000000000000000000000000000000081526004016102939061052d565b60405180910390fd5b6001600560006101000a81548160ff021916908315150217905550565b60008054906101000a900473ffffffffffffffffffffffffffffffffffffffff1681565b60045481565b600560009054906101000a900460ff1681565b6000819050919050565b610309816102f6565b82525050565b60006020820190506103246000830184610300565b92915050565b600073ffffffffffffffffffffffffffffffffffffffff82169050919050565b60006103558261032a565b9050919050565b6103658161034a565b82525050565b6000602082019050610380600083018461035c565b92915050565b60006103918261032a565b9050919050565b6103a181610386565b82525050565b60006020820190506103bc6000830184610398565b92915050565b60008115159050919050565b6103d7816103c2565b82525050565b60006020820190506103f260008301846103ce565b92915050565b600082825260208201905092915050565b7f4e6f74207065726d697373696f6e656400000000000000000000000000000000600082015250565b600061043f6010836103f8565b915061044a82610409565b602082019050919050565b6000602082019050818103600083015261046e81610432565b9050919050565b7f436f6e7461637420657870697265640000000000000000000000000000000000600082015250565b60006104ab600f836103f8565b91506104b682610475565b602082019050919050565b600060208201905081810360008301526104da8161049e565b9050919050565b7f436f6e74726163742068617320616c72656164792070616964206f7574000000600082015250565b6000610517601d836103f8565b9150610522826104e1565b602082019050919050565b600060208201905081810360008301526105468161050a565b905091905056fea264697066735822122008165ec5254f0fc740701bb5d601f444dc532e2aabd4880a00559fa4d97cf40b64736f6c634300080d0033",
  "immutableReferences": {},
  "source": "/* This program is free software: you can redistribute it and/or modify\r\n * it under the terms of the GNU General Public License as published by\r\n * the Free Software Foundation, either version 3 of the License, or\r\n * (at your option) any later version.\r\n *\r\n * This program is distributed in the hope that it will be useful,\r\n * but WITHOUT ANY WARRANTY; without even the implied warranty of\r\n * MERCHANTABILITY or FITNESS FOR A PARTICULAR PURPOSE.  See the\r\n * GNU General Public License for more details.\r\n *\r\n * You should have received a copy of the GNU General Public License\r\n * along with this program.  If not, see <https://www.gnu.org/licenses/>.\r\n */\r\n \r\npragma solidity ^0.8.0;\r\n\r\ncontract Insurance_Policy {\r\n\r\n    //Contract Owner\r\n    address public owner;\r\n\r\n    //Funds Pool Address\r\n    address fundPool;\r\n\r\n    //Beneficiary\r\n    address payable public beneficiary;\r\n\r\n    //Amt to payout on claim\r\n    uint public payout_amount;\r\n\r\n    // The time at which the policy expires\r\n    uint public expirationTime;\r\n\r\n    // Claimed bool\r\n    bool public claimed = false;\r\n\r\n    constructor(address _fundPool, address _beneficiary, uint _payout, uint _durationInDays){\r\n        owner = address(msg.sender);\r\n        fundPool = _fundPool;\r\n        beneficiary = payable(_beneficiary);\r\n        payout_amount = _payout;\r\n        expirationTime = block.timestamp + (_durationInDays * 1 days);\r\n    }\r\n\r\n    function payout() public {\r\n        require(msg.sender == owner, \"Not permissioned\");\r\n        require(block.timestamp < expirationTime, \"Contact expired\");\r\n        require(claimed == false, \"Contract has already paid out\");\r\n\r\n        claimed = true;\r\n\r\n        //TODO: Deposit money into contract\r\n\r\n        //TODO: Allow beneficiary to access money\r\n    }\r\n\r\n    function getPayoutBalance() public view returns (uint){\r\n        return(address(this).balance);\r\n    }\r\n}",
  "sourcePath": "C:\\Users\\littl\\projects\\sc_insurance\\contracts\\insurance_policy.sol",
  "compiler": {
    "name": "solc",
    "version": "0.8.13+commit.abaa5c0e.Emscripten.clang"
  },
  "schemaVersion": "3.4.13",
  "updatedAt": "2023-05-02T20:14:54.166Z",
  "networkType": "ethereum",
  "devdoc": {
    "kind": "dev",
    "methods": {},
    "version": 1
  },
  "userdoc": {
    "kind": "user",
    "methods": {},
    "version": 1
  }
}