{
  "contractName": "Insurance_Factory",
  "abi": [
    {
      "inputs": [
        {
          "internalType": "address[]",
          "name": "_allowedCreators",
          "type": "address[]"
        }
      ],
      "stateMutability": "nonpayable",
      "type": "constructor"
    },
    {
      "inputs": [
        {
          "internalType": "address",
          "name": "",
          "type": "address"
        },
        {
          "internalType": "uint256",
          "name": "",
          "type": "uint256"
        }
      ],
      "name": "allowedCreatorsMap",
      "outputs": [
        {
          "internalType": "contract Insurance_Policy",
          "name": "",
          "type": "address"
        }
      ],
      "stateMutability": "view",
      "type": "function",
      "constant": true
    }
  ],
  "bytecode": "0x608060405234801561001057600080fd5b506040516106bf3803806106bf83398181016040528101906100329190610380565b60005b815181101561010757600067ffffffffffffffff811115610059576100586101df565b5b6040519080825280602002602001820160405280156100875781602001602082028036833780820191505090505b5060008084848151811061009e5761009d6103c9565b5b602002602001015173ffffffffffffffffffffffffffffffffffffffff1673ffffffffffffffffffffffffffffffffffffffff16815260200190815260200160002090805190602001906100f392919061010e565b5080806100ff90610431565b915050610035565b5050610479565b828054828255906000526020600020908101928215610187579160200282015b828111156101865782518260006101000a81548173ffffffffffffffffffffffffffffffffffffffff021916908373ffffffffffffffffffffffffffffffffffffffff1602179055509160200191906001019061012e565b5b5090506101949190610198565b5090565b5b808211156101b1576000816000905550600101610199565b5090565b6000604051905090565b600080fd5b600080fd5b600080fd5b6000601f19601f8301169050919050565b7f4e487b7100000000000000000000000000000000000000000000000000000000600052604160045260246000fd5b610217826101ce565b810181811067ffffffffffffffff82111715610236576102356101df565b5b80604052505050565b60006102496101b5565b9050610255828261020e565b919050565b600067ffffffffffffffff821115610275576102746101df565b5b602082029050602081019050919050565b600080fd5b600073ffffffffffffffffffffffffffffffffffffffff82169050919050565b60006102b68261028b565b9050919050565b6102c6816102ab565b81146102d157600080fd5b50565b6000815190506102e3816102bd565b92915050565b60006102fc6102f78461025a565b61023f565b9050808382526020820190506020840283018581111561031f5761031e610286565b5b835b81811015610348578061033488826102d4565b845260208401935050602081019050610321565b5050509392505050565b600082601f830112610367576103666101c9565b5b81516103778482602086016102e9565b91505092915050565b600060208284031215610396576103956101bf565b5b600082015167ffffffffffffffff8111156103b4576103b36101c4565b5b6103c084828501610352565b91505092915050565b7f4e487b7100000000000000000000000000000000000000000000000000000000600052603260045260246000fd5b7f4e487b7100000000000000000000000000000000000000000000000000000000600052601160045260246000fd5b6000819050919050565b600061043c82610427565b91507fffffffffffffffffffffffffffffffffffffffffffffffffffffffffffffffff820361046e5761046d6103f8565b5b600182019050919050565b610237806104886000396000f3fe608060405234801561001057600080fd5b506004361061002b5760003560e01c80635e51c16114610030575b600080fd5b61004a60048036038101906100459190610147565b610060565b60405161005791906101e6565b60405180910390f35b6000602052816000526040600020818154811061007c57600080fd5b906000526020600020016000915091509054906101000a900473ffffffffffffffffffffffffffffffffffffffff1681565b600080fd5b600073ffffffffffffffffffffffffffffffffffffffff82169050919050565b60006100de826100b3565b9050919050565b6100ee816100d3565b81146100f957600080fd5b50565b60008135905061010b816100e5565b92915050565b6000819050919050565b61012481610111565b811461012f57600080fd5b50565b6000813590506101418161011b565b92915050565b6000806040838503121561015e5761015d6100ae565b5b600061016c858286016100fc565b925050602061017d85828601610132565b9150509250929050565b6000819050919050565b60006101ac6101a76101a2846100b3565b610187565b6100b3565b9050919050565b60006101be82610191565b9050919050565b60006101d0826101b3565b9050919050565b6101e0816101c5565b82525050565b60006020820190506101fb60008301846101d7565b9291505056fea2646970667358221220da7d94eef8f14c8f1846732b773d8d38b892a29410b987a8bc86494d91c916f364736f6c634300080d0033",
  "immutableReferences": {},
  "source": "/* This program is free software: you can redistribute it and/or modify\r\n * it under the terms of the GNU General Public License as published by\r\n * the Free Software Foundation, either version 3 of the License, or\r\n * (at your option) any later version.\r\n *\r\n * This program is distributed in the hope that it will be useful,\r\n * but WITHOUT ANY WARRANTY; without even the implied warranty of\r\n * MERCHANTABILITY or FITNESS FOR A PARTICULAR PURPOSE.  See the\r\n * GNU General Public License for more details.\r\n *\r\n * You should have received a copy of the GNU General Public License\r\n * along with this program.  If not, see <https://www.gnu.org/licenses/>.\r\n */\r\npragma solidity ^0.8.0;\r\n\r\nimport \"./insurance_policy.sol\";\r\n\r\ncontract Insurance_Factory {\r\n    \r\n    mapping (address => Insurance_Policy[]) public allowedCreatorsMap;\r\n\r\n    constructor(address[] memory _allowedCreators) {\r\n        for (uint i = 0; i < _allowedCreators.length; i++) {\r\n            allowedCreatorsMap[_allowedCreators[i]] = new Insurance_Policy[](0);\r\n        }\r\n        // mapping (address => insurance_policy[]) allowedCreators;\r\n        \r\n        // allowedCreators = _allowedCreators;\r\n    }\r\n}",
  "sourcePath": "C:\\Users\\littl\\projects\\sc_insurance\\contracts\\insurance_factory.sol",
  "compiler": {
    "name": "solc",
    "version": "0.8.13+commit.abaa5c0e.Emscripten.clang"
  },
  "schemaVersion": "3.4.13",
  "updatedAt": "2023-05-02T01:57:26.954Z",
  "networkType": "ethereum",
  "devdoc": {
    "kind": "dev",
    "methods": {},
    "version": 1
  },
  "userdoc": {
    "kind": "user",
    "methods": {},
    "version": 1
  }
}