{
  "contractName": "Insurance_Factory",
  "abi": [
    {
      "inputs": [
        {
          "internalType": "address[]",
          "name": "_allowedCreators",
          "type": "address[]"
        }
      ],
      "stateMutability": "nonpayable",
      "type": "constructor"
    },
    {
      "inputs": [],
      "name": "owner",
      "outputs": [
        {
          "internalType": "address",
          "name": "",
          "type": "address"
        }
      ],
      "stateMutability": "view",
      "type": "function",
      "constant": true
    },
    {
      "inputs": [],
      "name": "getPoolBalance",
      "outputs": [
        {
          "internalType": "uint256",
          "name": "",
          "type": "uint256"
        }
      ],
      "stateMutability": "view",
      "type": "function",
      "constant": true
    },
    {
      "inputs": [],
      "name": "poolDeposit",
      "outputs": [
        {
          "internalType": "uint256",
          "name": "",
          "type": "uint256"
        }
      ],
      "stateMutability": "payable",
      "type": "function",
      "payable": true
    },
    {
      "inputs": [
        {
          "internalType": "address",
          "name": "creator",
          "type": "address"
        }
      ],
      "name": "getVendorPolicies",
      "outputs": [
        {
          "internalType": "contract Insurance_Policy[]",
          "name": "",
          "type": "address[]"
        }
      ],
      "stateMutability": "view",
      "type": "function",
      "constant": true
    },
    {
      "inputs": [],
      "name": "getVendors",
      "outputs": [
        {
          "internalType": "address[]",
          "name": "",
          "type": "address[]"
        }
      ],
      "stateMutability": "view",
      "type": "function",
      "constant": true
    },
    {
      "inputs": [
        {
          "internalType": "address",
          "name": "creator",
          "type": "address"
        }
      ],
      "name": "addVendor",
      "outputs": [],
      "stateMutability": "nonpayable",
      "type": "function"
    },
    {
      "inputs": [
        {
          "internalType": "address",
          "name": "creator",
          "type": "address"
        }
      ],
      "name": "removeVendor",
      "outputs": [],
      "stateMutability": "nonpayable",
      "type": "function"
    },
    {
      "inputs": [
        {
          "internalType": "address payable",
          "name": "claimAddr",
          "type": "address"
        }
      ],
      "name": "payClaim",
      "outputs": [],
      "stateMutability": "nonpayable",
      "type": "function"
    },
    {
      "inputs": [
        {
          "internalType": "uint256",
          "name": "_payoutAmt",
          "type": "uint256"
        },
        {
          "internalType": "address payable",
          "name": "_beneficiary",
          "type": "address"
        }
      ],
      "name": "createPolicy",
      "outputs": [
        {
          "internalType": "address",
          "name": "",
          "type": "address"
        }
      ],
      "stateMutability": "nonpayable",
      "type": "function"
    }
  ],
  "bytecode": "0x60806040523480156200001157600080fd5b50604051620025c6380380620025c68339818101604052810190620000379190620004f3565b336000806101000a81548173ffffffffffffffffffffffffffffffffffffffff021916908373ffffffffffffffffffffffffffffffffffffffff16021790555060005b81518110156200024f5760018282815181106200009c576200009b62000544565b5b60200260200101519080600181540180825580915050600190039060005260206000200160009091909190916101000a81548173ffffffffffffffffffffffffffffffffffffffff021916908373ffffffffffffffffffffffffffffffffffffffff16021790555060016002600084848151811062000120576200011f62000544565b5b602002602001015173ffffffffffffffffffffffffffffffffffffffff1673ffffffffffffffffffffffffffffffffffffffff16815260200190815260200160002060006101000a81548160ff021916908315150217905550600067ffffffffffffffff8111156200019757620001966200032f565b5b604051908082528060200260200182016040528015620001c65781602001602082028036833780820191505090505b5060036000848481518110620001e157620001e062000544565b5b602002602001015173ffffffffffffffffffffffffffffffffffffffff1673ffffffffffffffffffffffffffffffffffffffff16815260200190815260200160002090805190602001906200023892919062000257565b5080806200024690620005ac565b9150506200007a565b5050620005f9565b828054828255906000526020600020908101928215620002d3579160200282015b82811115620002d25782518260006101000a81548173ffffffffffffffffffffffffffffffffffffffff021916908373ffffffffffffffffffffffffffffffffffffffff1602179055509160200191906001019062000278565b5b509050620002e29190620002e6565b5090565b5b8082111562000301576000816000905550600101620002e7565b5090565b6000604051905090565b600080fd5b600080fd5b600080fd5b6000601f19601f8301169050919050565b7f4e487b7100000000000000000000000000000000000000000000000000000000600052604160045260246000fd5b62000369826200031e565b810181811067ffffffffffffffff821117156200038b576200038a6200032f565b5b80604052505050565b6000620003a062000305565b9050620003ae82826200035e565b919050565b600067ffffffffffffffff821115620003d157620003d06200032f565b5b602082029050602081019050919050565b600080fd5b600073ffffffffffffffffffffffffffffffffffffffff82169050919050565b60006200041482620003e7565b9050919050565b620004268162000407565b81146200043257600080fd5b50565b60008151905062000446816200041b565b92915050565b6000620004636200045d84620003b3565b62000394565b90508083825260208201905060208402830185811115620004895762000488620003e2565b5b835b81811015620004b65780620004a1888262000435565b8452602084019350506020810190506200048b565b5050509392505050565b600082601f830112620004d857620004d762000319565b5b8151620004ea8482602086016200044c565b91505092915050565b6000602082840312156200050c576200050b6200030f565b5b600082015167ffffffffffffffff8111156200052d576200052c62000314565b5b6200053b84828501620004c0565b91505092915050565b7f4e487b7100000000000000000000000000000000000000000000000000000000600052603260045260246000fd5b7f4e487b7100000000000000000000000000000000000000000000000000000000600052601160045260246000fd5b6000819050919050565b6000620005b982620005a2565b91507fffffffffffffffffffffffffffffffffffffffffffffffffffffffffffffffff8203620005ee57620005ed62000573565b5b600182019050919050565b611fbd80620006096000396000f3fe608060405260043610620000925760003560e01c806345e0f753116200006157806345e0f753146200016f57806354b622c9146200019d57806364bebcc514620001cb5780638da5cb5b14620001fb578063abd70aa2146200022b5762000092565b806317d2d0fc1462000097578063243a0c9a14620000b957806328644e1914620000fd57806336b9418a1462000141575b600080fd5b620000a16200025b565b604051620000b0919062000ef1565b60405180910390f35b348015620000c657600080fd5b50620000e56004803603810190620000df919062000f78565b62000263565b604051620000f49190620010d2565b60405180910390f35b3480156200010a57600080fd5b506200012960048036038101906200012391906200116c565b620003c3565b604051620001389190620011c4565b60405180910390f35b3480156200014e57600080fd5b506200016d6004803603810190620001679190620011e1565b6200059e565b005b3480156200017c57600080fd5b506200019b600480360381019062000195919062000f78565b62000891565b005b348015620001aa57600080fd5b50620001c96004803603810190620001c3919062000f78565b62000a83565b005b348015620001d857600080fd5b50620001e362000d3b565b604051620001f29190620012d0565b60405180910390f35b3480156200020857600080fd5b506200021362000dcb565b604051620002229190620011c4565b60405180910390f35b3480156200023857600080fd5b506200024362000def565b60405162000252919062000ef1565b60405180910390f35b600034905090565b606060008054906101000a900473ffffffffffffffffffffffffffffffffffffffff1673ffffffffffffffffffffffffffffffffffffffff163373ffffffffffffffffffffffffffffffffffffffff1614620002f6576040517f08c379a0000000000000000000000000000000000000000000000000000000008152600401620002ed906200137b565b60405180910390fd5b600360008373ffffffffffffffffffffffffffffffffffffffff1673ffffffffffffffffffffffffffffffffffffffff168152602001908152602001600020805480602002602001604051908101604052809291908181526020018280548015620003b757602002820191906000526020600020905b8160009054906101000a900473ffffffffffffffffffffffffffffffffffffffff1673ffffffffffffffffffffffffffffffffffffffff16815260200190600101908083116200036c575b50505050509050919050565b600060011515600260003373ffffffffffffffffffffffffffffffffffffffff1673ffffffffffffffffffffffffffffffffffffffff16815260200190815260200160002060009054906101000a900460ff161515148062000470575060008054906101000a900473ffffffffffffffffffffffffffffffffffffffff1673ffffffffffffffffffffffffffffffffffffffff163373ffffffffffffffffffffffffffffffffffffffff16145b620004b2576040517f08c379a0000000000000000000000000000000000000000000000000000000008152600401620004a990620013ed565b60405180910390fd5b60008383601f604051620004c69062000df7565b620004d49392919062001463565b604051809103906000f080158015620004f1573d6000803e3d6000fd5b509050600360003373ffffffffffffffffffffffffffffffffffffffff1673ffffffffffffffffffffffffffffffffffffffff168152602001908152602001600020819080600181540180825580915050600190039060005260206000200160009091909190916101000a81548173ffffffffffffffffffffffffffffffffffffffff021916908373ffffffffffffffffffffffffffffffffffffffff1602179055508091505092915050565b60008173ffffffffffffffffffffffffffffffffffffffff16631d46c04a6040518163ffffffff1660e01b8152600401602060405180830381865afa158015620005ec573d6000803e3d6000fd5b505050506040513d601f19601f82011682018060405250810190620006129190620014b7565b905060008273ffffffffffffffffffffffffffffffffffffffff1663e834a8346040518163ffffffff1660e01b8152600401602060405180830381865afa15801562000662573d6000803e3d6000fd5b505050506040513d601f19601f8201168201806040525081019062000688919062001526565b905060008373ffffffffffffffffffffffffffffffffffffffff16638da5cb5b6040518163ffffffff1660e01b8152600401602060405180830381865afa158015620006d8573d6000803e3d6000fd5b505050506040513d601f19601f82011682018060405250810190620006fe91906200156f565b905060008473ffffffffffffffffffffffffffffffffffffffff166338af3eed6040518163ffffffff1660e01b8152600401602060405180830381865afa1580156200074e573d6000803e3d6000fd5b505050506040513d601f19601f82011682018060405250810190620007749190620015b8565b90503373ffffffffffffffffffffffffffffffffffffffff168273ffffffffffffffffffffffffffffffffffffffff1614620007b557620007b4620015ea565b5b834711620007c857620007c7620015ea565b5b6000151583151514620007e057620007df620015ea565b5b8073ffffffffffffffffffffffffffffffffffffffff166108fc859081150290604051600060405180830381858888f1935050505015801562000827573d6000803e3d6000fd5b508473ffffffffffffffffffffffffffffffffffffffff1663f74f32e06040518163ffffffff1660e01b8152600401600060405180830381600087803b1580156200087157600080fd5b505af115801562000886573d6000803e3d6000fd5b505050505050505050565b60008054906101000a900473ffffffffffffffffffffffffffffffffffffffff1673ffffffffffffffffffffffffffffffffffffffff163373ffffffffffffffffffffffffffffffffffffffff161462000922576040517f08c379a000000000000000000000000000000000000000000000000000000000815260040162000919906200137b565b60405180910390fd5b6001819080600181540180825580915050600190039060005260206000200160009091909190916101000a81548173ffffffffffffffffffffffffffffffffffffffff021916908373ffffffffffffffffffffffffffffffffffffffff1602179055506001600260008373ffffffffffffffffffffffffffffffffffffffff1673ffffffffffffffffffffffffffffffffffffffff16815260200190815260200160002060006101000a81548160ff021916908315150217905550600067ffffffffffffffff811115620009fb57620009fa62001619565b5b60405190808252806020026020018201604052801562000a2a5781602001602082028036833780820191505090505b50600360008373ffffffffffffffffffffffffffffffffffffffff1673ffffffffffffffffffffffffffffffffffffffff168152602001908152602001600020908051906020019062000a7f92919062000e05565b5050565b60008054906101000a900473ffffffffffffffffffffffffffffffffffffffff1673ffffffffffffffffffffffffffffffffffffffff163373ffffffffffffffffffffffffffffffffffffffff161462000b14576040517f08c379a000000000000000000000000000000000000000000000000000000000815260040162000b0b906200137b565b60405180910390fd5b6000600260008373ffffffffffffffffffffffffffffffffffffffff1673ffffffffffffffffffffffffffffffffffffffff16815260200190815260200160002060006101000a81548160ff021916908315150217905550600360008273ffffffffffffffffffffffffffffffffffffffff1673ffffffffffffffffffffffffffffffffffffffff168152602001908152602001600020600062000bb9919062000e94565b60005b60018054905081101562000ced578173ffffffffffffffffffffffffffffffffffffffff166001828154811062000bf85762000bf762001648565b5b9060005260206000200160009054906101000a900473ffffffffffffffffffffffffffffffffffffffff1673ffffffffffffffffffffffffffffffffffffffff160362000cd757600180808054905062000c539190620016a6565b8154811062000c675762000c6662001648565b5b9060005260206000200160009054906101000a900473ffffffffffffffffffffffffffffffffffffffff1673ffffffffffffffffffffffffffffffffffffffff166001828154811062000cbf5762000cbe62001648565b5b9060005260206000200160009054906101000a905050505b808062000ce490620016e1565b91505062000bbc565b50600180548062000d035762000d026200172e565b5b6001900381819060005260206000200160006101000a81549073ffffffffffffffffffffffffffffffffffffffff0219169055905550565b6060600180548060200260200160405190810160405280929190818152602001828054801562000dc157602002820191906000526020600020905b8160009054906101000a900473ffffffffffffffffffffffffffffffffffffffff1673ffffffffffffffffffffffffffffffffffffffff168152602001906001019080831162000d76575b5050505050905090565b60008054906101000a900473ffffffffffffffffffffffffffffffffffffffff1681565b600047905090565b61082a806200175e83390190565b82805482825590600052602060002090810192821562000e81579160200282015b8281111562000e805782518260006101000a81548173ffffffffffffffffffffffffffffffffffffffff021916908373ffffffffffffffffffffffffffffffffffffffff1602179055509160200191906001019062000e26565b5b50905062000e90919062000eb7565b5090565b508054600082559060005260206000209081019062000eb4919062000eb7565b50565b5b8082111562000ed257600081600090555060010162000eb8565b5090565b6000819050919050565b62000eeb8162000ed6565b82525050565b600060208201905062000f08600083018462000ee0565b92915050565b600080fd5b600073ffffffffffffffffffffffffffffffffffffffff82169050919050565b600062000f408262000f13565b9050919050565b62000f528162000f33565b811462000f5e57600080fd5b50565b60008135905062000f728162000f47565b92915050565b60006020828403121562000f915762000f9062000f0e565b5b600062000fa18482850162000f61565b91505092915050565b600081519050919050565b600082825260208201905092915050565b6000819050602082019050919050565b6000819050919050565b60006200100162000ffb62000ff58462000f13565b62000fd6565b62000f13565b9050919050565b6000620010158262000fe0565b9050919050565b6000620010298262001008565b9050919050565b6200103b816200101c565b82525050565b60006200104f838362001030565b60208301905092915050565b6000602082019050919050565b6000620010758262000faa565b62001081818562000fb5565b93506200108e8362000fc6565b8060005b83811015620010c5578151620010a9888262001041565b9750620010b6836200105b565b92505060018101905062001092565b5085935050505092915050565b60006020820190508181036000830152620010ee818462001068565b905092915050565b620011018162000ed6565b81146200110d57600080fd5b50565b6000813590506200112181620010f6565b92915050565b6000620011348262000f13565b9050919050565b620011468162001127565b81146200115257600080fd5b50565b60008135905062001166816200113b565b92915050565b6000806040838503121562001186576200118562000f0e565b5b6000620011968582860162001110565b9250506020620011a98582860162001155565b9150509250929050565b620011be8162000f33565b82525050565b6000602082019050620011db6000830184620011b3565b92915050565b600060208284031215620011fa57620011f962000f0e565b5b60006200120a8482850162001155565b91505092915050565b600081519050919050565b6000819050602082019050919050565b620012398162000f33565b82525050565b60006200124d83836200122e565b60208301905092915050565b6000602082019050919050565b6000620012738262001213565b6200127f818562000fb5565b93506200128c836200121e565b8060005b83811015620012c3578151620012a788826200123f565b9750620012b48362001259565b92505060018101905062001290565b5085935050505092915050565b60006020820190508181036000830152620012ec818462001266565b905092915050565b600082825260208201905092915050565b7f546869732066756e6374696f6e206d6179206f6e6c792062652063616c6c656460008201527f20627920746865206f776e657273000000000000000000000000000000000000602082015250565b600062001363602e83620012f4565b9150620013708262001305565b604082019050919050565b60006020820190508181036000830152620013968162001354565b9050919050565b7f4e6f742061207065726d697373696f6e2056656e646f72206f72206f776e6572600082015250565b6000620013d5602083620012f4565b9150620013e2826200139d565b602082019050919050565b600060208201905081810360008301526200140881620013c6565b9050919050565b6200141a8162001127565b82525050565b6000819050919050565b60006200144b620014456200143f8462001420565b62000fd6565b62000ed6565b9050919050565b6200145d816200142a565b82525050565b60006060820190506200147a600083018662000ee0565b6200148960208301856200140f565b62001498604083018462001452565b949350505050565b600081519050620014b181620010f6565b92915050565b600060208284031215620014d057620014cf62000f0e565b5b6000620014e084828501620014a0565b91505092915050565b60008115159050919050565b6200150081620014e9565b81146200150c57600080fd5b50565b6000815190506200152081620014f5565b92915050565b6000602082840312156200153f576200153e62000f0e565b5b60006200154f848285016200150f565b91505092915050565b600081519050620015698162000f47565b92915050565b60006020828403121562001588576200158762000f0e565b5b6000620015988482850162001558565b91505092915050565b600081519050620015b2816200113b565b92915050565b600060208284031215620015d157620015d062000f0e565b5b6000620015e184828501620015a1565b91505092915050565b7f4e487b7100000000000000000000000000000000000000000000000000000000600052600160045260246000fd5b7f4e487b7100000000000000000000000000000000000000000000000000000000600052604160045260246000fd5b7f4e487b7100000000000000000000000000000000000000000000000000000000600052603260045260246000fd5b7f4e487b7100000000000000000000000000000000000000000000000000000000600052601160045260246000fd5b6000620016b38262000ed6565b9150620016c08362000ed6565b925082821015620016d657620016d562001677565b5b828203905092915050565b6000620016ee8262000ed6565b91507fffffffffffffffffffffffffffffffffffffffffffffffffffffffffffffffff820362001723576200172262001677565b5b600182019050919050565b7f4e487b7100000000000000000000000000000000000000000000000000000000600052603160045260246000fdfe60806040526000600560006101000a81548160ff02191690831515021790555034801561002b57600080fd5b5060405161082a38038061082a833981810160405281019061004d91906101f8565b7fffffffffffffffffffffffffffffffffffffffffffffffffffffffffffffffff81106100af576040517f08c379a00000000000000000000000000000000000000000000000000000000081526004016100a6906102a8565b60405180910390fd5b326000806101000a81548173ffffffffffffffffffffffffffffffffffffffff021916908373ffffffffffffffffffffffffffffffffffffffff16021790555081600260006101000a81548173ffffffffffffffffffffffffffffffffffffffff021916908373ffffffffffffffffffffffffffffffffffffffff16021790555082600381905550620151808161014691906102f7565b426101519190610351565b6004819055505050506103a7565b600080fd5b6000819050919050565b61017781610164565b811461018257600080fd5b50565b6000815190506101948161016e565b92915050565b600073ffffffffffffffffffffffffffffffffffffffff82169050919050565b60006101c58261019a565b9050919050565b6101d5816101ba565b81146101e057600080fd5b50565b6000815190506101f2816101cc565b92915050565b6000806000606084860312156102115761021061015f565b5b600061021f86828701610185565b9350506020610230868287016101e3565b925050604061024186828701610185565b9150509250925092565b600082825260208201905092915050565b7f4475726174696f6e20746f6f206c6f6e67000000000000000000000000000000600082015250565b600061029260118361024b565b915061029d8261025c565b602082019050919050565b600060208201905081810360008301526102c181610285565b9050919050565b7f4e487b7100000000000000000000000000000000000000000000000000000000600052601160045260246000fd5b600061030282610164565b915061030d83610164565b9250817fffffffffffffffffffffffffffffffffffffffffffffffffffffffffffffffff0483118215151615610346576103456102c8565b5b828202905092915050565b600061035c82610164565b915061036783610164565b9250827fffffffffffffffffffffffffffffffffffffffffffffffffffffffffffffffff0382111561039c5761039b6102c8565b5b828201905092915050565b610474806103b66000396000f3fe6080604052600436106100705760003560e01c8063bf79b6b51161004e578063bf79b6b5146100f6578063da284dcc14610114578063e834a8341461013f578063f74f32e01461016a57610070565b80631d46c04a1461007557806338af3eed146100a05780638da5cb5b146100cb575b600080fd5b34801561008157600080fd5b5061008a610181565b6040516100979190610326565b60405180910390f35b3480156100ac57600080fd5b506100b5610187565b6040516100c29190610382565b60405180910390f35b3480156100d757600080fd5b506100e06101ad565b6040516100ed91906103be565b60405180910390f35b6100fe6101d1565b60405161010b9190610326565b60405180910390f35b34801561012057600080fd5b506101296102d7565b6040516101369190610326565b60405180910390f35b34801561014b57600080fd5b506101546102dd565b60405161016191906103f4565b60405180910390f35b34801561017657600080fd5b5061017f6102f0565b005b60035481565b600260009054906101000a900473ffffffffffffffffffffffffffffffffffffffff1681565b60008054906101000a900473ffffffffffffffffffffffffffffffffffffffff1681565b60008060009054906101000a900473ffffffffffffffffffffffffffffffffffffffff1673ffffffffffffffffffffffffffffffffffffffff163273ffffffffffffffffffffffffffffffffffffffff16146102305761022f61040f565b5b60045442106102425761024161040f565b5b60001515600560009054906101000a900460ff161515146102665761026561040f565b5b600260009054906101000a900473ffffffffffffffffffffffffffffffffffffffff1673ffffffffffffffffffffffffffffffffffffffff166108fc6003549081150290604051600060405180830381858888f193505050501580156102d0573d6000803e3d6000fd5b5034905090565b60045481565b600560009054906101000a900460ff1681565b6001600560006101000a81548160ff021916908315150217905550565b6000819050919050565b6103208161030d565b82525050565b600060208201905061033b6000830184610317565b92915050565b600073ffffffffffffffffffffffffffffffffffffffff82169050919050565b600061036c82610341565b9050919050565b61037c81610361565b82525050565b60006020820190506103976000830184610373565b92915050565b60006103a882610341565b9050919050565b6103b88161039d565b82525050565b60006020820190506103d360008301846103af565b92915050565b60008115159050919050565b6103ee816103d9565b82525050565b600060208201905061040960008301846103e5565b92915050565b7f4e487b7100000000000000000000000000000000000000000000000000000000600052600160045260246000fdfea2646970667358221220761dec696a123860f573712398cd33f7397d51aa0c99170858a18e36f1a9351f64736f6c634300080d0033a2646970667358221220ff5ad3bbea495054a051a7369bbb9424ca00630c515957be4b3e8e8711db0ed064736f6c634300080d0033",
  "immutableReferences": {},
  "source": "/* This program is free software: you can redistribute it and/or modify\r\n * it under the terms of the GNU General Public License as published by\r\n * the Free Software Foundation, either version 3 of the License, or\r\n * (at your option) any later version.\r\n *\r\n * This program is distributed in the hope that it will be useful,\r\n * but WITHOUT ANY WARRANTY; without even the implied warranty of\r\n * MERCHANTABILITY or FITNESS FOR A PARTICULAR PURPOSE.  See the\r\n * GNU General Public License for more details.\r\n *\r\n * You should have received a copy of the GNU General Public License\r\n * along with this program.  If not, see <https://www.gnu.org/licenses/>.\r\n */\r\n\r\n\r\nimport \"./insurance_policy.sol\";\r\npragma solidity ^0.8.0;\r\n\r\n\r\ncontract Insurance_Factory {\r\n\r\n    address public owner;\r\n    \r\n    address[] allowedCreatorsList;\r\n    mapping (address => bool) allowedCreators;\r\n    mapping (address => Insurance_Policy[]) CreatorsPolicyMap;\r\n\r\n    constructor(address[] memory _allowedCreators) {\r\n        owner = msg.sender;\r\n        //Initalize Allowed Creator Structures\r\n        for (uint i = 0; i < _allowedCreators.length; i++) {\r\n\r\n            //add address to key list\r\n            allowedCreatorsList.push(_allowedCreators[i]);\r\n\r\n            // add address to key mapping\r\n            allowedCreators[_allowedCreators[i]] = true;\r\n\r\n            // add key to creator claims map\r\n            CreatorsPolicyMap[_allowedCreators[i]] = new Insurance_Policy[](0);\r\n        }\r\n    }\r\n\r\n    //MODIFIERS\r\n\r\n    modifier onlyOwner(){\r\n        // factory owner only\r\n        require(msg.sender == owner,\r\n        \"This function may only be called by the owners\");\r\n        _;\r\n    }\r\n\r\n    modifier checkVendor() {\r\n        // approved vendor or factory owner\r\n        require(allowedCreators[msg.sender] == true || msg.sender == owner, \r\n        \"Not a permission Vendor or owner\");\r\n        _;\r\n    }\r\n\r\n    //FUNCTIONS\r\n\r\n    //Funds Pool Interaction Functions\r\n    function getPoolBalance() public view returns (uint){\r\n        return(address(this).balance);\r\n    }\r\n\r\n    function poolDeposit() payable public returns(uint256) {\r\n        return(msg.value);\r\n    }\r\n    \r\n    //Vendor Interaction Functions\r\n    function getVendorPolicies(address creator) onlyOwner public view returns(Insurance_Policy[] memory) {\r\n        return(CreatorsPolicyMap[creator]);\r\n    } \r\n\r\n    function getVendors() public view returns (address[] memory) {\r\n        return allowedCreatorsList;\r\n    }\r\n\r\n    function addVendor(address creator) onlyOwner public {\r\n        allowedCreatorsList.push(creator);\r\n        allowedCreators[creator] = true;\r\n        CreatorsPolicyMap[creator] = new Insurance_Policy[](0);\r\n    }\r\n\r\n    //TODO: HANDLE OPEN POLICIES OF REMOVED CREATORS\r\n    function removeVendor(address creator) onlyOwner public {\r\n        allowedCreators[creator] = false;\r\n        delete CreatorsPolicyMap[creator];\r\n\r\n        for (uint i = 0; i < allowedCreatorsList.length; i++) {\r\n            if (allowedCreatorsList[i] == creator) {\r\n                allowedCreatorsList[i] == allowedCreatorsList[allowedCreatorsList.length - 1];\r\n            }\r\n        }\r\n        allowedCreatorsList.pop();\r\n    }\r\n\r\n    //PAY CLAIM\r\n    function payClaim(address payable claimAddr) public {\r\n        \r\n\r\n        uint claimAmt = Insurance_Policy(claimAddr).payout_amount();\r\n        bool claimPaid = Insurance_Policy(claimAddr).claimed();\r\n        address policyOriginator = Insurance_Policy(claimAddr).owner();\r\n        address payable beneficiary = Insurance_Policy(claimAddr).beneficiary();\r\n        \r\n        assert(policyOriginator == msg.sender);\r\n        assert(address(this).balance > claimAmt);\r\n        assert(claimPaid == false);\r\n\r\n        // Insurance_Policy(claimAddr).recieveClaim{value:claimAmt}();\r\n        // Insurance_Policy(claimAddr).setClaimed();\r\n        //!? Send to beneficiary instead of policy contract? \r\n        beneficiary.transfer(claimAmt);\r\n        Insurance_Policy(claimAddr).setClaimed();\r\n    }\r\n\r\n    //CREATE POLICY\r\n    function createPolicy(uint _payoutAmt, address payable _beneficiary) checkVendor public returns(address) {\r\n        Insurance_Policy newPolicy = new Insurance_Policy(\r\n            _payoutAmt,\r\n            _beneficiary,\r\n            31);\r\n        CreatorsPolicyMap[msg.sender].push(newPolicy);\r\n        return(address(newPolicy));\r\n    }\r\n\r\n\r\n    \r\n}",
  "sourcePath": "C:\\Users\\littl\\projects\\sc_insurance\\contracts\\insurance_factory.sol",
  "compiler": {
    "name": "solc",
    "version": "0.8.13+commit.abaa5c0e.Emscripten.clang"
  },
  "schemaVersion": "3.4.13",
  "updatedAt": "2023-05-04T02:30:31.614Z",
  "networkType": "ethereum",
  "devdoc": {
    "kind": "dev",
    "methods": {},
    "version": 1
  },
  "userdoc": {
    "kind": "user",
    "methods": {},
    "version": 1
  }
}