{
  "contractName": "Insurance_Factory",
  "abi": [
    {
      "inputs": [
        {
          "internalType": "address[]",
          "name": "_allowedCreators",
          "type": "address[]"
        }
      ],
      "stateMutability": "nonpayable",
      "type": "constructor"
    },
    {
      "inputs": [],
      "name": "owner",
      "outputs": [
        {
          "internalType": "address",
          "name": "",
          "type": "address"
        }
      ],
      "stateMutability": "view",
      "type": "function",
      "constant": true
    },
    {
      "inputs": [],
      "name": "getPoolBalance",
      "outputs": [
        {
          "internalType": "uint256",
          "name": "",
          "type": "uint256"
        }
      ],
      "stateMutability": "view",
      "type": "function",
      "constant": true
    },
    {
      "inputs": [],
      "name": "poolDeposit",
      "outputs": [
        {
          "internalType": "uint256",
          "name": "",
          "type": "uint256"
        }
      ],
      "stateMutability": "payable",
      "type": "function",
      "payable": true
    },
    {
      "inputs": [
        {
          "internalType": "uint256",
          "name": "amount",
          "type": "uint256"
        }
      ],
      "name": "poolWithdraw",
      "outputs": [],
      "stateMutability": "nonpayable",
      "type": "function"
    },
    {
      "inputs": [
        {
          "internalType": "address",
          "name": "creator",
          "type": "address"
        }
      ],
      "name": "getVendorPolicies",
      "outputs": [
        {
          "internalType": "contract Insurance_Policy[]",
          "name": "",
          "type": "address[]"
        }
      ],
      "stateMutability": "view",
      "type": "function",
      "constant": true
    },
    {
      "inputs": [],
      "name": "getVendors",
      "outputs": [
        {
          "internalType": "address[]",
          "name": "",
          "type": "address[]"
        }
      ],
      "stateMutability": "view",
      "type": "function",
      "constant": true
    },
    {
      "inputs": [
        {
          "internalType": "address",
          "name": "creator",
          "type": "address"
        }
      ],
      "name": "addVendor",
      "outputs": [],
      "stateMutability": "nonpayable",
      "type": "function"
    },
    {
      "inputs": [
        {
          "internalType": "address",
          "name": "_beneficiary",
          "type": "address"
        }
      ],
      "name": "createPolicy",
      "outputs": [
        {
          "internalType": "address",
          "name": "",
          "type": "address"
        }
      ],
      "stateMutability": "nonpayable",
      "type": "function"
    }
  ],
  "bytecode": "0x608060405260006001553480156200001657600080fd5b5060405162001fce38038062001fce83398181016040528101906200003c9190620004f8565b60005b81518110156200025457336000806101000a81548173ffffffffffffffffffffffffffffffffffffffff021916908373ffffffffffffffffffffffffffffffffffffffff1602179055506002828281518110620000a157620000a062000549565b5b60200260200101519080600181540180825580915050600190039060005260206000200160009091909190916101000a81548173ffffffffffffffffffffffffffffffffffffffff021916908373ffffffffffffffffffffffffffffffffffffffff16021790555060016003600084848151811062000125576200012462000549565b5b602002602001015173ffffffffffffffffffffffffffffffffffffffff1673ffffffffffffffffffffffffffffffffffffffff16815260200190815260200160002060006101000a81548160ff021916908315150217905550600067ffffffffffffffff8111156200019c576200019b62000334565b5b604051908082528060200260200182016040528015620001cb5781602001602082028036833780820191505090505b5060046000848481518110620001e657620001e562000549565b5b602002602001015173ffffffffffffffffffffffffffffffffffffffff1673ffffffffffffffffffffffffffffffffffffffff16815260200190815260200160002090805190602001906200023d9291906200025c565b5080806200024b90620005b1565b9150506200003f565b5050620005fe565b828054828255906000526020600020908101928215620002d8579160200282015b82811115620002d75782518260006101000a81548173ffffffffffffffffffffffffffffffffffffffff021916908373ffffffffffffffffffffffffffffffffffffffff160217905550916020019190600101906200027d565b5b509050620002e79190620002eb565b5090565b5b8082111562000306576000816000905550600101620002ec565b5090565b6000604051905090565b600080fd5b600080fd5b600080fd5b6000601f19601f8301169050919050565b7f4e487b7100000000000000000000000000000000000000000000000000000000600052604160045260246000fd5b6200036e8262000323565b810181811067ffffffffffffffff8211171562000390576200038f62000334565b5b80604052505050565b6000620003a56200030a565b9050620003b3828262000363565b919050565b600067ffffffffffffffff821115620003d657620003d562000334565b5b602082029050602081019050919050565b600080fd5b600073ffffffffffffffffffffffffffffffffffffffff82169050919050565b60006200041982620003ec565b9050919050565b6200042b816200040c565b81146200043757600080fd5b50565b6000815190506200044b8162000420565b92915050565b6000620004686200046284620003b8565b62000399565b905080838252602082019050602084028301858111156200048e576200048d620003e7565b5b835b81811015620004bb5780620004a688826200043a565b84526020840193505060208101905062000490565b5050509392505050565b600082601f830112620004dd57620004dc6200031e565b5b8151620004ef84826020860162000451565b91505092915050565b60006020828403121562000511576200051062000314565b5b600082015167ffffffffffffffff81111562000532576200053162000319565b5b6200054084828501620004c5565b91505092915050565b7f4e487b7100000000000000000000000000000000000000000000000000000000600052603260045260246000fd5b7f4e487b7100000000000000000000000000000000000000000000000000000000600052601160045260246000fd5b6000819050919050565b6000620005be82620005a7565b91507fffffffffffffffffffffffffffffffffffffffffffffffffffffffffffffffff8203620005f357620005f262000578565b5b600182019050919050565b6119c0806200060e6000396000f3fe608060405260043610620000865760003560e01c806364bebcc5116200005557806364bebcc5146200014d5780638da5cb5b146200017d578063abd70aa214620001ad578063b6eef60214620001dd5762000086565b806317d2d0fc146200008b578063243a0c9a14620000ad5780633dc66ad314620000f157806345e0f753146200011f575b600080fd5b6200009562000221565b604051620000a4919062000a0d565b60405180910390f35b348015620000ba57600080fd5b50620000d96004803603810190620000d3919062000a94565b62000244565b604051620000e8919062000bee565b60405180910390f35b348015620000fe57600080fd5b506200011d600480360381019062000117919062000c43565b62000313565b005b3480156200012c57600080fd5b506200014b600480360381019062000145919062000a94565b620004ab565b005b3480156200015a57600080fd5b50620001656200069d565b60405162000174919062000d32565b60405180910390f35b3480156200018a57600080fd5b50620001956200072d565b604051620001a4919062000d67565b60405180910390f35b348015620001ba57600080fd5b50620001c562000751565b604051620001d4919062000a0d565b60405180910390f35b348015620001ea57600080fd5b5062000209600480360381019062000203919062000a94565b62000759565b60405162000218919062000d67565b60405180910390f35b6000346001600082825462000237919062000db3565b9250508190555034905090565b6060600460008373ffffffffffffffffffffffffffffffffffffffff1673ffffffffffffffffffffffffffffffffffffffff1681526020019081526020016000208054806020026020016040519081016040528092919081815260200182805480156200030757602002820191906000526020600020905b8160009054906101000a900473ffffffffffffffffffffffffffffffffffffffff1673ffffffffffffffffffffffffffffffffffffffff1681526020019060010190808311620002bc575b50505050509050919050565b60011515600360003373ffffffffffffffffffffffffffffffffffffffff1673ffffffffffffffffffffffffffffffffffffffff16815260200190815260200160002060009054906101000a900460ff1615151480620003be575060008054906101000a900473ffffffffffffffffffffffffffffffffffffffff1673ffffffffffffffffffffffffffffffffffffffff163373ffffffffffffffffffffffffffffffffffffffff16145b62000400576040517f08c379a0000000000000000000000000000000000000000000000000000000008152600401620003f79062000e71565b60405180910390fd5b80471162000445576040517f08c379a00000000000000000000000000000000000000000000000000000000081526004016200043c9062000ee3565b60405180910390fd5b3373ffffffffffffffffffffffffffffffffffffffff166108fc829081150290604051600060405180830381858888f193505050501580156200048c573d6000803e3d6000fd5b508060016000828254620004a1919062000f05565b9250508190555050565b60008054906101000a900473ffffffffffffffffffffffffffffffffffffffff1673ffffffffffffffffffffffffffffffffffffffff163373ffffffffffffffffffffffffffffffffffffffff16146200053c576040517f08c379a0000000000000000000000000000000000000000000000000000000008152600401620005339062000fb6565b60405180910390fd5b6002819080600181540180825580915050600190039060005260206000200160009091909190916101000a81548173ffffffffffffffffffffffffffffffffffffffff021916908373ffffffffffffffffffffffffffffffffffffffff1602179055506001600360008373ffffffffffffffffffffffffffffffffffffffff1673ffffffffffffffffffffffffffffffffffffffff16815260200190815260200160002060006101000a81548160ff021916908315150217905550600067ffffffffffffffff81111562000615576200061462000fd8565b5b604051908082528060200260200182016040528015620006445781602001602082028036833780820191505090505b50600460008373ffffffffffffffffffffffffffffffffffffffff1673ffffffffffffffffffffffffffffffffffffffff16815260200190815260200160002090805190602001906200069992919062000936565b5050565b606060028054806020026020016040519081016040528092919081815260200182805480156200072357602002820191906000526020600020905b8160009054906101000a900473ffffffffffffffffffffffffffffffffffffffff1673ffffffffffffffffffffffffffffffffffffffff1681526020019060010190808311620006d8575b5050505050905090565b60008054906101000a900473ffffffffffffffffffffffffffffffffffffffff1681565b600047905090565b600060011515600360003373ffffffffffffffffffffffffffffffffffffffff1673ffffffffffffffffffffffffffffffffffffffff16815260200190815260200160002060009054906101000a900460ff161515148062000806575060008054906101000a900473ffffffffffffffffffffffffffffffffffffffff1673ffffffffffffffffffffffffffffffffffffffff163373ffffffffffffffffffffffffffffffffffffffff16145b62000848576040517f08c379a00000000000000000000000000000000000000000000000000000000081526004016200083f9062000e71565b60405180910390fd5b600030836001601f6040516200085e90620009c5565b6200086d94939291906200108d565b604051809103906000f0801580156200088a573d6000803e3d6000fd5b509050600460003373ffffffffffffffffffffffffffffffffffffffff1673ffffffffffffffffffffffffffffffffffffffff168152602001908152602001600020819080600181540180825580915050600190039060005260206000200160009091909190916101000a81548173ffffffffffffffffffffffffffffffffffffffff021916908373ffffffffffffffffffffffffffffffffffffffff16021790555080915050919050565b828054828255906000526020600020908101928215620009b2579160200282015b82811115620009b15782518260006101000a81548173ffffffffffffffffffffffffffffffffffffffff021916908373ffffffffffffffffffffffffffffffffffffffff1602179055509160200191906001019062000957565b5b509050620009c19190620009d3565b5090565b6108b080620010db83390190565b5b80821115620009ee576000816000905550600101620009d4565b5090565b6000819050919050565b62000a0781620009f2565b82525050565b600060208201905062000a246000830184620009fc565b92915050565b600080fd5b600073ffffffffffffffffffffffffffffffffffffffff82169050919050565b600062000a5c8262000a2f565b9050919050565b62000a6e8162000a4f565b811462000a7a57600080fd5b50565b60008135905062000a8e8162000a63565b92915050565b60006020828403121562000aad5762000aac62000a2a565b5b600062000abd8482850162000a7d565b91505092915050565b600081519050919050565b600082825260208201905092915050565b6000819050602082019050919050565b6000819050919050565b600062000b1d62000b1762000b118462000a2f565b62000af2565b62000a2f565b9050919050565b600062000b318262000afc565b9050919050565b600062000b458262000b24565b9050919050565b62000b578162000b38565b82525050565b600062000b6b838362000b4c565b60208301905092915050565b6000602082019050919050565b600062000b918262000ac6565b62000b9d818562000ad1565b935062000baa8362000ae2565b8060005b8381101562000be157815162000bc5888262000b5d565b975062000bd28362000b77565b92505060018101905062000bae565b5085935050505092915050565b6000602082019050818103600083015262000c0a818462000b84565b905092915050565b62000c1d81620009f2565b811462000c2957600080fd5b50565b60008135905062000c3d8162000c12565b92915050565b60006020828403121562000c5c5762000c5b62000a2a565b5b600062000c6c8482850162000c2c565b91505092915050565b600081519050919050565b6000819050602082019050919050565b62000c9b8162000a4f565b82525050565b600062000caf838362000c90565b60208301905092915050565b6000602082019050919050565b600062000cd58262000c75565b62000ce1818562000ad1565b935062000cee8362000c80565b8060005b8381101562000d2557815162000d09888262000ca1565b975062000d168362000cbb565b92505060018101905062000cf2565b5085935050505092915050565b6000602082019050818103600083015262000d4e818462000cc8565b905092915050565b62000d618162000a4f565b82525050565b600060208201905062000d7e600083018462000d56565b92915050565b7f4e487b7100000000000000000000000000000000000000000000000000000000600052601160045260246000fd5b600062000dc082620009f2565b915062000dcd83620009f2565b9250827fffffffffffffffffffffffffffffffffffffffffffffffffffffffffffffffff0382111562000e055762000e0462000d84565b5b828201905092915050565b600082825260208201905092915050565b7f4e6f742061207065726d697373696f6e2056656e646f72206f72206f776e6572600082015250565b600062000e5960208362000e10565b915062000e668262000e21565b602082019050919050565b6000602082019050818103600083015262000e8c8162000e4a565b9050919050565b7f4e6f7420656e6f75676820746f20636f76657220636c61696d00000000000000600082015250565b600062000ecb60198362000e10565b915062000ed88262000e93565b602082019050919050565b6000602082019050818103600083015262000efe8162000ebc565b9050919050565b600062000f1282620009f2565b915062000f1f83620009f2565b92508282101562000f355762000f3462000d84565b5b828203905092915050565b7f546869732066756e6374696f6e206d6179206f6e6c792062652063616c6c656460008201527f20627920746865206f776e657273000000000000000000000000000000000000602082015250565b600062000f9e602e8362000e10565b915062000fab8262000f40565b604082019050919050565b6000602082019050818103600083015262000fd18162000f8f565b9050919050565b7f4e487b7100000000000000000000000000000000000000000000000000000000600052604160045260246000fd5b6000819050919050565b6000620010326200102c620010268462001007565b62000af2565b620009f2565b9050919050565b620010448162001011565b82525050565b6000819050919050565b6000620010756200106f62001069846200104a565b62000af2565b620009f2565b9050919050565b620010878162001054565b82525050565b6000608082019050620010a4600083018762000d56565b620010b3602083018662000d56565b620010c2604083018562001039565b620010d160608301846200107c565b9594505050505056fe60806040526000600560006101000a81548160ff02191690831515021790555034801561002b57600080fd5b506040516108b03803806108b0833981810160405281019061004d91906101d8565b336000806101000a81548173ffffffffffffffffffffffffffffffffffffffff021916908373ffffffffffffffffffffffffffffffffffffffff16021790555083600160006101000a81548173ffffffffffffffffffffffffffffffffffffffff021916908373ffffffffffffffffffffffffffffffffffffffff16021790555082600260006101000a81548173ffffffffffffffffffffffffffffffffffffffff021916908373ffffffffffffffffffffffffffffffffffffffff160217905550816003819055506201518081610125919061026e565b4261013091906102c8565b6004819055505050505061031e565b600080fd5b600073ffffffffffffffffffffffffffffffffffffffff82169050919050565b600061016f82610144565b9050919050565b61017f81610164565b811461018a57600080fd5b50565b60008151905061019c81610176565b92915050565b6000819050919050565b6101b5816101a2565b81146101c057600080fd5b50565b6000815190506101d2816101ac565b92915050565b600080600080608085870312156101f2576101f161013f565b5b60006102008782880161018d565b94505060206102118782880161018d565b9350506040610222878288016101c3565b9250506060610233878288016101c3565b91505092959194509250565b7f4e487b7100000000000000000000000000000000000000000000000000000000600052601160045260246000fd5b6000610279826101a2565b9150610284836101a2565b9250817fffffffffffffffffffffffffffffffffffffffffffffffffffffffffffffffff04831182151516156102bd576102bc61023f565b5b828202905092915050565b60006102d3826101a2565b91506102de836101a2565b9250827fffffffffffffffffffffffffffffffffffffffffffffffffffffffffffffffff038211156103135761031261023f565b5b828201905092915050565b6105838061032d6000396000f3fe608060405234801561001057600080fd5b506004361061007d5760003560e01c806363bd1d4a1161005b57806363bd1d4a146100dc5780638da5cb5b146100e6578063da284dcc14610104578063e834a834146101225761007d565b806309153bf8146100825780631d46c04a146100a057806338af3eed146100be575b600080fd5b61008a610140565b604051610097919061030f565b60405180910390f35b6100a8610148565b6040516100b5919061030f565b60405180910390f35b6100c661014e565b6040516100d3919061036b565b60405180910390f35b6100e4610174565b005b6100ee6102b9565b6040516100fb91906103a7565b60405180910390f35b61010c6102dd565b604051610119919061030f565b60405180910390f35b61012a6102e3565b60405161013791906103dd565b60405180910390f35b600047905090565b60035481565b600260009054906101000a900473ffffffffffffffffffffffffffffffffffffffff1681565b60008054906101000a900473ffffffffffffffffffffffffffffffffffffffff1673ffffffffffffffffffffffffffffffffffffffff163373ffffffffffffffffffffffffffffffffffffffff1614610202576040517f08c379a00000000000000000000000000000000000000000000000000000000081526004016101f990610455565b60405180910390fd5b6004544210610246576040517f08c379a000000000000000000000000000000000000000000000000000000000815260040161023d906104c1565b60405180910390fd5b60001515600560009054906101000a900460ff1615151461029c576040517f08c379a00000000000000000000000000000000000000000000000000000000081526004016102939061052d565b60405180910390fd5b6001600560006101000a81548160ff021916908315150217905550565b60008054906101000a900473ffffffffffffffffffffffffffffffffffffffff1681565b60045481565b600560009054906101000a900460ff1681565b6000819050919050565b610309816102f6565b82525050565b60006020820190506103246000830184610300565b92915050565b600073ffffffffffffffffffffffffffffffffffffffff82169050919050565b60006103558261032a565b9050919050565b6103658161034a565b82525050565b6000602082019050610380600083018461035c565b92915050565b60006103918261032a565b9050919050565b6103a181610386565b82525050565b60006020820190506103bc6000830184610398565b92915050565b60008115159050919050565b6103d7816103c2565b82525050565b60006020820190506103f260008301846103ce565b92915050565b600082825260208201905092915050565b7f4e6f74207065726d697373696f6e656400000000000000000000000000000000600082015250565b600061043f6010836103f8565b915061044a82610409565b602082019050919050565b6000602082019050818103600083015261046e81610432565b9050919050565b7f436f6e7461637420657870697265640000000000000000000000000000000000600082015250565b60006104ab600f836103f8565b91506104b682610475565b602082019050919050565b600060208201905081810360008301526104da8161049e565b9050919050565b7f436f6e74726163742068617320616c72656164792070616964206f7574000000600082015250565b6000610517601d836103f8565b9150610522826104e1565b602082019050919050565b600060208201905081810360008301526105468161050a565b905091905056fea264697066735822122008165ec5254f0fc740701bb5d601f444dc532e2aabd4880a00559fa4d97cf40b64736f6c634300080d0033a264697066735822122001765a10eb5ebab9eb91bdf5b1f8f4ef2c17565f0b1ef538621790c77f3da9d364736f6c634300080d0033",
  "immutableReferences": {},
  "source": "/* This program is free software: you can redistribute it and/or modify\r\n * it under the terms of the GNU General Public License as published by\r\n * the Free Software Foundation, either version 3 of the License, or\r\n * (at your option) any later version.\r\n *\r\n * This program is distributed in the hope that it will be useful,\r\n * but WITHOUT ANY WARRANTY; without even the implied warranty of\r\n * MERCHANTABILITY or FITNESS FOR A PARTICULAR PURPOSE.  See the\r\n * GNU General Public License for more details.\r\n *\r\n * You should have received a copy of the GNU General Public License\r\n * along with this program.  If not, see <https://www.gnu.org/licenses/>.\r\n */\r\n\r\n\r\nimport \"./insurance_policy.sol\";\r\npragma solidity ^0.8.0;\r\n\r\n\r\ncontract Insurance_Factory {\r\n\r\n    address public owner;\r\n\r\n    uint poolBalance = 0;\r\n    \r\n    address[] allowedCreatorsList;\r\n    mapping (address => bool) allowedCreators;\r\n    mapping (address => Insurance_Policy[]) CreatorsPolicyMap;\r\n\r\n    constructor(address[] memory _allowedCreators) {\r\n        //Initalize Allowed Creator Structures\r\n        for (uint i = 0; i < _allowedCreators.length; i++) {\r\n            owner = msg.sender;\r\n\r\n            //add address to key list\r\n            allowedCreatorsList.push(_allowedCreators[i]);\r\n\r\n            // add address to key mapping\r\n            allowedCreators[_allowedCreators[i]] = true;\r\n\r\n            // add key to creator claims map\r\n            CreatorsPolicyMap[_allowedCreators[i]] = new Insurance_Policy[](0);\r\n        }\r\n    }\r\n\r\n    //MODIFIERS\r\n\r\n    modifier checkOwner(){\r\n        // factory owner only\r\n        require(msg.sender == owner,\r\n        \"This function may only be called by the owners\");\r\n        _;\r\n    }\r\n\r\n    modifier checkVendor() {\r\n        // approved vendor or factory owner\r\n        require(allowedCreators[msg.sender] == true || msg.sender == owner, \r\n        \"Not a permission Vendor or owner\");\r\n        _;\r\n    }\r\n\r\n    //FUNCTIONS\r\n\r\n    //Funds Pool Interaction Functions\r\n    function getPoolBalance() public view returns (uint){\r\n        return(address(this).balance);\r\n    }\r\n\r\n    function poolDeposit() payable public returns(uint256) {\r\n        poolBalance += msg.value;\r\n        return(msg.value);\r\n    }\r\n\r\n    function poolWithdraw(uint amount) checkVendor external {\r\n        require(address(this).balance > amount, \"Not enough to cover claim\");\r\n        payable(msg.sender).transfer(amount);\r\n        poolBalance -= amount;\r\n    }\r\n\r\n    \r\n    //Vendor Interaction Functions\r\n    function getVendorPolicies(address creator) public view returns(Insurance_Policy[] memory) {\r\n        return(CreatorsPolicyMap[creator]);\r\n    } \r\n\r\n    function getVendors() public view returns (address[] memory) {\r\n        return allowedCreatorsList;\r\n    }\r\n\r\n    function addVendor(address creator) checkOwner public {\r\n        allowedCreatorsList.push(creator);\r\n        allowedCreators[creator] = true;\r\n        CreatorsPolicyMap[creator] = new Insurance_Policy[](0);\r\n    }\r\n\r\n    //Create Policy\r\n    function createPolicy(address _beneficiary) checkVendor public returns(address) {\r\n        Insurance_Policy newPolicy = new Insurance_Policy(\r\n            address(this),\r\n            _beneficiary,\r\n            1, \r\n            31);\r\n        CreatorsPolicyMap[msg.sender].push(newPolicy);\r\n        return(address(newPolicy));\r\n    }\r\n\r\n\r\n    \r\n}",
  "sourcePath": "C:\\Users\\littl\\projects\\sc_insurance\\contracts\\insurance_factory.sol",
  "compiler": {
    "name": "solc",
    "version": "0.8.13+commit.abaa5c0e.Emscripten.clang"
  },
  "schemaVersion": "3.4.13",
  "updatedAt": "2023-05-02T20:14:54.172Z",
  "networkType": "ethereum",
  "devdoc": {
    "kind": "dev",
    "methods": {},
    "version": 1
  },
  "userdoc": {
    "kind": "user",
    "methods": {},
    "version": 1
  }
}