{
  "contractName": "Insurance_Policy",
  "abi": [
    {
      "inputs": [
        {
          "internalType": "uint256",
          "name": "_payout",
          "type": "uint256"
        },
        {
          "internalType": "uint256",
          "name": "_durationInDays",
          "type": "uint256"
        }
      ],
      "stateMutability": "nonpayable",
      "type": "constructor"
    },
    {
      "inputs": [],
      "name": "beneficiary",
      "outputs": [
        {
          "internalType": "address payable",
          "name": "",
          "type": "address"
        }
      ],
      "stateMutability": "view",
      "type": "function",
      "constant": true
    },
    {
      "inputs": [],
      "name": "claimed",
      "outputs": [
        {
          "internalType": "bool",
          "name": "",
          "type": "bool"
        }
      ],
      "stateMutability": "view",
      "type": "function",
      "constant": true
    },
    {
      "inputs": [],
      "name": "expirationTime",
      "outputs": [
        {
          "internalType": "uint256",
          "name": "",
          "type": "uint256"
        }
      ],
      "stateMutability": "view",
      "type": "function",
      "constant": true
    },
    {
      "inputs": [],
      "name": "owner",
      "outputs": [
        {
          "internalType": "address",
          "name": "",
          "type": "address"
        }
      ],
      "stateMutability": "view",
      "type": "function",
      "constant": true
    },
    {
      "inputs": [],
      "name": "payout_amount",
      "outputs": [
        {
          "internalType": "uint256",
          "name": "",
          "type": "uint256"
        }
      ],
      "stateMutability": "view",
      "type": "function",
      "constant": true
    },
    {
      "inputs": [],
      "name": "payout",
      "outputs": [],
      "stateMutability": "nonpayable",
      "type": "function"
    },
    {
      "inputs": [],
      "name": "recieveClaim",
      "outputs": [
        {
          "internalType": "uint256",
          "name": "",
          "type": "uint256"
        }
      ],
      "stateMutability": "payable",
      "type": "function",
      "payable": true
    },
    {
      "inputs": [],
      "name": "getPayoutBalance",
      "outputs": [
        {
          "internalType": "uint256",
          "name": "",
          "type": "uint256"
        }
      ],
      "stateMutability": "view",
      "type": "function",
      "constant": true
    }
  ],
  "bytecode": "0x60806040526000600560006101000a81548160ff0219169083151502179055503480156200002c57600080fd5b50604051620009333803806200093383398181016040528101906200005291906200016a565b7fffffffffffffffffffffffffffffffffffffffffffffffffffffffffffffffff8110620000b7576040517f08c379a0000000000000000000000000000000000000000000000000000000008152600401620000ae9062000212565b60405180910390fd5b326000806101000a81548173ffffffffffffffffffffffffffffffffffffffff021916908373ffffffffffffffffffffffffffffffffffffffff1602179055508160038190555062015180816200010f919062000263565b426200011c9190620002c4565b600481905550505062000321565b600080fd5b6000819050919050565b62000144816200012f565b81146200015057600080fd5b50565b600081519050620001648162000139565b92915050565b600080604083850312156200018457620001836200012a565b5b6000620001948582860162000153565b9250506020620001a78582860162000153565b9150509250929050565b600082825260208201905092915050565b7f4475726174696f6e20746f6f206c6f6e67000000000000000000000000000000600082015250565b6000620001fa601183620001b1565b91506200020782620001c2565b602082019050919050565b600060208201905081810360008301526200022d81620001eb565b9050919050565b7f4e487b7100000000000000000000000000000000000000000000000000000000600052601160045260246000fd5b600062000270826200012f565b91506200027d836200012f565b9250817fffffffffffffffffffffffffffffffffffffffffffffffffffffffffffffffff0483118215151615620002b957620002b862000234565b5b828202905092915050565b6000620002d1826200012f565b9150620002de836200012f565b9250827fffffffffffffffffffffffffffffffffffffffffffffffffffffffffffffffff0382111562000316576200031562000234565b5b828201905092915050565b61060280620003316000396000f3fe60806040526004361061007b5760003560e01c80638da5cb5b1161004e5780638da5cb5b14610118578063bf79b6b514610143578063da284dcc14610161578063e834a8341461018c5761007b565b806309153bf8146100805780631d46c04a146100ab57806338af3eed146100d657806363bd1d4a14610101575b600080fd5b34801561008c57600080fd5b506100956101b7565b6040516100a2919061038e565b60405180910390f35b3480156100b757600080fd5b506100c06101bf565b6040516100cd919061038e565b60405180910390f35b3480156100e257600080fd5b506100eb6101c5565b6040516100f891906103ea565b60405180910390f35b34801561010d57600080fd5b506101166101eb565b005b34801561012457600080fd5b5061012d610330565b60405161013a9190610426565b60405180910390f35b61014b610354565b604051610158919061038e565b60405180910390f35b34801561016d57600080fd5b5061017661035c565b604051610183919061038e565b60405180910390f35b34801561019857600080fd5b506101a1610362565b6040516101ae919061045c565b60405180910390f35b600047905090565b60035481565b600260009054906101000a900473ffffffffffffffffffffffffffffffffffffffff1681565b60008054906101000a900473ffffffffffffffffffffffffffffffffffffffff1673ffffffffffffffffffffffffffffffffffffffff163373ffffffffffffffffffffffffffffffffffffffff1614610279576040517f08c379a0000000000000000000000000000000000000000000000000000000008152600401610270906104d4565b60405180910390fd5b60045442106102bd576040517f08c379a00000000000000000000000000000000000000000000000000000000081526004016102b490610540565b60405180910390fd5b60001515600560009054906101000a900460ff16151514610313576040517f08c379a000000000000000000000000000000000000000000000000000000000815260040161030a906105ac565b60405180910390fd5b6001600560006101000a81548160ff021916908315150217905550565b60008054906101000a900473ffffffffffffffffffffffffffffffffffffffff1681565b600034905090565b60045481565b600560009054906101000a900460ff1681565b6000819050919050565b61038881610375565b82525050565b60006020820190506103a3600083018461037f565b92915050565b600073ffffffffffffffffffffffffffffffffffffffff82169050919050565b60006103d4826103a9565b9050919050565b6103e4816103c9565b82525050565b60006020820190506103ff60008301846103db565b92915050565b6000610410826103a9565b9050919050565b61042081610405565b82525050565b600060208201905061043b6000830184610417565b92915050565b60008115159050919050565b61045681610441565b82525050565b6000602082019050610471600083018461044d565b92915050565b600082825260208201905092915050565b7f4e6f74207065726d697373696f6e656400000000000000000000000000000000600082015250565b60006104be601083610477565b91506104c982610488565b602082019050919050565b600060208201905081810360008301526104ed816104b1565b9050919050565b7f436f6e7461637420657870697265640000000000000000000000000000000000600082015250565b600061052a600f83610477565b9150610535826104f4565b602082019050919050565b600060208201905081810360008301526105598161051d565b9050919050565b7f436f6e74726163742068617320616c72656164792070616964206f7574000000600082015250565b6000610596601d83610477565b91506105a182610560565b602082019050919050565b600060208201905081810360008301526105c581610589565b905091905056fea2646970667358221220326f5ebdf69687e3892069f0a9b465dbcda85bffdc68ffee8562b4f4916f4ed164736f6c634300080d0033",
  "immutableReferences": {},
  "source": "/* This program is free software: you can redistribute it and/or modify\r\n * it under the terms of the GNU General Public License as published by\r\n * the Free Software Foundation, either version 3 of the License, or\r\n * (at your option) any later version.\r\n *\r\n * This program is distributed in the hope that it will be useful,\r\n * but WITHOUT ANY WARRANTY; without even the implied warranty of\r\n * MERCHANTABILITY or FITNESS FOR A PARTICULAR PURPOSE.  See the\r\n * GNU General Public License for more details.\r\n *\r\n * You should have received a copy of the GNU General Public License\r\n * along with this program.  If not, see <https://www.gnu.org/licenses/>.\r\n */\r\n \r\npragma solidity ^0.8.0;\r\n\r\ncontract Insurance_Policy {\r\n\r\n    //Contract Owner\r\n    address public owner;\r\n\r\n    //Funds Pool Address\r\n    address fundPool;\r\n\r\n    //Beneficiary\r\n    address payable public beneficiary;\r\n\r\n    //Amt to payout on claim\r\n    uint public payout_amount;\r\n\r\n    // The time at which the policy expires\r\n    uint public expirationTime;\r\n\r\n    // Claimed bool\r\n    bool public claimed = false;\r\n\r\n    constructor(uint _payout, uint _durationInDays){\r\n        require(_durationInDays < 2**256 - 1, \"Duration too long\");\r\n\r\n        owner = address(tx.origin);\r\n        //owner is vendor who initiates policy creation\r\n        //msg.sender = factory contract\r\n\r\n        // beneficiary = payable(_beneficiary);\r\n        payout_amount = _payout;\r\n        expirationTime = block.timestamp + (_durationInDays * 1 days);\r\n    }\r\n\r\n    function payout() public {\r\n        require(msg.sender == owner, \"Not permissioned\");\r\n        require(block.timestamp < expirationTime, \"Contact expired\");\r\n        require(claimed == false, \"Contract has already paid out\");\r\n\r\n        claimed = true;\r\n\r\n        //TODO: Deposit money into contract\r\n\r\n        //TODO: Allow beneficiary to access money\r\n    }\r\n\r\n    function recieveClaim() public payable returns(uint) {\r\n        return(msg.value);\r\n    }\r\n\r\n    function getPayoutBalance() public view returns (uint){\r\n        return(address(this).balance);\r\n    }\r\n}",
  "sourcePath": "C:\\Users\\littl\\projects\\sc_insurance\\contracts\\insurance_policy.sol",
  "compiler": {
    "name": "solc",
    "version": "0.8.13+commit.abaa5c0e.Emscripten.clang"
  },
  "schemaVersion": "3.4.13",
  "updatedAt": "2023-05-03T04:20:59.616Z",
  "networkType": "ethereum",
  "devdoc": {
    "kind": "dev",
    "methods": {},
    "version": 1
  },
  "userdoc": {
    "kind": "user",
    "methods": {},
    "version": 1
  }
}