{
  "contractName": "Insurance_Policy",
  "abi": [
    {
      "inputs": [
        {
          "internalType": "address payable",
          "name": "_benficiary",
          "type": "address"
        },
        {
          "internalType": "uint256",
          "name": "_payout",
          "type": "uint256"
        },
        {
          "internalType": "uint256",
          "name": "_durationInDays",
          "type": "uint256"
        }
      ],
      "stateMutability": "nonpayable",
      "type": "constructor"
    },
    {
      "inputs": [],
      "name": "beneficiary",
      "outputs": [
        {
          "internalType": "address payable",
          "name": "",
          "type": "address"
        }
      ],
      "stateMutability": "view",
      "type": "function"
    },
    {
      "inputs": [],
      "name": "expirationTime",
      "outputs": [
        {
          "internalType": "uint256",
          "name": "",
          "type": "uint256"
        }
      ],
      "stateMutability": "view",
      "type": "function"
    },
    {
      "inputs": [],
      "name": "owner",
      "outputs": [
        {
          "internalType": "address payable",
          "name": "",
          "type": "address"
        }
      ],
      "stateMutability": "view",
      "type": "function"
    },
    {
      "inputs": [],
      "name": "payout_amount",
      "outputs": [
        {
          "internalType": "uint256",
          "name": "",
          "type": "uint256"
        }
      ],
      "stateMutability": "view",
      "type": "function"
    },
    {
      "inputs": [],
      "name": "payout",
      "outputs": [],
      "stateMutability": "nonpayable",
      "type": "function"
    }
  ],
  "bytecode": "0x608060405234801561001057600080fd5b506040516105893803806105898339818101604052810190610032919061017b565b336000806101000a81548173ffffffffffffffffffffffffffffffffffffffff021916908373ffffffffffffffffffffffffffffffffffffffff16021790555082600160006101000a81548173ffffffffffffffffffffffffffffffffffffffff021916908373ffffffffffffffffffffffffffffffffffffffff1602179055508160028190555062015180816100c991906101fd565b426100d49190610257565b6003819055505050506102ad565b600080fd5b600073ffffffffffffffffffffffffffffffffffffffff82169050919050565b6000610112826100e7565b9050919050565b61012281610107565b811461012d57600080fd5b50565b60008151905061013f81610119565b92915050565b6000819050919050565b61015881610145565b811461016357600080fd5b50565b6000815190506101758161014f565b92915050565b600080600060608486031215610194576101936100e2565b5b60006101a286828701610130565b93505060206101b386828701610166565b92505060406101c486828701610166565b9150509250925092565b7f4e487b7100000000000000000000000000000000000000000000000000000000600052601160045260246000fd5b600061020882610145565b915061021383610145565b9250817fffffffffffffffffffffffffffffffffffffffffffffffffffffffffffffffff048311821515161561024c5761024b6101ce565b5b828202905092915050565b600061026282610145565b915061026d83610145565b9250827fffffffffffffffffffffffffffffffffffffffffffffffffffffffffffffffff038211156102a2576102a16101ce565b5b828201905092915050565b6102cd806102bc6000396000f3fe608060405234801561001057600080fd5b50600436106100575760003560e01c80631d46c04a1461005c57806338af3eed1461007a57806363bd1d4a146100985780638da5cb5b146100a2578063da284dcc146100c0575b600080fd5b6100646100de565b6040516100719190610220565b60405180910390f35b6100826100e4565b60405161008f919061027c565b60405180910390f35b6100a061010a565b005b6100aa6101dd565b6040516100b7919061027c565b60405180910390f35b6100c8610201565b6040516100d59190610220565b60405180910390f35b60025481565b600160009054906101000a900473ffffffffffffffffffffffffffffffffffffffff1681565b60008054906101000a900473ffffffffffffffffffffffffffffffffffffffff1673ffffffffffffffffffffffffffffffffffffffff163373ffffffffffffffffffffffffffffffffffffffff161461016257600080fd5b600354421061017057600080fd5b600160009054906101000a900473ffffffffffffffffffffffffffffffffffffffff1673ffffffffffffffffffffffffffffffffffffffff166108fc6002549081150290604051600060405180830381858888f193505050501580156101da573d6000803e3d6000fd5b50565b60008054906101000a900473ffffffffffffffffffffffffffffffffffffffff1681565b60035481565b6000819050919050565b61021a81610207565b82525050565b60006020820190506102356000830184610211565b92915050565b600073ffffffffffffffffffffffffffffffffffffffff82169050919050565b60006102668261023b565b9050919050565b6102768161025b565b82525050565b6000602082019050610291600083018461026d565b9291505056fea2646970667358221220713348c1001e46a407bbce553c827f7ac156242eb10173be13000c8197943dda64736f6c634300080d0033",
  "immutableReferences": {},
  "source": "/* This program is free software: you can redistribute it and/or modify\r\n * it under the terms of the GNU General Public License as published by\r\n * the Free Software Foundation, either version 3 of the License, or\r\n * (at your option) any later version.\r\n *\r\n * This program is distributed in the hope that it will be useful,\r\n * but WITHOUT ANY WARRANTY; without even the implied warranty of\r\n * MERCHANTABILITY or FITNESS FOR A PARTICULAR PURPOSE.  See the\r\n * GNU General Public License for more details.\r\n *\r\n * You should have received a copy of the GNU General Public License\r\n * along with this program.  If not, see <https://www.gnu.org/licenses/>.\r\n */\r\npragma solidity ^0.8.0;\r\n\r\ncontract Insurance_Policy {\r\n\r\n    //Contract Owner\r\n    address payable public owner;\r\n\r\n    //Beneficiary\r\n    address payable public beneficiary;\r\n\r\n    //Amt to payout on claim\r\n    uint public payout_amount;\r\n\r\n    // The time at which the policy expires\r\n    uint public expirationTime;\r\n\r\n    constructor(address payable _benficiary, uint _payout, uint _durationInDays){\r\n        owner = payable(msg.sender);\r\n        beneficiary = payable(_benficiary);\r\n        payout_amount = _payout;\r\n        expirationTime = block.timestamp + (_durationInDays * 1 days);\r\n    }\r\n\r\n    function payout() public {\r\n        require(msg.sender == owner);\r\n        require(block.timestamp < expirationTime);\r\n        beneficiary.transfer(payout_amount);\r\n    }\r\n}",
  "sourcePath": "C:\\Users\\littl\\projects\\sc_insurance\\contracts\\insurance_policy.sol",
  "compiler": {
    "name": "solc",
    "version": "0.8.13+commit.abaa5c0e.Emscripten.clang"
  },
  "schemaVersion": "3.4.13",
  "updatedAt": "2023-05-02T01:57:26.950Z",
  "networkType": "ethereum",
  "devdoc": {
    "kind": "dev",
    "methods": {},
    "version": 1
  },
  "userdoc": {
    "kind": "user",
    "methods": {},
    "version": 1
  }
}