{
  "contractName": "Insurance_Factory",
  "abi": [
    {
      "inputs": [
        {
          "internalType": "address[]",
          "name": "_allowedCreators",
          "type": "address[]"
        },
        {
          "internalType": "uint256",
          "name": "_premiumHaircut",
          "type": "uint256"
        }
      ],
      "stateMutability": "nonpayable",
      "type": "constructor"
    },
    {
      "inputs": [],
      "name": "owner",
      "outputs": [
        {
          "internalType": "address",
          "name": "",
          "type": "address"
        }
      ],
      "stateMutability": "view",
      "type": "function",
      "constant": true
    },
    {
      "inputs": [],
      "name": "premiumHaircut",
      "outputs": [
        {
          "internalType": "uint256",
          "name": "",
          "type": "uint256"
        }
      ],
      "stateMutability": "view",
      "type": "function",
      "constant": true
    },
    {
      "inputs": [],
      "name": "getPoolBalance",
      "outputs": [
        {
          "internalType": "uint256",
          "name": "",
          "type": "uint256"
        }
      ],
      "stateMutability": "view",
      "type": "function",
      "constant": true
    },
    {
      "inputs": [],
      "name": "poolDeposit",
      "outputs": [
        {
          "internalType": "uint256",
          "name": "",
          "type": "uint256"
        }
      ],
      "stateMutability": "payable",
      "type": "function",
      "payable": true
    },
    {
      "inputs": [
        {
          "internalType": "address",
          "name": "creator",
          "type": "address"
        }
      ],
      "name": "getVendorPolicies",
      "outputs": [
        {
          "internalType": "contract Insurance_Policy[]",
          "name": "",
          "type": "address[]"
        }
      ],
      "stateMutability": "view",
      "type": "function",
      "constant": true
    },
    {
      "inputs": [],
      "name": "getVendors",
      "outputs": [
        {
          "internalType": "address[]",
          "name": "",
          "type": "address[]"
        }
      ],
      "stateMutability": "view",
      "type": "function",
      "constant": true
    },
    {
      "inputs": [
        {
          "internalType": "address",
          "name": "creator",
          "type": "address"
        }
      ],
      "name": "addVendor",
      "outputs": [],
      "stateMutability": "nonpayable",
      "type": "function"
    },
    {
      "inputs": [
        {
          "internalType": "address",
          "name": "creator",
          "type": "address"
        }
      ],
      "name": "removeVendor",
      "outputs": [],
      "stateMutability": "nonpayable",
      "type": "function"
    },
    {
      "inputs": [
        {
          "internalType": "address payable",
          "name": "claimAddr",
          "type": "address"
        }
      ],
      "name": "payClaim",
      "outputs": [],
      "stateMutability": "nonpayable",
      "type": "function"
    },
    {
      "inputs": [
        {
          "internalType": "uint256",
          "name": "producePrice",
          "type": "uint256"
        },
        {
          "internalType": "address payable",
          "name": "_beneficiary",
          "type": "address"
        },
        {
          "internalType": "uint256",
          "name": "_durationInDays",
          "type": "uint256"
        }
      ],
      "name": "createPolicy",
      "outputs": [
        {
          "internalType": "address",
          "name": "",
          "type": "address"
        }
      ],
      "stateMutability": "nonpayable",
      "type": "function"
    }
  ],
  "bytecode": "0x60806040523480156200001157600080fd5b5060405162002db938038062002db9833981810160405281019062000037919062000536565b336000806101000a81548173ffffffffffffffffffffffffffffffffffffffff021916908373ffffffffffffffffffffffffffffffffffffffff1602179055508060018190555060005b825181101562000256576002838281518110620000a357620000a26200059c565b5b60200260200101519080600181540180825580915050600190039060005260206000200160009091909190916101000a81548173ffffffffffffffffffffffffffffffffffffffff021916908373ffffffffffffffffffffffffffffffffffffffff1602179055506001600360008584815181106200012757620001266200059c565b5b602002602001015173ffffffffffffffffffffffffffffffffffffffff1673ffffffffffffffffffffffffffffffffffffffff16815260200190815260200160002060006101000a81548160ff021916908315150217905550600067ffffffffffffffff8111156200019e576200019d62000337565b5b604051908082528060200260200182016040528015620001cd5781602001602082028036833780820191505090505b5060046000858481518110620001e857620001e76200059c565b5b602002602001015173ffffffffffffffffffffffffffffffffffffffff1673ffffffffffffffffffffffffffffffffffffffff16815260200190815260200160002090805190602001906200023f9291906200025f565b5080806200024d90620005fa565b91505062000081565b50505062000647565b828054828255906000526020600020908101928215620002db579160200282015b82811115620002da5782518260006101000a81548173ffffffffffffffffffffffffffffffffffffffff021916908373ffffffffffffffffffffffffffffffffffffffff1602179055509160200191906001019062000280565b5b509050620002ea9190620002ee565b5090565b5b8082111562000309576000816000905550600101620002ef565b5090565b6000604051905090565b600080fd5b600080fd5b600080fd5b6000601f19601f8301169050919050565b7f4e487b7100000000000000000000000000000000000000000000000000000000600052604160045260246000fd5b620003718262000326565b810181811067ffffffffffffffff8211171562000393576200039262000337565b5b80604052505050565b6000620003a86200030d565b9050620003b6828262000366565b919050565b600067ffffffffffffffff821115620003d957620003d862000337565b5b602082029050602081019050919050565b600080fd5b600073ffffffffffffffffffffffffffffffffffffffff82169050919050565b60006200041c82620003ef565b9050919050565b6200042e816200040f565b81146200043a57600080fd5b50565b6000815190506200044e8162000423565b92915050565b60006200046b6200046584620003bb565b6200039c565b90508083825260208201905060208402830185811115620004915762000490620003ea565b5b835b81811015620004be5780620004a988826200043d565b84526020840193505060208101905062000493565b5050509392505050565b600082601f830112620004e057620004df62000321565b5b8151620004f284826020860162000454565b91505092915050565b6000819050919050565b6200051081620004fb565b81146200051c57600080fd5b50565b600081519050620005308162000505565b92915050565b6000806040838503121562000550576200054f62000317565b5b600083015167ffffffffffffffff8111156200057157620005706200031c565b5b6200057f85828601620004c8565b925050602062000592858286016200051f565b9150509250929050565b7f4e487b7100000000000000000000000000000000000000000000000000000000600052603260045260246000fd5b7f4e487b7100000000000000000000000000000000000000000000000000000000600052601160045260246000fd5b60006200060782620004fb565b91507fffffffffffffffffffffffffffffffffffffffffffffffffffffffffffffffff82036200063c576200063b620005cb565b5b600182019050919050565b61276280620006576000396000f3fe6080604052600436106200009e5760003560e01c806354b622c9116200006157806354b622c9146200019557806364bebcc514620001c35780637350655414620001f35780638da5cb5b1462000237578063abd70aa21462000267576200009e565b806317d2d0fc14620000a3578063243a0c9a14620000c557806336b9418a146200010957806345e0f753146200013757806352c1c6cd1462000165575b600080fd5b620000ad62000297565b604051620000bc919062000ff3565b60405180910390f35b348015620000d257600080fd5b50620000f16004803603810190620000eb91906200107a565b6200029f565b604051620001009190620011d4565b60405180910390f35b3480156200011657600080fd5b506200013560048036038101906200012f91906200123d565b620003ff565b005b3480156200014457600080fd5b506200016360048036038101906200015d91906200107a565b620006df565b005b3480156200017257600080fd5b506200017d620008d1565b6040516200018c919062000ff3565b60405180910390f35b348015620001a257600080fd5b50620001c16004803603810190620001bb91906200107a565b620008d7565b005b348015620001d057600080fd5b50620001db62000b91565b604051620001ea91906200132c565b60405180910390f35b3480156200020057600080fd5b506200021f600480360381019062000219919062001381565b62000c21565b6040516200022e9190620013ee565b60405180910390f35b3480156200024457600080fd5b506200024f62000e3b565b6040516200025e9190620013ee565b60405180910390f35b3480156200027457600080fd5b506200027f62000e5f565b6040516200028e919062000ff3565b60405180910390f35b600034905090565b606060008054906101000a900473ffffffffffffffffffffffffffffffffffffffff1673ffffffffffffffffffffffffffffffffffffffff163373ffffffffffffffffffffffffffffffffffffffff161462000332576040517f08c379a0000000000000000000000000000000000000000000000000000000008152600401620003299062001492565b60405180910390fd5b600460008373ffffffffffffffffffffffffffffffffffffffff1673ffffffffffffffffffffffffffffffffffffffff168152602001908152602001600020805480602002602001604051908101604052809291908181526020018280548015620003f357602002820191906000526020600020905b8160009054906101000a900473ffffffffffffffffffffffffffffffffffffffff1673ffffffffffffffffffffffffffffffffffffffff1681526020019060010190808311620003a8575b50505050509050919050565b60008173ffffffffffffffffffffffffffffffffffffffff16631d46c04a6040518163ffffffff1660e01b8152600401602060405180830381865afa1580156200044d573d6000803e3d6000fd5b505050506040513d601f19601f82011682018060405250810190620004739190620014cb565b905060008273ffffffffffffffffffffffffffffffffffffffff1663e834a8346040518163ffffffff1660e01b8152600401602060405180830381865afa158015620004c3573d6000803e3d6000fd5b505050506040513d601f19601f82011682018060405250810190620004e991906200153a565b905060008373ffffffffffffffffffffffffffffffffffffffff16638da5cb5b6040518163ffffffff1660e01b8152600401602060405180830381865afa15801562000539573d6000803e3d6000fd5b505050506040513d601f19601f820116820180604052508101906200055f919062001583565b905060008473ffffffffffffffffffffffffffffffffffffffff166338af3eed6040518163ffffffff1660e01b8152600401602060405180830381865afa158015620005af573d6000803e3d6000fd5b505050506040513d601f19601f82011682018060405250810190620005d59190620015cc565b90503373ffffffffffffffffffffffffffffffffffffffff168273ffffffffffffffffffffffffffffffffffffffff1614620006165762000615620015fe565b5b60001515831515146200062e576200062d620015fe565b5b8073ffffffffffffffffffffffffffffffffffffffff166108fc859081150290604051600060405180830381858888f1935050505015801562000675573d6000803e3d6000fd5b508473ffffffffffffffffffffffffffffffffffffffff1663f74f32e06040518163ffffffff1660e01b8152600401600060405180830381600087803b158015620006bf57600080fd5b505af1158015620006d4573d6000803e3d6000fd5b505050505050505050565b60008054906101000a900473ffffffffffffffffffffffffffffffffffffffff1673ffffffffffffffffffffffffffffffffffffffff163373ffffffffffffffffffffffffffffffffffffffff161462000770576040517f08c379a0000000000000000000000000000000000000000000000000000000008152600401620007679062001492565b60405180910390fd5b6002819080600181540180825580915050600190039060005260206000200160009091909190916101000a81548173ffffffffffffffffffffffffffffffffffffffff021916908373ffffffffffffffffffffffffffffffffffffffff1602179055506001600360008373ffffffffffffffffffffffffffffffffffffffff1673ffffffffffffffffffffffffffffffffffffffff16815260200190815260200160002060006101000a81548160ff021916908315150217905550600067ffffffffffffffff8111156200084957620008486200162d565b5b604051908082528060200260200182016040528015620008785781602001602082028036833780820191505090505b50600460008373ffffffffffffffffffffffffffffffffffffffff1673ffffffffffffffffffffffffffffffffffffffff1681526020019081526020016000209080519060200190620008cd92919062000ef9565b5050565b60015481565b60008054906101000a900473ffffffffffffffffffffffffffffffffffffffff1673ffffffffffffffffffffffffffffffffffffffff163373ffffffffffffffffffffffffffffffffffffffff161462000968576040517f08c379a00000000000000000000000000000000000000000000000000000000081526004016200095f9062001492565b60405180910390fd5b6000600360008373ffffffffffffffffffffffffffffffffffffffff1673ffffffffffffffffffffffffffffffffffffffff16815260200190815260200160002060006101000a81548160ff021916908315150217905550600460008273ffffffffffffffffffffffffffffffffffffffff1673ffffffffffffffffffffffffffffffffffffffff168152602001908152602001600020600062000a0d919062000f88565b60005b60028054905081101562000b43578173ffffffffffffffffffffffffffffffffffffffff166002828154811062000a4c5762000a4b6200165c565b5b9060005260206000200160009054906101000a900473ffffffffffffffffffffffffffffffffffffffff1673ffffffffffffffffffffffffffffffffffffffff160362000b2d576002600160028054905062000aa99190620016ba565b8154811062000abd5762000abc6200165c565b5b9060005260206000200160009054906101000a900473ffffffffffffffffffffffffffffffffffffffff1673ffffffffffffffffffffffffffffffffffffffff166002828154811062000b155762000b146200165c565b5b9060005260206000200160009054906101000a905050505b808062000b3a90620016f5565b91505062000a10565b50600280548062000b595762000b5862001742565b5b6001900381819060005260206000200160006101000a81549073ffffffffffffffffffffffffffffffffffffffff0219169055905550565b6060600280548060200260200160405190810160405280929190818152602001828054801562000c1757602002820191906000526020600020905b8160009054906101000a900473ffffffffffffffffffffffffffffffffffffffff1673ffffffffffffffffffffffffffffffffffffffff168152602001906001019080831162000bcc575b5050505050905090565b600060011515600360003373ffffffffffffffffffffffffffffffffffffffff1673ffffffffffffffffffffffffffffffffffffffff16815260200190815260200160002060009054906101000a900460ff161515148062000cce575060008054906101000a900473ffffffffffffffffffffffffffffffffffffffff1673ffffffffffffffffffffffffffffffffffffffff163373ffffffffffffffffffffffffffffffffffffffff16145b62000d10576040517f08c379a000000000000000000000000000000000000000000000000000000000815260040162000d0790620017c1565b60405180910390fd5b600084600a60015462000d24919062001812565b62000d3091906200184a565b848460008054906101000a900473ffffffffffffffffffffffffffffffffffffffff1660405162000d619062000fab565b62000d709493929190620018bc565b604051809103906000f08015801562000d8d573d6000803e3d6000fd5b509050600460003373ffffffffffffffffffffffffffffffffffffffff1673ffffffffffffffffffffffffffffffffffffffff168152602001908152602001600020819080600181540180825580915050600190039060005260206000200160009091909190916101000a81548173ffffffffffffffffffffffffffffffffffffffff021916908373ffffffffffffffffffffffffffffffffffffffff160217905550809150509392505050565b60008054906101000a900473ffffffffffffffffffffffffffffffffffffffff1681565b60008060009054906101000a900473ffffffffffffffffffffffffffffffffffffffff1673ffffffffffffffffffffffffffffffffffffffff163373ffffffffffffffffffffffffffffffffffffffff161462000ef3576040517f08c379a000000000000000000000000000000000000000000000000000000000815260040162000eea9062001492565b60405180910390fd5b47905090565b82805482825590600052602060002090810192821562000f75579160200282015b8281111562000f745782518260006101000a81548173ffffffffffffffffffffffffffffffffffffffff021916908373ffffffffffffffffffffffffffffffffffffffff1602179055509160200191906001019062000f1a565b5b50905062000f84919062000fb9565b5090565b508054600082559060005260206000209081019062000fa8919062000fb9565b50565b610e23806200190a83390190565b5b8082111562000fd457600081600090555060010162000fba565b5090565b6000819050919050565b62000fed8162000fd8565b82525050565b60006020820190506200100a600083018462000fe2565b92915050565b600080fd5b600073ffffffffffffffffffffffffffffffffffffffff82169050919050565b6000620010428262001015565b9050919050565b620010548162001035565b81146200106057600080fd5b50565b600081359050620010748162001049565b92915050565b60006020828403121562001093576200109262001010565b5b6000620010a38482850162001063565b91505092915050565b600081519050919050565b600082825260208201905092915050565b6000819050602082019050919050565b6000819050919050565b600062001103620010fd620010f78462001015565b620010d8565b62001015565b9050919050565b60006200111782620010e2565b9050919050565b60006200112b826200110a565b9050919050565b6200113d816200111e565b82525050565b600062001151838362001132565b60208301905092915050565b6000602082019050919050565b60006200117782620010ac565b620011838185620010b7565b93506200119083620010c8565b8060005b83811015620011c7578151620011ab888262001143565b9750620011b8836200115d565b92505060018101905062001194565b5085935050505092915050565b60006020820190508181036000830152620011f081846200116a565b905092915050565b6000620012058262001015565b9050919050565b6200121781620011f8565b81146200122357600080fd5b50565b60008135905062001237816200120c565b92915050565b60006020828403121562001256576200125562001010565b5b6000620012668482850162001226565b91505092915050565b600081519050919050565b6000819050602082019050919050565b620012958162001035565b82525050565b6000620012a983836200128a565b60208301905092915050565b6000602082019050919050565b6000620012cf826200126f565b620012db8185620010b7565b9350620012e8836200127a565b8060005b838110156200131f5781516200130388826200129b565b97506200131083620012b5565b925050600181019050620012ec565b5085935050505092915050565b60006020820190508181036000830152620013488184620012c2565b905092915050565b6200135b8162000fd8565b81146200136757600080fd5b50565b6000813590506200137b8162001350565b92915050565b6000806000606084860312156200139d576200139c62001010565b5b6000620013ad868287016200136a565b9350506020620013c08682870162001226565b9250506040620013d3868287016200136a565b9150509250925092565b620013e88162001035565b82525050565b6000602082019050620014056000830184620013dd565b92915050565b600082825260208201905092915050565b7f546869732066756e6374696f6e206d6179206f6e6c792062652063616c6c656460008201527f20627920746865206f776e657273000000000000000000000000000000000000602082015250565b60006200147a602e836200140b565b915062001487826200141c565b604082019050919050565b60006020820190508181036000830152620014ad816200146b565b9050919050565b600081519050620014c58162001350565b92915050565b600060208284031215620014e457620014e362001010565b5b6000620014f484828501620014b4565b91505092915050565b60008115159050919050565b6200151481620014fd565b81146200152057600080fd5b50565b600081519050620015348162001509565b92915050565b60006020828403121562001553576200155262001010565b5b6000620015638482850162001523565b91505092915050565b6000815190506200157d8162001049565b92915050565b6000602082840312156200159c576200159b62001010565b5b6000620015ac848285016200156c565b91505092915050565b600081519050620015c6816200120c565b92915050565b600060208284031215620015e557620015e462001010565b5b6000620015f584828501620015b5565b91505092915050565b7f4e487b7100000000000000000000000000000000000000000000000000000000600052600160045260246000fd5b7f4e487b7100000000000000000000000000000000000000000000000000000000600052604160045260246000fd5b7f4e487b7100000000000000000000000000000000000000000000000000000000600052603260045260246000fd5b7f4e487b7100000000000000000000000000000000000000000000000000000000600052601160045260246000fd5b6000620016c78262000fd8565b9150620016d48362000fd8565b925082821015620016ea57620016e96200168b565b5b828203905092915050565b6000620017028262000fd8565b91507fffffffffffffffffffffffffffffffffffffffffffffffffffffffffffffffff82036200173757620017366200168b565b5b600182019050919050565b7f4e487b7100000000000000000000000000000000000000000000000000000000600052603160045260246000fd5b7f4e6f742061207065726d697373696f6e2056656e646f72206f72206f776e6572600082015250565b6000620017a96020836200140b565b9150620017b68262001771565b602082019050919050565b60006020820190508181036000830152620017dc816200179a565b9050919050565b7f4e487b7100000000000000000000000000000000000000000000000000000000600052601260045260246000fd5b60006200181f8262000fd8565b91506200182c8362000fd8565b9250826200183f576200183e620017e3565b5b828204905092915050565b6000620018578262000fd8565b9150620018648362000fd8565b9250817fffffffffffffffffffffffffffffffffffffffffffffffffffffffffffffffff0483118215151615620018a0576200189f6200168b565b5b828202905092915050565b620018b681620011f8565b82525050565b6000608082019050620018d3600083018762000fe2565b620018e26020830186620018ab565b620018f1604083018562000fe2565b620019006060830184620013dd565b9594505050505056fe60806040526000600560006101000a81548160ff0219169083151502179055506000600560016101000a81548160ff021916908360ff1602179055503480156200004857600080fd5b5060405162000e2338038062000e2383398181016040528101906200006e9190620002b4565b7fffffffffffffffffffffffffffffffffffffffffffffffffffffffffffffffff8210620000d3576040517f08c379a0000000000000000000000000000000000000000000000000000000008152600401620000ca9062000387565b60405180910390fd5b80600160006101000a81548173ffffffffffffffffffffffffffffffffffffffff021916908373ffffffffffffffffffffffffffffffffffffffff160217905550326000806101000a81548173ffffffffffffffffffffffffffffffffffffffff021916908373ffffffffffffffffffffffffffffffffffffffff16021790555082600260006101000a81548173ffffffffffffffffffffffffffffffffffffffff021916908373ffffffffffffffffffffffffffffffffffffffff160217905550836003819055506201518082620001ad9190620003d8565b42620001ba919062000439565b6004819055505050505062000496565b600080fd5b6000819050919050565b620001e481620001cf565b8114620001f057600080fd5b50565b6000815190506200020481620001d9565b92915050565b600073ffffffffffffffffffffffffffffffffffffffff82169050919050565b600062000237826200020a565b9050919050565b62000249816200022a565b81146200025557600080fd5b50565b60008151905062000269816200023e565b92915050565b60006200027c826200020a565b9050919050565b6200028e816200026f565b81146200029a57600080fd5b50565b600081519050620002ae8162000283565b92915050565b60008060008060808587031215620002d157620002d0620001ca565b5b6000620002e187828801620001f3565b9450506020620002f48782880162000258565b93505060406200030787828801620001f3565b92505060606200031a878288016200029d565b91505092959194509250565b600082825260208201905092915050565b7f4475726174696f6e20746f6f206c6f6e67000000000000000000000000000000600082015250565b60006200036f60118362000326565b91506200037c8262000337565b602082019050919050565b60006020820190508181036000830152620003a28162000360565b9050919050565b7f4e487b7100000000000000000000000000000000000000000000000000000000600052601160045260246000fd5b6000620003e582620001cf565b9150620003f283620001cf565b9250817fffffffffffffffffffffffffffffffffffffffffffffffffffffffffffffffff04831182151516156200042e576200042d620003a9565b5b828202905092915050565b60006200044682620001cf565b91506200045383620001cf565b9250827fffffffffffffffffffffffffffffffffffffffffffffffffffffffffffffffff038211156200048b576200048a620003a9565b5b828201905092915050565b61097d80620004a66000396000f3fe6080604052600436106100915760003560e01c80638da5cb5b116100595780638da5cb5b1461016b578063bf79b6b514610196578063da284dcc146101b4578063e834a834146101df578063f74f32e01461020a57610091565b80631d46c04a1461009657806324f159c2146100c157806338af3eed146100ec5780634273601c146101175780638746656f14610142575b600080fd5b3480156100a257600080fd5b506100ab610221565b6040516100b89190610607565b60405180910390f35b3480156100cd57600080fd5b506100d6610227565b6040516100e3919061063e565b60405180910390f35b3480156100f857600080fd5b5061010161023a565b60405161010e919061069a565b60405180910390f35b34801561012357600080fd5b5061012c610260565b60405161013991906106d6565b60405180910390f35b34801561014e57600080fd5b5061016960048036038101906101649190610722565b610286565b005b34801561017757600080fd5b5061018061048e565b60405161018d91906106d6565b60405180910390f35b61019e6104b2565b6040516101ab9190610607565b60405180910390f35b3480156101c057600080fd5b506101c96105b8565b6040516101d69190610607565b60405180910390f35b3480156101eb57600080fd5b506101f46105be565b604051610201919061076a565b60405180910390f35b34801561021657600080fd5b5061021f6105d1565b005b60035481565b600560019054906101000a900460ff1681565b600260009054906101000a900473ffffffffffffffffffffffffffffffffffffffff1681565b600160009054906101000a900473ffffffffffffffffffffffffffffffffffffffff1681565b7fffffffffffffffffffffffffffffffffffffffffffffffffffffffffffffffff81106102e8576040517f08c379a00000000000000000000000000000000000000000000000000000000081526004016102df906107e2565b60405180910390fd5b6004544210156103ab5760008054906101000a900473ffffffffffffffffffffffffffffffffffffffff1673ffffffffffffffffffffffffffffffffffffffff163373ffffffffffffffffffffffffffffffffffffffff1614806103995750600160009054906101000a900473ffffffffffffffffffffffffffffffffffffffff1673ffffffffffffffffffffffffffffffffffffffff163373ffffffffffffffffffffffffffffffffffffffff16145b6103a6576103a5610802565b5b61040a565b600160009054906101000a900473ffffffffffffffffffffffffffffffffffffffff1673ffffffffffffffffffffffffffffffffffffffff163373ffffffffffffffffffffffffffffffffffffffff161461040957610408610802565b5b5b6003600560019054906101000a900460ff1660ff161061042d5761042c610802565b5b620151808161043c9190610860565b6004600082825461044d91906108ba565b925050819055506001600560018282829054906101000a900460ff166104739190610910565b92506101000a81548160ff021916908360ff16021790555050565b60008054906101000a900473ffffffffffffffffffffffffffffffffffffffff1681565b60008060009054906101000a900473ffffffffffffffffffffffffffffffffffffffff1673ffffffffffffffffffffffffffffffffffffffff163273ffffffffffffffffffffffffffffffffffffffff161461051157610510610802565b5b600454421061052357610522610802565b5b60001515600560009054906101000a900460ff1615151461054757610546610802565b5b600260009054906101000a900473ffffffffffffffffffffffffffffffffffffffff1673ffffffffffffffffffffffffffffffffffffffff166108fc6003549081150290604051600060405180830381858888f193505050501580156105b1573d6000803e3d6000fd5b5034905090565b60045481565b600560009054906101000a900460ff1681565b6001600560006101000a81548160ff021916908315150217905550565b6000819050919050565b610601816105ee565b82525050565b600060208201905061061c60008301846105f8565b92915050565b600060ff82169050919050565b61063881610622565b82525050565b6000602082019050610653600083018461062f565b92915050565b600073ffffffffffffffffffffffffffffffffffffffff82169050919050565b600061068482610659565b9050919050565b61069481610679565b82525050565b60006020820190506106af600083018461068b565b92915050565b60006106c082610659565b9050919050565b6106d0816106b5565b82525050565b60006020820190506106eb60008301846106c7565b92915050565b600080fd5b6106ff816105ee565b811461070a57600080fd5b50565b60008135905061071c816106f6565b92915050565b600060208284031215610738576107376106f1565b5b60006107468482850161070d565b91505092915050565b60008115159050919050565b6107648161074f565b82525050565b600060208201905061077f600083018461075b565b92915050565b600082825260208201905092915050565b7f4475726174696f6e20746f6f206c6f6e67000000000000000000000000000000600082015250565b60006107cc601183610785565b91506107d782610796565b602082019050919050565b600060208201905081810360008301526107fb816107bf565b9050919050565b7f4e487b7100000000000000000000000000000000000000000000000000000000600052600160045260246000fd5b7f4e487b7100000000000000000000000000000000000000000000000000000000600052601160045260246000fd5b600061086b826105ee565b9150610876836105ee565b9250817fffffffffffffffffffffffffffffffffffffffffffffffffffffffffffffffff04831182151516156108af576108ae610831565b5b828202905092915050565b60006108c5826105ee565b91506108d0836105ee565b9250827fffffffffffffffffffffffffffffffffffffffffffffffffffffffffffffffff0382111561090557610904610831565b5b828201905092915050565b600061091b82610622565b915061092683610622565b92508260ff0382111561093c5761093b610831565b5b82820190509291505056fea2646970667358221220ac705b4155c5fa4d6e837319ec6eb14a79f3a998c4c8ae340ab11d14601c718664736f6c634300080d0033a2646970667358221220ef616953978d6ceb13a158bc0689631c5b9d402ea607f20b498c2ec5a67f385164736f6c634300080d0033",
  "immutableReferences": {},
  "source": "/* This program is free software: you can redistribute it and/or modify\r\n * it under the terms of the GNU General Public License as published by\r\n * the Free Software Foundation, either version 3 of the License, or\r\n * (at your option) any later version.\r\n *\r\n * This program is distributed in the hope that it will be useful,\r\n * but WITHOUT ANY WARRANTY; without even the implied warranty of\r\n * MERCHANTABILITY or FITNESS FOR A PARTICULAR PURPOSE.  See the\r\n * GNU General Public License for more details.\r\n *\r\n * You should have received a copy of the GNU General Public License\r\n * along with this program.  If not, see <https://www.gnu.org/licenses/>.\r\n */\r\n\r\n\r\nimport \"./insurance_policy.sol\";\r\npragma solidity ^0.8.0;\r\n\r\n\r\ncontract Insurance_Factory {\r\n\r\n    address public owner;\r\n\r\n    uint public premiumHaircut;\r\n    \r\n    address[] allowedCreatorsList;\r\n    mapping (address => bool) allowedCreators;\r\n    mapping (address => Insurance_Policy[]) CreatorsPolicyMap;\r\n\r\n    constructor(address[] memory _allowedCreators, uint _premiumHaircut) {\r\n        owner = msg.sender;\r\n\r\n        premiumHaircut = _premiumHaircut;\r\n        //Initalize Allowed Creator Structures\r\n        for (uint i = 0; i < _allowedCreators.length; i++) {\r\n\r\n            //add address to key list\r\n            allowedCreatorsList.push(_allowedCreators[i]);\r\n\r\n            // add address to key mapping\r\n            allowedCreators[_allowedCreators[i]] = true;\r\n\r\n            // add key to creator claims map\r\n            CreatorsPolicyMap[_allowedCreators[i]] = new Insurance_Policy[](0);\r\n        }\r\n    }\r\n\r\n    //MODIFIERS\r\n\r\n    modifier onlyOwner(){\r\n        // factory owner only\r\n        require(msg.sender == owner,\r\n        \"This function may only be called by the owners\");\r\n        _;\r\n    }\r\n\r\n    modifier checkVendor() {\r\n        // approved vendor or factory owner\r\n        require(allowedCreators[msg.sender] == true || msg.sender == owner, \r\n        \"Not a permission Vendor or owner\");\r\n        _;\r\n    }\r\n\r\n    //FUNCTIONS\r\n\r\n    //Funds Pool Interaction Functions\r\n    function getPoolBalance() onlyOwner public view returns (uint){\r\n        return(address(this).balance);\r\n    }\r\n\r\n    function poolDeposit() payable public returns(uint256) {\r\n        return(msg.value);\r\n    }\r\n    \r\n    //Vendor Interaction Functions\r\n    function getVendorPolicies(address creator) onlyOwner public view returns(Insurance_Policy[] memory) {\r\n        return(CreatorsPolicyMap[creator]);\r\n    } \r\n\r\n    function getVendors() public view returns (address[] memory) {\r\n        return allowedCreatorsList;\r\n    }\r\n\r\n    function addVendor(address creator) onlyOwner public {\r\n        allowedCreatorsList.push(creator);\r\n        allowedCreators[creator] = true;\r\n        CreatorsPolicyMap[creator] = new Insurance_Policy[](0);\r\n    }\r\n\r\n    //TODO: HANDLE OPEN POLICIES OF REMOVED CREATORS\r\n    function removeVendor(address creator) onlyOwner public {\r\n        allowedCreators[creator] = false;\r\n        delete CreatorsPolicyMap[creator];\r\n\r\n        for (uint i = 0; i < allowedCreatorsList.length; i++) {\r\n            if (allowedCreatorsList[i] == creator) {\r\n                allowedCreatorsList[i] == allowedCreatorsList[allowedCreatorsList.length - 1];\r\n            }\r\n        }\r\n        allowedCreatorsList.pop();\r\n    }\r\n\r\n    //PAY CLAIM\r\n    function payClaim(address payable claimAddr) public {\r\n        // can only be called by the vendor who originated the contract\r\n\r\n        // GET POLICY INFO\r\n        uint claimAmt = Insurance_Policy(claimAddr).payout_amount();\r\n        bool claimPaid = Insurance_Policy(claimAddr).claimed();\r\n        address policyOriginator = Insurance_Policy(claimAddr).owner();\r\n        address payable beneficiary = Insurance_Policy(claimAddr).beneficiary();\r\n        \r\n        // CHECKS\r\n        assert(policyOriginator == msg.sender);\r\n        // assert(address(this).balance > claimAmt);\r\n        assert(claimPaid == false);\r\n\r\n        if(address(this).balance < claimAmt) {\r\n\r\n        }\r\n\r\n        // SEND PAYOUT TO BENEFICIARY\r\n        // Insurance_Policy(claimAddr).recieveClaim{value:claimAmt}();\r\n        // Insurance_Policy(claimAddr).setClaimed();\r\n        //!? Send to beneficiary instead of policy contract? \r\n        beneficiary.transfer(claimAmt);\r\n\r\n        // UPDATE POLICY CLAIMED STATE\r\n        Insurance_Policy(claimAddr).setClaimed();\r\n    }\r\n\r\n    //CREATE POLICY\r\n    function createPolicy(\r\n        uint producePrice, \r\n        address payable _beneficiary, \r\n        uint _durationInDays \r\n        ) \r\n            checkVendor public returns(address) {\r\n        Insurance_Policy newPolicy = new Insurance_Policy(\r\n            ((premiumHaircut/10)*producePrice),\r\n            _beneficiary,\r\n            _durationInDays,\r\n            owner);\r\n        CreatorsPolicyMap[msg.sender].push(newPolicy);\r\n        return(address(newPolicy));\r\n    }\r\n\r\n\r\n    \r\n}",
  "sourcePath": "C:\\Users\\littl\\projects\\sc_insurance\\contracts\\insurance_factory.sol",
  "compiler": {
    "name": "solc",
    "version": "0.8.13+commit.abaa5c0e.Emscripten.clang"
  },
  "schemaVersion": "3.4.13",
  "updatedAt": "2023-05-04T06:41:28.711Z",
  "networkType": "ethereum",
  "devdoc": {
    "kind": "dev",
    "methods": {},
    "version": 1
  },
  "userdoc": {
    "kind": "user",
    "methods": {},
    "version": 1
  }
}