{
  "contractName": "InsuranceFactory",
  "abi": [
    {
      "inputs": [
        {
          "internalType": "address[]",
          "name": "_allowedCreators",
          "type": "address[]"
        }
      ],
      "stateMutability": "nonpayable",
      "type": "constructor"
    },
    {
      "inputs": [
        {
          "internalType": "address",
          "name": "newCreator",
          "type": "address"
        }
      ],
      "name": "addAllowedCreator",
      "outputs": [],
      "stateMutability": "nonpayable",
      "type": "function"
    },
    {
      "inputs": [
        {
          "internalType": "address",
          "name": "creator",
          "type": "address"
        }
      ],
      "name": "removeAllowedCreator",
      "outputs": [],
      "stateMutability": "nonpayable",
      "type": "function"
    },
    {
      "inputs": [
        {
          "internalType": "address payable",
          "name": "_beneficiary",
          "type": "address"
        },
        {
          "internalType": "uint256",
          "name": "_premiumAmount",
          "type": "uint256"
        },
        {
          "internalType": "uint256",
          "name": "_payoutAmount",
          "type": "uint256"
        },
        {
          "internalType": "uint256",
          "name": "_durationInDays",
          "type": "uint256"
        }
      ],
      "name": "createInsurancePolicy",
      "outputs": [
        {
          "internalType": "address",
          "name": "",
          "type": "address"
        }
      ],
      "stateMutability": "nonpayable",
      "type": "function"
    }
  ],
  "bytecode": "0x60806040523480156200001157600080fd5b5060405162001eb638038062001eb68339818101604052810190620000379190620002f3565b80600090805190602001906200004f92919062000057565b505062000344565b828054828255906000526020600020908101928215620000d3579160200282015b82811115620000d25782518260006101000a81548173ffffffffffffffffffffffffffffffffffffffff021916908373ffffffffffffffffffffffffffffffffffffffff1602179055509160200191906001019062000078565b5b509050620000e29190620000e6565b5090565b5b8082111562000101576000816000905550600101620000e7565b5090565b6000604051905090565b600080fd5b600080fd5b600080fd5b6000601f19601f8301169050919050565b7f4e487b7100000000000000000000000000000000000000000000000000000000600052604160045260246000fd5b62000169826200011e565b810181811067ffffffffffffffff821117156200018b576200018a6200012f565b5b80604052505050565b6000620001a062000105565b9050620001ae82826200015e565b919050565b600067ffffffffffffffff821115620001d157620001d06200012f565b5b602082029050602081019050919050565b600080fd5b600073ffffffffffffffffffffffffffffffffffffffff82169050919050565b60006200021482620001e7565b9050919050565b620002268162000207565b81146200023257600080fd5b50565b60008151905062000246816200021b565b92915050565b6000620002636200025d84620001b3565b62000194565b90508083825260208201905060208402830185811115620002895762000288620001e2565b5b835b81811015620002b65780620002a1888262000235565b8452602084019350506020810190506200028b565b5050509392505050565b600082601f830112620002d857620002d762000119565b5b8151620002ea8482602086016200024c565b91505092915050565b6000602082840312156200030c576200030b6200010f565b5b600082015167ffffffffffffffff8111156200032d576200032c62000114565b5b6200033b84828501620002c0565b91505092915050565b611b6280620003546000396000f3fe60806040523480156200001157600080fd5b5060043610620000455760003560e01c80624db56e146200004a578063106f0975146200008057806337d04daa14620000a0575b600080fd5b62000068600480360381019062000062919062000696565b620000c0565b6040516200007791906200072d565b60405180910390f35b6200009e60048036038101906200009891906200077b565b62000201565b005b620000be6004803603810190620000b891906200077b565b62000353565b005b6000806000905060005b6000805490508110156200016d573373ffffffffffffffffffffffffffffffffffffffff1660008281548110620001065762000105620007ad565b5b9060005260206000200160009054906101000a900473ffffffffffffffffffffffffffffffffffffffff1673ffffffffffffffffffffffffffffffffffffffff16036200015757600191506200016d565b808062000164906200080b565b915050620000ca565b5080620001b1576040517f08c379a0000000000000000000000000000000000000000000000000000000008152600401620001a890620008df565b60405180910390fd5b600086868686604051620001c590620005e3565b620001d4949392919062000923565b604051809103906000f080158015620001f1573d6000803e3d6000fd5b5090508092505050949350505050565b6000805b600080549050811015620002a8573373ffffffffffffffffffffffffffffffffffffffff1660008281548110620002415762000240620007ad565b5b9060005260206000200160009054906101000a900473ffffffffffffffffffffffffffffffffffffffff1673ffffffffffffffffffffffffffffffffffffffff1603620002925760019150620002a8565b80806200029f906200080b565b91505062000205565b5080620002ec576040517f08c379a0000000000000000000000000000000000000000000000000000000008152600401620002e390620008df565b60405180910390fd5b6000829080600181540180825580915050600190039060005260206000200160009091909190916101000a81548173ffffffffffffffffffffffffffffffffffffffff021916908373ffffffffffffffffffffffffffffffffffffffff1602179055505050565b6000805b600080549050811015620003fa573373ffffffffffffffffffffffffffffffffffffffff1660008281548110620003935762000392620007ad565b5b9060005260206000200160009054906101000a900473ffffffffffffffffffffffffffffffffffffffff1673ffffffffffffffffffffffffffffffffffffffff1603620003e45760019150620003fa565b8080620003f1906200080b565b91505062000357565b50806200043e576040517f08c379a00000000000000000000000000000000000000000000000000000000081526004016200043590620008df565b60405180910390fd5b60005b600080549050811015620005de578273ffffffffffffffffffffffffffffffffffffffff16600082815481106200047d576200047c620007ad565b5b9060005260206000200160009054906101000a900473ffffffffffffffffffffffffffffffffffffffff1673ffffffffffffffffffffffffffffffffffffffff1603620005c85760006001600080549050620004da919062000970565b81548110620004ee57620004ed620007ad565b5b9060005260206000200160009054906101000a900473ffffffffffffffffffffffffffffffffffffffff166000828154811062000530576200052f620007ad565b5b9060005260206000200160006101000a81548173ffffffffffffffffffffffffffffffffffffffff021916908373ffffffffffffffffffffffffffffffffffffffff16021790555060008054806200058d576200058c620009ab565b5b6001900381819060005260206000200160006101000a81549073ffffffffffffffffffffffffffffffffffffffff02191690559055620005de565b8080620005d5906200080b565b91505062000441565b505050565b61115280620009db83390190565b600080fd5b600073ffffffffffffffffffffffffffffffffffffffff82169050919050565b60006200062382620005f6565b9050919050565b620006358162000616565b81146200064157600080fd5b50565b60008135905062000655816200062a565b92915050565b6000819050919050565b62000670816200065b565b81146200067c57600080fd5b50565b600081359050620006908162000665565b92915050565b60008060008060808587031215620006b357620006b2620005f1565b5b6000620006c38782880162000644565b9450506020620006d6878288016200067f565b9350506040620006e9878288016200067f565b9250506060620006fc878288016200067f565b91505092959194509250565b60006200071582620005f6565b9050919050565b620007278162000708565b82525050565b60006020820190506200074460008301846200071c565b92915050565b620007558162000708565b81146200076157600080fd5b50565b60008135905062000775816200074a565b92915050565b600060208284031215620007945762000793620005f1565b5b6000620007a48482850162000764565b91505092915050565b7f4e487b7100000000000000000000000000000000000000000000000000000000600052603260045260246000fd5b7f4e487b7100000000000000000000000000000000000000000000000000000000600052601160045260246000fd5b600062000818826200065b565b91507fffffffffffffffffffffffffffffffffffffffffffffffffffffffffffffffff82036200084d576200084c620007dc565b5b600182019050919050565b600082825260208201905092915050565b7f4f6e6c7920616c6c6f7765642063726561746f72732063616e2063726561746560008201527f206e657720706f6c696369657300000000000000000000000000000000000000602082015250565b6000620008c7602d8362000858565b9150620008d48262000869565b604082019050919050565b60006020820190508181036000830152620008fa81620008b8565b9050919050565b6200090c8162000616565b82525050565b6200091d816200065b565b82525050565b60006080820190506200093a600083018762000901565b62000949602083018662000912565b62000958604083018562000912565b62000967606083018462000912565b95945050505050565b60006200097d826200065b565b91506200098a836200065b565b925082821015620009a0576200099f620007dc565b5b828203905092915050565b7f4e487b7100000000000000000000000000000000000000000000000000000000600052603160045260246000fdfe60806040523480156200001157600080fd5b506040516200115238038062001152833981810160405281019062000037919062000199565b336000806101000a81548173ffffffffffffffffffffffffffffffffffffffff021916908373ffffffffffffffffffffffffffffffffffffffff16021790555083600160006101000a81548173ffffffffffffffffffffffffffffffffffffffff021916908373ffffffffffffffffffffffffffffffffffffffff16021790555082600281905550816003819055506201518081620000d791906200023a565b42620000e491906200029b565b60048190555050505050620002f8565b600080fd5b600073ffffffffffffffffffffffffffffffffffffffff82169050919050565b60006200012682620000f9565b9050919050565b620001388162000119565b81146200014457600080fd5b50565b60008151905062000158816200012d565b92915050565b6000819050919050565b62000173816200015e565b81146200017f57600080fd5b50565b600081519050620001938162000168565b92915050565b60008060008060808587031215620001b657620001b5620000f4565b5b6000620001c68782880162000147565b9450506020620001d98782880162000182565b9350506040620001ec8782880162000182565b9250506060620001ff8782880162000182565b91505092959194509250565b7f4e487b7100000000000000000000000000000000000000000000000000000000600052601160045260246000fd5b600062000247826200015e565b915062000254836200015e565b9250817fffffffffffffffffffffffffffffffffffffffffffffffffffffffffffffffff048311821515161562000290576200028f6200020b565b5b828202905092915050565b6000620002a8826200015e565b9150620002b5836200015e565b9250827fffffffffffffffffffffffffffffffffffffffffffffffffffffffffffffffff03821115620002ed57620002ec6200020b565b5b828201905092915050565b610e4a80620003086000396000f3fe6080604052600436106100a05760003560e01c806338af3eed1161006457806338af3eed146101ee57806344530f3a1461021957806363bd1d4a146102445780636b46c8c31461025b5780638da5cb5b14610286578063da284dcc146102b1576100a1565b80630c7bda591461014c5780630f15f4c014610177578063186601ca1461018157806322f3e2d4146101ac57806327a62828146101d7576100a1565b5b600034116100e4576040517f08c379a00000000000000000000000000000000000000000000000000000000081526004016100db906108a4565b60405180910390fd5b60008054906101000a900473ffffffffffffffffffffffffffffffffffffffff1673ffffffffffffffffffffffffffffffffffffffff166108fc349081150290604051600060405180830381858888f1935050505015801561014a573d6000803e3d6000fd5b005b34801561015857600080fd5b506101616102dc565b60405161016e91906108df565b60405180910390f35b61017f6102ef565b005b34801561018d57600080fd5b5061019661042e565b6040516101a391906108df565b60405180910390f35b3480156101b857600080fd5b506101c1610441565b6040516101ce91906108df565b60405180910390f35b3480156101e357600080fd5b506101ec61047e565b005b3480156101fa57600080fd5b5061020361060e565b604051610210919061093b565b60405180910390f35b34801561022557600080fd5b5061022e610634565b60405161023b919061096f565b60405180910390f35b34801561025057600080fd5b5061025961063a565b005b34801561026757600080fd5b50610270610817565b60405161027d919061096f565b60405180910390f35b34801561029257600080fd5b5061029b61081d565b6040516102a8919061093b565b60405180910390f35b3480156102bd57600080fd5b506102c6610841565b6040516102d3919061096f565b60405180910390f35b600560019054906101000a900460ff1681565b60008054906101000a900473ffffffffffffffffffffffffffffffffffffffff1673ffffffffffffffffffffffffffffffffffffffff163373ffffffffffffffffffffffffffffffffffffffff161461037d576040517f08c379a0000000000000000000000000000000000000000000000000000000008152600401610374906109fc565b60405180910390fd5b60025434146103c1576040517f08c379a00000000000000000000000000000000000000000000000000000000081526004016103b890610a8e565b60405180910390fd5b600560009054906101000a900460ff1615610411576040517f08c379a000000000000000000000000000000000000000000000000000000000815260040161040890610b20565b60405180910390fd5b6001600560006101000a81548160ff021916908315150217905550565b600560009054906101000a900460ff1681565b6000600560009054906101000a900460ff16801561046c5750600560019054906101000a900460ff16155b8015610479575060045442105b905090565b600160009054906101000a900473ffffffffffffffffffffffffffffffffffffffff1673ffffffffffffffffffffffffffffffffffffffff163373ffffffffffffffffffffffffffffffffffffffff161461050e576040517f08c379a000000000000000000000000000000000000000000000000000000000815260040161050590610bb2565b60405180910390fd5b600560009054906101000a900460ff1661055d576040517f08c379a000000000000000000000000000000000000000000000000000000000815260040161055490610c1e565b60405180910390fd5b600560019054906101000a900460ff16156105ad576040517f08c379a00000000000000000000000000000000000000000000000000000000081526004016105a490610c8a565b60405180910390fd5b60045442106105f1576040517f08c379a00000000000000000000000000000000000000000000000000000000081526004016105e890610cf6565b60405180910390fd5b6001600560016101000a81548160ff021916908315150217905550565b600160009054906101000a900473ffffffffffffffffffffffffffffffffffffffff1681565b60025481565b60008054906101000a900473ffffffffffffffffffffffffffffffffffffffff1673ffffffffffffffffffffffffffffffffffffffff163373ffffffffffffffffffffffffffffffffffffffff16146106c8576040517f08c379a00000000000000000000000000000000000000000000000000000000081526004016106bf90610d88565b60405180910390fd5b600560009054906101000a900460ff16610717576040517f08c379a000000000000000000000000000000000000000000000000000000000815260040161070e90610c1e565b60405180910390fd5b600560019054906101000a900460ff16610766576040517f08c379a000000000000000000000000000000000000000000000000000000000815260040161075d90610df4565b60405180910390fd5b60045442106107aa576040517f08c379a00000000000000000000000000000000000000000000000000000000081526004016107a190610cf6565b60405180910390fd5b600160009054906101000a900473ffffffffffffffffffffffffffffffffffffffff1673ffffffffffffffffffffffffffffffffffffffff166108fc6003549081150290604051600060405180830381858888f19350505050158015610814573d6000803e3d6000fd5b50565b60035481565b60008054906101000a900473ffffffffffffffffffffffffffffffffffffffff1681565b60045481565b600082825260208201905092915050565b7f4e6f2045746865722073656e742e000000000000000000000000000000000000600082015250565b600061088e600e83610847565b915061089982610858565b602082019050919050565b600060208201905081810360008301526108bd81610881565b9050919050565b60008115159050919050565b6108d9816108c4565b82525050565b60006020820190506108f460008301846108d0565b92915050565b600073ffffffffffffffffffffffffffffffffffffffff82169050919050565b6000610925826108fa565b9050919050565b6109358161091a565b82525050565b6000602082019050610950600083018461092c565b92915050565b6000819050919050565b61096981610956565b82525050565b60006020820190506109846000830184610960565b92915050565b7f4f6e6c7920746865206f776e65722063616e206163746976617465207468652060008201527f706f6c6963792e00000000000000000000000000000000000000000000000000602082015250565b60006109e6602783610847565b91506109f18261098a565b604082019050919050565b60006020820190508181036000830152610a15816109d9565b9050919050565b7f5072656d69756d20616d6f756e74206d757374206265207061696420746f206160008201527f637469766174652074686520706f6c6963792e00000000000000000000000000602082015250565b6000610a78603383610847565b9150610a8382610a1c565b604082019050919050565b60006020820190508181036000830152610aa781610a6b565b9050919050565b7f506f6c6963792068617320616c7265616479206265656e20616374697661746560008201527f642e000000000000000000000000000000000000000000000000000000000000602082015250565b6000610b0a602283610847565b9150610b1582610aae565b604082019050919050565b60006020820190508181036000830152610b3981610afd565b9050919050565b7f4f6e6c79207468652062656e65666963696172792063616e207265706f72742060008201527f61207269736b2e00000000000000000000000000000000000000000000000000602082015250565b6000610b9c602783610847565b9150610ba782610b40565b604082019050919050565b60006020820190508181036000830152610bcb81610b8f565b9050919050565b7f506f6c69637920686173206e6f74206265656e206163746976617465642e0000600082015250565b6000610c08601e83610847565b9150610c1382610bd2565b602082019050919050565b60006020820190508181036000830152610c3781610bfb565b9050919050565b7f5269736b2068617320616c7265616479206265656e207265706f727465642e00600082015250565b6000610c74601f83610847565b9150610c7f82610c3e565b602082019050919050565b60006020820190508181036000830152610ca381610c67565b9050919050565b7f506f6c6963792068617320657870697265642e00000000000000000000000000600082015250565b6000610ce0601383610847565b9150610ceb82610caa565b602082019050919050565b60006020820190508181036000830152610d0f81610cd3565b9050919050565b7f4f6e6c7920746865206f776e65722063616e20706179206f757420746865206960008201527f6e737572656420616d6f756e742e000000000000000000000000000000000000602082015250565b6000610d72602e83610847565b9150610d7d82610d16565b604082019050919050565b60006020820190508181036000830152610da181610d65565b9050919050565b7f5269736b20686173206e6f74206f636375727265642e00000000000000000000600082015250565b6000610dde601683610847565b9150610de982610da8565b602082019050919050565b60006020820190508181036000830152610e0d81610dd1565b905091905056fea26469706673582212205d4d965df6f9039ba57921921189cba27b7f1aae5aefed8777fedeebc9d60bca64736f6c634300080d0033a264697066735822122025f6161b75c8b31caa70ef5294e8455fa31bc6d0bbd07576a98402a0b613676e64736f6c634300080d0033",
  "immutableReferences": {},
  "source": "pragma solidity ^0.8.0;\r\n\r\n// Factory contract that creates new instances of InsurancePolicy\r\ncontract InsuranceFactory {\r\n\r\n    // Array of addresses that are allowed to create new policies\r\n    address[] private allowedCreators;\r\n\r\n    // Array to keep track of all the policies that have been created\r\n    address payable[] private allPolicies;\r\n    \r\n    // Modifier that checks if the caller is allowed to create new policies\r\n    modifier onlyAllowedCreators() {\r\n        bool allowed = false;\r\n        for (uint256 i = 0; i < allowedCreators.length; i++) {\r\n            if (allowedCreators[i] == msg.sender) {\r\n                allowed = true;\r\n                break;\r\n            }\r\n        }\r\n        require(allowed, \"Only allowed creators can create new policies\");\r\n        _;\r\n    }\r\n\r\n    // Constructor function that sets the initial set of allowed creators\r\n    constructor(address[] memory _allowedCreators) {\r\n        allowedCreators = _allowedCreators;\r\n    }\r\n\r\n    // Function to add a new address to the allowed creators list\r\n    function addAllowedCreator(address newCreator) public onlyAllowedCreators {\r\n        allowedCreators.push(newCreator);\r\n    }\r\n\r\n    // Function to remove an address from the allowed creators list\r\n    function removeAllowedCreator(address creator) public onlyAllowedCreators {\r\n        for (uint256 i = 0; i < allowedCreators.length; i++) {\r\n            if (allowedCreators[i] == creator) {\r\n                allowedCreators[i] = allowedCreators[allowedCreators.length - 1];\r\n                allowedCreators.pop();\r\n                break;\r\n            }\r\n        }\r\n    }\r\n\r\n    // Function to create a new instance of InsurancePolicy with an initial premium\r\n    function createInsurancePolicy(address payable _beneficiary, uint _premiumAmount, uint _payoutAmount, uint _durationInDays) public onlyAllowedCreators returns (address) {\r\n        \r\n        // Create a new instance of InsurancePolicy using the provided initial premium\r\n        InsurancePolicy newPolicy = new InsurancePolicy(_beneficiary, _premiumAmount, _payoutAmount, _durationInDays);\r\n\r\n        // Return the address of the new instance of InsurancePolicy\r\n        return address(newPolicy);\r\n    }\r\n\r\n}\r\n\r\n\r\n// Contract representing an insurance policy\r\ncontract InsurancePolicy {\r\n    // The owner of the contract\r\n    address payable public owner;\r\n\r\n    // The beneficiary of the insurance policy\r\n    address payable public beneficiary;\r\n\r\n    // The amount of the insurance premium\r\n    uint public premiumAmount;\r\n\r\n    // The amount to be paid out if the risk occurs\r\n    uint public payoutAmount;\r\n\r\n    // The time at which the policy expires\r\n    uint public expirationTime;\r\n\r\n    // True if the policy has been activated\r\n    bool public activated;\r\n\r\n    // True if the risk has occurred\r\n    bool public riskOccurred;\r\n\r\n    // The constructor function - sets the owner, beneficiary, premium amount, and payout amount\r\n    constructor(address payable _beneficiary, uint _premiumAmount, uint _payoutAmount, uint _durationInDays) {\r\n        owner = payable(msg.sender);\r\n        beneficiary = _beneficiary;\r\n        premiumAmount = _premiumAmount;\r\n        payoutAmount = _payoutAmount;\r\n        expirationTime = block.timestamp + (_durationInDays * 1 days);\r\n    }\r\n\r\n    // The function to activate the insurance policy\r\n    function activate() public payable {\r\n        require(msg.sender == owner, \"Only the owner can activate the policy.\");\r\n        require(msg.value == premiumAmount, \"Premium amount must be paid to activate the policy.\");\r\n        require(!activated, \"Policy has already been activated.\");\r\n        activated = true;\r\n    }\r\n\r\n    // The function to check if the policy is still active\r\n    function isActive() public view returns (bool) {\r\n        return (activated && !riskOccurred && block.timestamp < expirationTime);\r\n    }\r\n\r\n    // The function to report that the risk has occurred\r\n    function reportRisk() public {\r\n        require(msg.sender == beneficiary, \"Only the beneficiary can report a risk.\");\r\n        require(activated, \"Policy has not been activated.\");\r\n        require(!riskOccurred, \"Risk has already been reported.\");\r\n        require(block.timestamp < expirationTime, \"Policy has expired.\");\r\n        riskOccurred = true;\r\n    }\r\n\r\n    // The function to pay out the insured amount if the risk occurs\r\n    function payout() public {\r\n        require(msg.sender == owner, \"Only the owner can pay out the insured amount.\");\r\n        require(activated, \"Policy has not been activated.\");\r\n        require(riskOccurred, \"Risk has not occurred.\");\r\n        require(block.timestamp < expirationTime, \"Policy has expired.\");\r\n        payable(beneficiary).transfer(payoutAmount);\r\n    }\r\n\r\n    // The fallback function - refunds any excess Ether sent to the contract\r\n    fallback() external payable {\r\n        require(msg.value > 0, \"No Ether sent.\");\r\n        owner.transfer(msg.value);\r\n    }\r\n}\r\n",
  "sourcePath": "C:\\Users\\littl\\projects\\sc_insurance\\contracts\\insurance_factory.sol",
  "compiler": {
    "name": "solc",
    "version": "0.8.13+commit.abaa5c0e.Emscripten.clang"
  },
  "schemaVersion": "3.4.13",
  "updatedAt": "2023-05-01T22:10:16.203Z",
  "devdoc": {
    "kind": "dev",
    "methods": {},
    "version": 1
  },
  "userdoc": {
    "kind": "user",
    "methods": {},
    "version": 1
  }
}